:100000000C942A000C9447000C9447000C94470071
:100010000C9447000C9447000C9447000C94470044
:100020000C9447000C9447000C9447000C94470034
:100030000C9447000C9447000C9447000C94470024
:100040000C9447000C9447000C9447000C94470014
:100050000C94470011241FBECFE5D8E0DEBFCDBF12
:1000600010E0A0E6B0E0E8E6F5E202C005900D92EF
:10007000AA3AB107D9F710E0AAEAB0E001C01D9290
:10008000A33BB107E1F70E94410D0C94B2120C940E
:100090000000EF92FF920F931F937B018C0120E0F1
:1000A00030E040E05FE40E94490388238CF0C801FF
:1000B000B70120E030E040E05FE40E94C1010E940F
:1000C000A9039B01AC01205030404040504806C07D
:1000D000C801B7010E94A9039B01AC01B901CA0183
:1000E0001F910F91FF90EF900895A0E0B0E0EBE733
:1000F000F0E00C943612DC012B01FA019C91923055
:1001000008F439C1EB018881823008F433C194309E
:1001100069F4843009F02FC111969C91119789815F
:10012000981709F428C1AAE6B0E025C1843009F483
:1001300021C18230A9F4923009F01DC19A01AD01AC
:1001400088E0EA010990AE01E90109929E0181501F
:10015000C1F7E201898111969C918923818308C1AD
:10016000923009F407C112962D903C901397EB0141
:100170008A819B811496AD90BD90CD90DC901797AD
:10018000EC80FD800E811F819101281B390BB90184
:1001900037FF04C066277727621B730B6032710537
:1001A0000CF061C0121613066CF537014801062EDB
:1001B00004C096948794779467940A94D2F721E0C8
:1001C00030E040E050E004C0220F331F441F551FB1
:1001D0006A95D2F721503040404050402E213F21B7
:1001E00040235123211531054105510521F021E01E
:1001F00030E040E050E079018A01E628F72808293C
:1002000019293CC0232BD1F1260E371E350146019A
:10021000062E04C096948794779467940A94D2F734
:1002200021E030E040E050E004C0220F331F441FC3
:10023000551F6A95D2F721503040404050402A2146
:100240003B214C215D21211531054105510521F04E
:1002500021E030E040E050E059016A01A628B728CB
:10026000C828D9280BC0821593052CF01C01AA249C
:10027000BB24650103C0EE24FF24870111969C91E5
:10028000D20111968C91981709F445C0992339F041
:10029000A80197012A193B094C095D0906C0A6016E
:1002A00095012E193F09400B510B57FD08C01182D3
:1002B0003382228224833583468357831DC081E0A5
:1002C00081833382228288279927DC01821B930B4A
:1002D000A40BB50B84839583A683B7830DC0220F2F
:1002E000331F441F551F24833583468357838281E0
:1002F000938101979383828324813581468157813D
:10030000DA01C9010197A109B1098F5F9F4FAF4F72
:10031000BF4328F30BC0918333822282EA0CFB1C7B
:100320000C1D1D1DE482F5820683178383E0808304
:10033000248135814681578157FF1AC0C901AA27F8
:1003400097FDA095BA2F81709070A070B0705695EF
:10035000479537952795822B932BA42BB52B848318
:100360009583A683B7838281938101969383828349
:10037000DF0101C0D201CD01CDB7DEB7E2E10C94BF
:100380005212A0E2B0E0E7ECF1E00C944212698373
:100390007A838B839C832D833E834F835887E9E048
:1003A000EE2EF12CEC0EFD1ECE010196B7010E943F
:1003B000D2048E010F5E1F4FCE010596B8010E9438
:1003C000D2048A8991E089278A8BC701B801AE01DE
:1003D000475E5F4F0E9475000E94FD03A096E6E015
:1003E0000C945E12A0E2B0E0E8EFF1E00C9442124F
:1003F00069837A838B839C832D833E834F835887C5
:10040000F9E0EF2EF12CEC0EFD1ECE010196B701A6
:100410000E94D2048E010F5E1F4FCE010596B801D7
:100420000E94D204C701B801AE01475E5F4F0E942F
:1004300075000E94FD03A096E6E00C945E12A0E217
:10044000B0E0E5E2F2E00C94361269837A838B83A4
:100450009C832D833E834F835887CE010196BE0136
:10046000675F7F4F0E94D204CE010596BE016F5E8A
:100470007F4F0E94D2049985923088F0898982301A
:10048000C8F0943019F4823051F404C0843029F457
:10049000923081F48AE690E0C6C0923049F420E0C0
:1004A0009A858A89981321E02A87CE010996BBC0D4
:1004B000823049F420E09A858A89981321E02A8BBA
:1004C000CE014196B0C02D843E844F8458886D88FB
:1004D0007E888F88988CEE24FF248701AA24BB2471
:1004E000650140E050E060E070E0E0E0F0E0C10174
:1004F00081709070892BE9F0E60CF71C081D191D1E
:100500009A01AB012A0D3B1D4C1D5D1D80E090E062
:10051000A0E0B0E0E614F7040805190520F481E036
:1005200090E0A0E0B0E0BA01A901480F591F6A1F8E
:100530007B1FAA0CBB1CCC1CDD1C97FE08C081E0F5
:1005400090E0A0E0B0E0A82AB92ACA2ADB2A3196B6
:10055000E032F10549F0660C771C881C991C569412
:10056000479437942794C3CFFA85EA892B893C892D
:100570008B859C85280F391F2E5F3F4F17C0CA01FE
:1005800081709070892B61F016950795F794E79428
:1005900080E090E0A0E0B0E8E82AF92A0A2B1B2BC3
:1005A00076956795579547952F5F3F4F77FDE7CF36
:1005B0000CC0440F551F661F771F17FD4160EE0CDE
:1005C000FF1C001F111F21503040403090E05907A0
:1005D00090E0690790E4790760F32B8F3C8FDB0193
:1005E000CA018F779070A070B07080349105A1051A
:1005F000B10561F447FD0AC0E114F10401051105DC
:1006000029F0405C5F4F6F4F7F4F40781A8EFE1786
:1006100011F081E08A8F4D8F5E8F6F8F78A383E01A
:10062000898FCE0149960E94FD03A096E2E10C94C9
:100630005212A8E1B0E0EFE1F3E00C9442126983BA
:100640007A838B839C832D833E834F83588789E0F5
:10065000E82EF12CEC0EFD1ECE010196B7010E9492
:10066000D2048E010F5E1F4FCE010596B8010E9485
:10067000D2048985823040F08989823028F0C70110
:10068000B8010E944A0501C08FEF6896E6E00C941D
:100690005E12A8E1B0E0EFE4F3E00C94421269834B
:1006A0007A838B839C832D833E834F83588789E095
:1006B000E82EF12CEC0EFD1ECE010196B7010E9432
:1006C000D2048E010F5E1F4FCE010596B8010E9425
:1006D000D2048985823040F08989823028F0C701B0
:1006E000B8010E944A0501C08FEF6896E6E00C94BD
:1006F0005E12A8E1B0E0EFE7F3E00C9442126983E8
:100700007A838B839C832D833E834F83588789E034
:10071000E82EF12CEC0EFD1ECE010196B7010E94D1
:10072000D2048E010F5E1F4FCE010596B8010E94C4
:10073000D2048985823040F08989823028F0C7014F
:10074000B8010E944A0501C081E06896E6E00C9479
:100750005E12ACE0B0E0EFEAF3E00C94461269837D
:100760007A838B839C83CE010196BE016B5F7F4FA2
:100770000E94D2048D81823061F1823050F1843048
:1007800021F48E81882351F12EC02F81388537FDC9
:1007900020C06E812F3131051CF06623F9F023C093
:1007A0008EE190E0821B930B29853A854B855C8511
:1007B00004C056954795379527958A95D2F76623B5
:1007C000B1F050954095309521953F4F4F4F5F4F79
:1007D0000EC020E030E040E050E009C02FEF3FEFD6
:1007E0004FEF5FE704C020E030E040E050E8B9019F
:1007F000CA012C96E2E00C946212DF92EF92FF9213
:100800000F931F93FC01E480F58006811781D1804E
:100810008081823048F480E090E0A0E1B0E0E82AF6
:10082000F92A0A2B1B2BA5C0843009F49FC0823003
:1008300021F4EE24FF24870105C0E114F104010531
:10084000110519F4E0E0F0E096C0628173819FEF3A
:10085000623879070CF05BC022E83FEF261B370BAC
:100860002A3131052CF020E030E040E050E02AC091
:10087000B801A701022E04C0769567955795479554
:100880000A94D2F781E090E0A0E0B0E004C0880FC5
:10089000991FAA1FBB1F2A95D2F70197A109B10979
:1008A0008E219F21A023B1230097A105B10521F03E
:1008B00081E090E0A0E0B0E09A01AB01282B392B59
:1008C0004A2B5B2BDA01C9018F779070A070B07052
:1008D00080349105A105B10539F427FF09C0205CDA
:1008E0003F4F4F4F5F4F04C0215C3F4F4F4F5F4F13
:1008F000E0E0F0E02030A0E03A07A0E04A07A0E402
:100900005A0710F0E1E0F0E079018A0127C0603871
:10091000710564F5FB01E158FF4FD801C7018F77DE
:100920009070A070B07080349105A105B10539F4C4
:10093000E7FE0DC080E490E0A0E0B0E004C08FE3EB
:1009400090E0A0E0B0E0E80EF91E0A1F1B1F17FFA1
:1009500005C016950795F794E794319687E01695AC
:100960000795F794E7948A95D1F705C0EE24FF2404
:100970008701EFEFF0E06E2F679566276795902F60
:100980009F77D794DD24D7948E2F8695492F462BB9
:10099000582F5D29B701CA011F910F91FF90EF9069
:1009A000DF900895FC01DB01408151812281622F9B
:1009B0006F7770E0221F2227221F9381892F880FD3
:1009C000822B282F30E0991F9927991F11969C930D
:1009D000119721153105A9F54115510561057105DD
:1009E00011F482E037C082E89FEF13969C938E93B8
:1009F00012979A01AB0167E0220F331F441F551F66
:100A00006A95D1F783E08C930DC0220F331F441FEA
:100A1000551F12968D919C911397019713969C9355
:100A20008E931297203080E0380780E0480780E4FA
:100A3000580758F314962D933D934D935C93179755
:100A400008952F3F310579F4411551056105710570
:100A500019F484E08C93089564FF03C081E08C93C3
:100A600012C01C9210C02F57304013963C932E9307
:100A7000129783E08C9387E0440F551F661F771F02
:100A80008A95D1F7706414964D935D936D937C9322
:100A9000179708951F93DC01FB019C91923008F495
:100AA00047C08081823008F443C0943051F41196DD
:100AB0001C91843099F58181682F70E0611B710968
:100AC0003FC0843021F0923031F48230B9F181811D
:100AD000882389F12DC011961C9111978230F1F075
:100AE00081811817D9F412962D913C911397828128
:100AF00093818217930794F028173907BCF0149656
:100B00008D919D910D90BC91A02D248135814681C0
:100B10005781281739074A075B0718F4112341F05A
:100B20000AC082179307A407B50740F4112319F0F0
:100B300061E070E005C06FEF7FEF02C060E070E041
:100B4000CB011F910895DF93CF93CDB7DEB7A6E217
:100B5000B0E0E6E2F0E0808187688C93A7E2B0E045
:100B6000E7E2F0E0808180668C93CF91DF91089579
:100B7000DF93CF9300D00F92CDB7DEB78B83A7E280
:100B8000B0E0E7E2F0E0808188778C93A7E2B0E004
:100B9000E7E2F0E08081982F8B818770892B8C931E
:100BA000A6E2B0E0E6E2F0E0808180648C93E6E2C9
:100BB000F0E08081882F90E0807490700097B9F702
:100BC000E5E2F0E08081882F90E09A838983A6E2B5
:100BD000B0E0E6E2F0E0808180618C9389819A81C7
:100BE0000F900F900F90CF91DF910895DF93CF93E7
:100BF000CDB7DEB72F970FB6F894DEBF0FBECDBFCF
:100C00001F861AC08F85882F90E0FC01E658FF4FA1
:100C100080810E94EB118F85282F30E08F85882FEF
:100C200090E0FC01EE58FF4F8081F901E658FF4F3C
:100C300080838F858F5F8F878F85883018F380E062
:100C400090E0A8ECB2E48B879C87AD87BE876B856C
:100C50007C858D859E8520E030E84BE355E40E943D
:100C60001F02DC01CB018F839887A987BA876F8128
:100C7000788589859A8520E030E040E85FE30E942E
:100C8000790388232CF481E090E09E838D833FC01C
:100C90006F81788589859A8520E03FEF4FE757E49B
:100CA0000E94190318164CF56B857C858D859E85F1
:100CB00020E030E040E251E40E941F02DC01CB0161
:100CC000BC01CD010E944900DC01CB019E838D83D4
:100CD0000FC08CE291E09C838B838B819C81019778
:100CE000F1F79C838B838D819E8101979E838D83F9
:100CF0008D819E81009769F714C06F817885898501
:100D00009A850E944900DC01CB019E838D838D81F1
:100D10009E819A83898389819A810197F1F79A83C9
:100D200089832F960FB6F894DEBF0FBECDBFCF914B
:100D3000DF910895DF93CF93CDB7DEB78AE180933B
:100D40007D000E94F605CF91DF910895DF93CF9348
:100D500000D0CDB7DEB79A83898383E080937D008E
:100D600089819A818F3F910509F020F489818093D0
:100D700080000BC08981809380008981882F90E05A
:100D8000892F990F990B80937F000E94F6050F9091
:100D90000F90CF91DF910895DF93CF930F92CDB74E
:100DA000DEB7898389818F3110F08EE1898386E0F7
:100DB00080937D008981809380000E94F6050F90CA
:100DC000CF91DF910895DF93CF930F92CDB7DEB728
:100DD000898388E080937D008981809380000E94D0
:100DE000F6050F90CF91DF910895DF93CF93CDB7A4
:100DF000DEB78EE080937D000E94F605CF91DF91F3
:100E00000895DF93CF93CDB7DEB786E180937D0061
:100E10000E94F605CF91DF910895DF93CF93CDB770
:100E2000DEB78DE080937D000E94F605CF91DF91C3
:100E30000895DF93CF93CDB7DEB78CE080937D002C
:100E40000E94F605CF91DF910895DF93CF9300D0F4
:100E5000CDB7DEB79A8389830E94F5068EE10E94A2
:100E6000CC0689819A810E94A6060F900F90CF919F
:100E7000DF910895DF93CF93CDB7DEB7E8970FB634
:100E8000F894DEBF0FBECDBF80E090E0A0E2B2E4F8
:100E90008DAB9EABAFABB8AF6DA97EA98FA998AD56
:100EA00020E030E84BE355E40E941F02DC01CB0157
:100EB00089AB9AABABABBCAB69A97AA98BA99CA94E
:100EC00020E030E040E85FE30E94790388232CF4BF
:100ED00081E090E098AB8FA73FC069A97AA98BA960
:100EE0009CA920E03FEF4FE757E40E941903181632
:100EF0004CF56DA97EA98FA998AD20E030E040E2C5
:100F000051E40E941F02DC01CB01BC01CD010E9413
:100F10004900DC01CB0198AB8FA70FC08CE291E0B8
:100F20009EA78DA78DA59EA50197F1F79EA78DA7DA
:100F30008FA598A9019798AB8FA78FA598A900971F
:100F400069F714C069A97AA98BA99CA90E944900D4
:100F5000DC01CB0198AB8FA78FA598A99CA78BA785
:100F60008BA59CA50197F1F79CA78BA78CE30E940A
:100F70001E0980E090E0A0E4B0E48FA398A7A9A7A1
:100F8000BAA76FA178A589A59AA520E030E84BE320
:100F900055E40E941F02DC01CB018BA39CA3ADA3EF
:100FA000BEA36BA17CA18DA19EA120E030E040E812
:100FB0005FE30E94790388232CF481E090E09AA3F8
:100FC00089A33FC06BA17CA18DA19EA120E03FEF32
:100FD0004FE757E40E94190318164CF56FA178A546
:100FE00089A59AA520E030E040E251E40E941F026A
:100FF000DC01CB01BC01CD010E944900DC01CB0129
:101000009AA389A30FC08CE291E098A38F8F8F8D54
:1010100098A10197F1F798A38F8F89A19AA10197C1
:101020009AA389A389A19AA1009769F714C06BA11B
:101030007CA18DA19EA10E944900DC01CB019AA355
:1010400089A389A19AA19E8F8D8F8D8D9E8D0197E9
:10105000F1F79E8F8D8F8CE00E941E0980E090E05A
:10106000A0E4B0E4898F9A8FAB8FBC8F698D7A8DA5
:101070008B8D9C8D20E030E84BE355E40E941F02ED
:10108000DC01CB018D8B9E8BAF8BB88F6D897E89F8
:101090008F89988D20E030E040E85FE30E9479037B
:1010A00088232CF481E090E09C8B8B8B3FC06D8972
:1010B0007E898F89988D20E03FEF4FE757E40E94AB
:1010C000190318164CF5698D7A8D8B8D9C8D20E057
:1010D00030E040E251E40E941F02DC01CB01BC0180
:1010E000CD010E944900DC01CB019C8B8B8B0FC092
:1010F0008CE291E09A8B898B89899A890197F1F723
:101100009A8B898B8B899C8901979C8B8B8B8B8984
:101110009C89009769F714C06D897E898F89988DA5
:101120000E944900DC01CB019C8B8B8B8B899C89B5
:10113000988B8F878F8598890197F1F7988B8F8788
:1011400081E00E941E0980E090E0A0E4B0E48B877B
:101150009C87AD87BE876B857C858D859E8520E0CD
:1011600030E84BE355E40E941F02DC01CB018F8382
:101170009887A987BA876F81788589859A8520E0C5
:1011800030E040E85FE30E94790388232CF481E09B
:1011900090E09E838D833FC06F81788589859A8595
:1011A00020E03FEF4FE757E40E94190318164CF573
:1011B0006B857C858D859E8520E030E040E251E4A2
:1011C0000E941F02DC01CB01BC01CD010E9449003D
:1011D000DC01CB019E838D830FC08CE291E09C8368
:1011E0008B838B819C810197F1F79C838B838D810D
:1011F0009E8101979E838D838D819E81009769F7E3
:1012000014C06F81788589859A850E944900DC0128
:10121000CB019E838D838D819E819A838983898171
:101220009A810197F1F79A838983E8960FB6F8942B
:10123000DEBF0FBECDBFCF91DF910895DF93CF9377
:10124000CDB7DEB72F970FB6F894DEBF0FBECDBF78
:101250008F87A8E3B0E0E8E3F0E080818E7F8C9395
:10126000A8E3B0E0E8E3F0E080818D7F8C93A8E311
:10127000B0E0E8E3F0E080818B7F8C93E5E3F0E081
:101280008F858083A8E3B0E0E8E3F0E080818160AF
:101290008C9380E090E0A0E0B0E48B879C87AD87E2
:1012A000BE876B857C858D859E8520E030E84BE38D
:1012B00055E40E941F02DC01CB018F839887A98728
:1012C000BA876F81788589859A8520E030E040E88B
:1012D0005FE30E94790388232CF481E090E09E83F1
:1012E0008D833FC06F81788589859A8520E03FEFA7
:1012F0004FE757E40E94190318164CF56B857C855F
:101300008D859E8520E030E040E251E40E941F027E
:10131000DC01CB01BC01CD010E944900DC01CB0105
:101320009E838D830FC08CE291E09C838B838B81A5
:101330009C810197F1F79C838B838D819E8101971E
:101340009E838D838D819E81009769F714C06F8184
:10135000788589859A850E944900DC01CB019E83AE
:101360008D838D819E819A83898389819A8101975A
:10137000F1F79A838983A8E3B0E0E8E3F0E08081A5
:101380008E7F8C932F960FB6F894DEBF0FBECDBF25
:10139000CF91DF910895DF93CF93CDB7DEB72F972D
:1013A0000FB6F894DEBF0FBECDBF8F87A8E3B0E0C5
:1013B000E8E3F0E080818E7F8C93A8E3B0E0E8E37F
:1013C000F0E080818D7F8C93A8E3B0E0E8E3F0E06B
:1013D000808184608C93E5E3F0E08F858083A8E3CF
:1013E000B0E0E8E3F0E0808181608C9380E090E001
:1013F000A0E0B0E48B879C87AD87BE876B857C853A
:101400008D859E8520E030E84BE355E40E941F0265
:10141000DC01CB018F839887A987BA876F81788594
:1014200089859A8520E030E040E85FE30E947903F7
:1014300088232CF481E090E09E838D833FC06F81F0
:10144000788589859A8520E03FEF4FE757E40E9431
:10145000190318164CF56B857C858D859E8520E0DB
:1014600030E040E251E40E941F02DC01CB01BC01EC
:10147000CD010E944900DC01CB019E838D830FC00A
:101480008CE291E09C838B838B819C810197F1F7A7
:101490009C838B838D819E8101979E838D838D811B
:1014A0009E81009769F714C06F81788589859A8538
:1014B0000E944900DC01CB019E838D838D819E813A
:1014C0009A83898389819A810197F1F79A83898325
:1014D000A8E3B0E0E8E3F0E080818E7F8C932F9664
:1014E0000FB6F894DEBF0FBECDBFCF91DF91089548
:1014F000DF93CF93CDB7DEB761970FB6F894DEBF19
:101500000FBECDBF998B888B1F8680C08F85282FFB
:1015100030E088899989FC01E20FF31F80810E94E5
:10152000CB098F858F5F8F8780E090E0A0E0B0E4EB
:101530008B879C87AD87BE876B857C858D859E85D7
:1015400020E030E84BE355E40E941F02DC01CB01B0
:101550008F839887A987BA876F81788589859A85CF
:1015600020E030E040E85FE30E94790388232CF418
:1015700081E090E09E838D833FC06F81788589856F
:101580009A8520E03FEF4FE757E40E9419031816B1
:101590004CF56B857C858D859E8520E030E040E2B2
:1015A00051E40E941F02DC01CB01BC01CD010E946D
:1015B0004900DC01CB019E838D830FC08CE291E05A
:1015C0009C838B838B819C810197F1F79C838B8318
:1015D0008D819E8101979E838D838D819E81009751
:1015E00069F714C06F81788589859A850E944900C2
:1015F000DC01CB019E838D838D819E819A838983BB
:1016000089819A810197F1F79A8389838F85282FA1
:1016100030E088899989FC01E20FF31F80818823DB
:1016200009F074CF61960FB6F894DEBF0FBECDBF40
:10163000CF91DF910895DF93CF93CDB7DEB7649755
:101640000FB6F894DEBF0FBECDBF8B8B6C8B80E8DE
:101650008F8780EC888B84E9898B84ED8A8B8C89D9
:10166000882F90E09C0121503040CE010F96FC0164
:10167000E20FF31F90818B89890F81500E941E0910
:1016800080E090E0A0E8BFE38B879C87AD87BE87B2
:101690006B857C858D859E8520E030E84BE355E4A5
:1016A0000E941F02DC01CB018F839887A987BA872C
:1016B0006F81788589859A8520E030E040E85FE396
:1016C0000E94790388232CF481E090E09E838D832F
:1016D0003FC06F81788589859A8520E03FEF4FE78D
:1016E00057E40E94190318164CF56B857C858D858F
:1016F0009E8520E030E040E251E40E941F02DC01C0
:10170000CB01BC01CD010E944900DC01CB019E83CD
:101710008D830FC08CE291E09C838B838B819C81B5
:101720000197F1F79C838B838D819E8101979E8326
:101730008D838D819E81009769F714C06F817885B4
:1017400089859A850E944900DC01CB019E838D83A7
:101750008D819E819A83898389819A810197F1F78E
:101760009A83898364960FB6F894DEBF0FBECDBF0F
:10177000CF91DF910895DF93CF93CDB7DEB72E974A
:101780000FB6F894DEBF0FBECDBF80E10E941E09E8
:1017900080E090E0A0E8BFE38B879C87AD87BE87A1
:1017A0006B857C858D859E8520E030E84BE355E494
:1017B0000E941F02DC01CB018F839887A987BA871B
:1017C0006F81788589859A8520E030E040E85FE385
:1017D0000E94790388232CF481E090E09E838D831E
:1017E0003FC06F81788589859A8520E03FEF4FE77C
:1017F00057E40E94190318164CF56B857C858D857E
:101800009E8520E030E040E251E40E941F02DC01AE
:10181000CB01BC01CD010E944900DC01CB019E83BC
:101820008D830FC08CE291E09C838B838B819C81A4
:101830000197F1F79C838B838D819E8101979E8315
:101840008D838D819E81009769F714C06F817885A3
:1018500089859A850E944900DC01CB019E838D8396
:101860008D819E819A83898389819A810197F1F77D
:101870009A8389832E960FB6F894DEBF0FBECDBF34
:10188000CF91DF910895DF93CF93CDB7DEB72E9739
:101890000FB6F894DEBF0FBECDBF84E10E941E09D3
:1018A00080E090E0A0E8BFE38B879C87AD87BE8790
:1018B0006B857C858D859E8520E030E84BE355E483
:1018C0000E941F02DC01CB018F839887A987BA870A
:1018D0006F81788589859A8520E030E040E85FE374
:1018E0000E94790388232CF481E090E09E838D830D
:1018F0003FC06F81788589859A8520E03FEF4FE76B
:1019000057E40E94190318164CF56B857C858D856C
:101910009E8520E030E040E251E40E941F02DC019D
:10192000CB01BC01CD010E944900DC01CB019E83AB
:101930008D830FC08CE291E09C838B838B819C8193
:101940000197F1F79C838B838D819E8101979E8304
:101950008D838D819E81009769F714C06F81788592
:1019600089859A850E944900DC01CB019E838D8385
:101970008D819E819A83898389819A810197F1F76C
:101980009A8389832E960FB6F894DEBF0FBECDBF23
:10199000CF91DF910895DF93CF9300D000D0CDB7E2
:1019A000DEB789836A835C834B8389816A810E9465
:1019B0001B0B8B819C810E94780A0F900F900F90D7
:1019C0000F90CF91DF910895EF92FF920F931F93A5
:1019D000DF93CF93CDB7DEB729970FB6F894DEBF6C
:1019E0000FBECDBF8B836C835E834D832F830DB77A
:1019F0001EB78DB79EB77C018F81882F90E02DB7E1
:101A00003EB7281B390B0FB6F8943EBF0FBE2DBF53
:101A10008DB79EB7019699878887888599850096A6
:101A200099878887288539853A8329838D819E8186
:101A300029813A81B9014AE050E00E946D12298162
:101A40003A818B816C81A9010E94CB0C80E690E0E9
:101A50000E94780A0FB6F894FEBE0FBEEDBE0FB618
:101A6000F8941EBF0FBE0DBF29960FB6F894DEBFC7
:101A70000FBECDBFCF91DF911F910F91FF90EF90DF
:101A800008950F931F93DF93CF93CDB7DEB7C9545B
:101A9000D0400FB6F894DEBF0FBECDBFE4E3F0E058
:101AA0008FEF8083E7E3F0E08FEF80830E943A07B7
:101AB00080E00E941E098CE40E94CB09FE01ED5BD0
:101AC000FF4F80E090E0AAEFB4E480839183A2838B
:101AD000B3838E01015C1F4FFE01ED5BFF4F608100
:101AE00071818281938120E030E84BE355E40E94CC
:101AF0001F02DC01CB01F80180839183A283B383B1
:101B0000FE01FF96608171818281938120E030E047
:101B100040E85FE30E94790388232CF481E090E0A1
:101B20009EAF8DAF46C0FE01FF96608171818281BC
:101B3000938120E03FEF4FE757E40E941903181606
:101B400064F5FE01ED5BFF4F6081718182819381BD
:101B500020E030E040E251E40E941F02DC01CB01B2
:101B6000BC01CD010E944900DC01CB019EAF8DAFCD
:101B70000FC08CE291E09CAF8BAF8BAD9CAD019719
:101B8000F1F79CAF8BAF8DAD9EAD01979EAF8DAF42
:101B90008DAD9EAD009769F716C0FE01FF9660817E
:101BA0007181828193810E944900DC01CB019EAF4B
:101BB0008DAF8DAD9EAD9AAF89AF89AD9AAD0197CE
:101BC000F1F79AAF89AF0E94BD110E949A060E9458
:101BD000A3058AEA90E00E94F6108AEA90E022E8E3
:101BE00030E0B9010E944A11882309F438C280917B
:101BF000B200282F30E02A963FAF2EAF2A972A96C0
:101C00008EAD9FAD2A978230910509F4A2C02A9625
:101C1000EEADFFAD2A97E330F10544F42A962EADE0
:101C20003FAD2A972130310591F0D3CF2A968EAD62
:101C30009FAD2A978330910509F40DC12A96EEAD28
:101C4000FFAD2A97E430F10509F487C1C2CFE5E37F
:101C5000F0E081E0808380E00E941E0982E690E04F
:101C60000E94780A81E090E00E94250780E090E0E1
:101C7000AAE7B4E48DAB9EABAFABB8AF6DA97EA9BC
:101C80008FA998AD20E030E84BE355E40E941F0295
:101C9000DC01CB0189AB9AABABABBCAB69A97AA930
:101CA0008BA99CA920E030E040E85FE30E94790323
:101CB00088232CF481E090E098AB8FA73FC069A9FE
:101CC0007AA98BA99CA920E03FEF4FE757E40E9437
:101CD000190318164CF56DA97EA98FA998AD20E0BF
:101CE00030E040E251E40E941F02DC01CB01BC0164
:101CF000CD010E944900DC01CB0198AB8FA70FC03A
:101D00008CE291E09EA78DA78DA59EA50197F1F786
:101D10009EA78DA78FA598A9019798AB8FA78FA590
:101D200098A9009769F755CF69A97AA98BA99CA9A9
:101D30000E944900DC01CB0198AB8FA78FA598A921
:101D40009CA78BA78BA59CA50197F1F79CA78BA7B8
:101D500040CFE5E3F0E082E0808380E00E941E094E
:101D600084E690E00E94780A82E090E00E942507D5
:101D700080E090E0AAE7B4E48FA398A7A9A7BAA748
:101D80006FA178A589A59AA520E030E84BE355E43A
:101D90000E941F02DC01CB018BA39CA3ADA3BEA3B9
:101DA0006BA17CA18DA19EA120E030E040E85FE323
:101DB0000E94790388232CF481E090E09AA389A300
:101DC0003FC06BA17CA18DA19EA120E03FEF4FE71A
:101DD00057E40E94190318164CF56FA178A589A540
:101DE0009AA520E030E040E251E40E941F02DC01AD
:101DF000CB01BC01CD010E944900DC01CB019AA3BB
:101E000089A30FC08CE291E098A38F8F8F8D98A14A
:101E10000197F1F798A38F8F89A19AA101979AA3AF
:101E200089A389A19AA1009769F7D3CE6BA17CA160
:101E30008DA19EA10E944900DC01CB019AA389A338
:101E400089A19AA19E8F8D8F8D8D9E8D0197F1F71F
:101E50009E8F8D8FBECEE5E3F0E084E0808380E04E
:101E60000E941E0986E690E00E94780A83E090E0D6
:101E70000E94250780E090E0AAE7B4E4898F9A8F5A
:101E8000AB8FBC8F698D7A8D8B8D9C8D20E030E877
:101E90004BE355E40E941F02DC01CB018D8B9E8B2E
:101EA000AF8BB88F6D897E898F89988D20E030E067
:101EB00040E85FE30E94790388232CF481E090E0FE
:101EC0009C8B8B8B3FC06D897E898F89988D20E09C
:101ED0003FEF4FE757E40E94190318164CF5698D40
:101EE0007A8D8B8D9C8D20E030E040E251E40E94A1
:101EF0001F02DC01CB01BC01CD010E944900DC01C5
:101F0000CB019C8B8B8B0FC08CE291E09A8B898BE1
:101F100089899A890197F1F79A8B898B8B899C899A
:101F200001979C8B8B8B8B899C89009769F751CE8D
:101F30006D897E898F89988D0E944900DC01CB01D3
:101F40009C8B8B8B8B899C89988B8F878F859889AD
:101F50000197F1F7988B8F873CCEE5E3F0E088E0BE
:101F6000808380E00E941E0988E690E00E94780A43
:101F700084E090E00E94250780E090E0AAEFB3E4BF
:101F80008B879C87AD87BE876B857C858D859E857D
:101F900020E030E84BE355E40E941F02DC01CB0156
:101FA0008F839887A987BA876F81788589859A8575
:101FB00020E030E040E85FE30E94790388232CF4BE
:101FC00081E090E09E838D833FC06F817885898515
:101FD0009A8520E03FEF4FE757E40E941903181657
:101FE0004CF56B857C858D859E8520E030E040E258
:101FF00051E40E941F02DC01CB01BC01CD010E9413
:102000004900DC01CB019E838D830FC08CE291E0FF
:102010009C838B838B819C810197F1F79C838B83BD
:102020008D819E8101979E838D838D819E810097F6
:1020300069F7CFCD6F81788589859A850E9449009F
:10204000DC01CB019E838D838D819E819A83898360
:1020500089819A810197F1F79A838983BACDE5E363
:10206000F0E01082B6CDDF93CF9300D00F92CDB7C2
:10207000DEB789837B836A838A819B81823991055C
:1020800040F08981882F90E0FC01E255FF4F1082DB
:1020900046C08A819B818239910570F48A819B8137
:1020A0008437910548F08981882F90E0FC01E25542
:1020B000FF4F81E0808333C08A819B818437910503
:1020C00070F48A819B818536910548F08981882F3B
:1020D00090E0FC01E255FF4F82E0808320C08A81BE
:1020E0009B818536910570F48A819B818B359105A2
:1020F00048F08981882F90E0FC01E255FF4F83E092
:1021000080830DC08A819B818A35910540F4898145
:10211000882F90E0FC01E255FF4F84E080830F9010
:102120000F900F90CF91DF910895DF93CF93CDB7AC
:10213000DEB728970FB6F894DEBF0FBECDBF9E83E3
:102140008D8378876F831A821C8243C01B8238C0BC
:102150008B81282F30E08D819E81FC01E20FF31FDF
:1021600040818B81282F30E08F819885FC01E20F20
:10217000F31F8081481721F0E5E3F0E0108223C0CF
:102180008B818823D1F48B81282F30E08D819E8133
:10219000FC01E20FF31F40818B81282F30E08F81FB
:1021A0009885FC01E20FF31F8081481731F4E5E3C5
:1021B000F0E081E0808381E08A838B818F5F8B8375
:1021C0008B81882329F28A81813039F08C818F5F5D
:1021D0008C838C818A3008F4B9CF28960FB6F89496
:1021E000DEBF0FBECDBFCF91DF910895DF93CF93B8
:1021F00000D0CDB7DEB79A83898380E00E94B8050E
:102200008093AE008091AE00282F30E080E0B901CD
:102210000E9433108091AE00E981FA81808381E0D1
:102220000E94B8058093AF008091AF00282F30E066
:1022300081E0B9010E9433108091AF00E981FA81F9
:10224000818382E00E94B8058093B0008091B00045
:10225000282F30E082E0B9010E9433108091B00055
:10226000E981FA81828383E00E94B8058093B100FE
:102270008091B100282F30E083E0B9010E94331033
:102280008091B100E981FA8183830F900F90CF9103
:10229000DF910895DF93CF93CDB7DEB727970FB6C1
:1022A000F894DEBF0FBECDBF9C838B837E836D838E
:1022B0001092B200198252C01A8249C08A81282F16
:1022C00030E08B819C81FC01E20FF31F408189810A
:1022D000882F90E09C01220F331F220F331F8D8126
:1022E0009E81280F391F8A81882F90E0F901E80F1D
:1022F000F91F8081481779F58A81882329F58A8119
:10230000282F30E08B819C81FC01E20FF31F40817C
:102310008981882F90E09C01220F331F220F331FE9
:102320008D819E81280F391F8A81882F90E0F901C5
:10233000E80FF91F8081481739F489818F5F8093F6
:10234000B20081E08F830FC08A818F5F8A838A8188
:10235000882309F4B3CF89818F5F898389818A308B
:1023600008F4AACF1F828F8127960FB6F894DEBF9C
:102370000FBECDBFCF91DF910895DF93CF9300D0F3
:10238000CDB7DEB78BE990E09A838983ABE2B0E00A
:10239000EBE2F0E0808182608C93AAE2B0E0EAE2B6
:1023A000F0E0808188618C93A0E4B0E0E0E4F0E0AC
:1023B000808186688C93E9E2F0E089818083E0E4A3
:1023C000F0E089819A81892F992780830F900F905F
:1023D000CF91DF910895DF93CF930F92CDB7DEB702
:1023E0008983EBE2F0E08081882F90E0807290702A
:1023F0000097B9F3ECE2F0E0898180830F90CF91F0
:10240000DF910895DF93CF9300D000D0CDB7DEB732
:102410009B838A836C83198219820EC08981282F3D
:1024200030E08A819B81FC01E20FF31F80810E94D2
:10243000EB1189818F5F898399818C81981770F363
:102440000F900F900F900F90CF91DF910895DF9331
:10245000CF93CDB7DEB7EBE2F0E080818823DCF7E5
:10246000ECE2F0E08081CF91DF9108952F923F92CE
:102470004F925F926F927F928F929F92AF92BF9294
:10248000CF92DF92EF92FF920F931F93CF93DF9340
:10249000CDB7DEB7CA1BDB0B0FB6F894DEBF0FBE9D
:1024A000CDBF09942A88398848885F846E847D84EA
:1024B0008C849B84AA84B984C884DF80EE80FD80EC
:1024C0000C811B81AA81B981CE0FD11D0FB6F89462
:1024D000DEBF0FBECDBFED010895FB019F01E89463
:1024E0004230C4F04532B4F44A3029F497FB1EF46C
:1024F000909581959F4F642F77270E949E12805D53
:102500008A330CF0895D8193CB010097A1F716F413
:102510005DE251931082C9010C948E12DC01FC0122
:10252000672F71917723E1F7329704C07C916D9307
:1025300070836291AE17BF07C8F30895AA1BBB1B37
:1025400051E107C0AA1FBB1FA617B70710F0A61BB3
:10255000B70B881F991F5A95A9F780959095BC01D4
:08256000CD010895F894FFCFAE
:102568002000410042004300440000000000000039
:1025780000007EFF0600000000EF7EFF060000005E
:1025880000EF010101010201010103010101040140
:102598000101000000000000000000000000000031
:0A25A8000000000000000000000029
:00000001FF
