:100000000C942A000C9447000C9447000C94470071
:100010000C9447000C9447000C9447000C94470044
:100020000C9447000C9447000C9447000C94470034
:100030000C9447000C9447000C9447000C94470024
:100040000C94FD0B0C9447000C9447000C94470053
:100050000C94470011241FBECFE5D8E0DEBFCDBF12
:1000600010E0A0E6B0E0ECE9FAE102C005900D92E4
:10007000A038B107D9F710E0A0E8B0E001C01D92A8
:10008000A438B107E1F70E94AA0B0C944C0D0C9414
:100090000000EF92FF920F931F937B018C0120E0F1
:1000A00030E040E05FE40E94490388238CF0C801FF
:1000B000B70120E030E040E05FE40E94C1010E940F
:1000C000A9039B01AC01205030404040504806C07D
:1000D000C801B7010E94A9039B01AC01B901CA0183
:1000E0001F910F91FF90EF900895A0E0B0E0EBE733
:1000F000F0E00C94D00CDC012B01FA019C919230C1
:1001000008F439C1EB018881823008F433C194309E
:1001100069F4843009F02FC111969C91119789815F
:10012000981709F428C1A8E7B0E025C1843009F484
:1001300021C18230A9F4923009F01DC19A01AD01AC
:1001400088E0EA010990AE01E90109929E0181501F
:10015000C1F7E201898111969C918923818308C1AD
:10016000923009F407C112962D903C901397EB0141
:100170008A819B811496AD90BD90CD90DC901797AD
:10018000EC80FD800E811F819101281B390BB90184
:1001900037FF04C066277727621B730B6032710537
:1001A0000CF061C0121613066CF537014801062EDB
:1001B00004C096948794779467940A94D2F721E0C8
:1001C00030E040E050E004C0220F331F441F551FB1
:1001D0006A95D2F721503040404050402E213F21B7
:1001E00040235123211531054105510521F021E01E
:1001F00030E040E050E079018A01E628F72808293C
:1002000019293CC0232BD1F1260E371E350146019A
:10021000062E04C096948794779467940A94D2F734
:1002200021E030E040E050E004C0220F331F441FC3
:10023000551F6A95D2F721503040404050402A2146
:100240003B214C215D21211531054105510521F04E
:1002500021E030E040E050E059016A01A628B728CB
:10026000C828D9280BC0821593052CF01C01AA249C
:10027000BB24650103C0EE24FF24870111969C91E5
:10028000D20111968C91981709F445C0992339F041
:10029000A80197012A193B094C095D0906C0A6016E
:1002A00095012E193F09400B510B57FD08C01182D3
:1002B0003382228224833583468357831DC081E0A5
:1002C00081833382228288279927DC01821B930B4A
:1002D000A40BB50B84839583A683B7830DC0220F2F
:1002E000331F441F551F24833583468357838281E0
:1002F000938101979383828324813581468157813D
:10030000DA01C9010197A109B1098F5F9F4FAF4F72
:10031000BF4328F30BC0918333822282EA0CFB1C7B
:100320000C1D1D1DE482F5820683178383E0808304
:10033000248135814681578157FF1AC0C901AA27F8
:1003400097FDA095BA2F81709070A070B0705695EF
:10035000479537952795822B932BA42BB52B848318
:100360009583A683B7838281938101969383828349
:10037000DF0101C0D201CD01CDB7DEB7E2E10C94BF
:10038000EC0CA0E2B0E0E7ECF1E00C94DC0C69834B
:100390007A838B839C832D833E834F835887E9E048
:1003A000EE2EF12CEC0EFD1ECE010196B7010E943F
:1003B000D2048E010F5E1F4FCE010596B8010E9438
:1003C000D2048A8991E089278A8BC701B801AE01DE
:1003D000475E5F4F0E9475000E94FD03A096E6E015
:1003E0000C94F80CA0E2B0E0E8EFF1E00C94DC0C27
:1003F00069837A838B839C832D833E834F835887C5
:10040000F9E0EF2EF12CEC0EFD1ECE010196B701A6
:100410000E94D2048E010F5E1F4FCE010596B801D7
:100420000E94D204C701B801AE01475E5F4F0E942F
:1004300075000E94FD03A096E6E00C94F80CA0E283
:10044000B0E0E5E2F2E00C94D00C69837A838B8310
:100450009C832D833E834F835887CE010196BE0136
:10046000675F7F4F0E94D204CE010596BE016F5E8A
:100470007F4F0E94D2049985923088F0898982301A
:10048000C8F0943019F4823051F404C0843029F457
:10049000923081F488E790E0C6C0923049F420E0C1
:1004A0009A858A89981321E02A87CE010996BBC0D4
:1004B000823049F420E09A858A89981321E02A8BBA
:1004C000CE014196B0C02D843E844F8458886D88FB
:1004D0007E888F88988CEE24FF248701AA24BB2471
:1004E000650140E050E060E070E0E0E0F0E0C10174
:1004F00081709070892BE9F0E60CF71C081D191D1E
:100500009A01AB012A0D3B1D4C1D5D1D80E090E062
:10051000A0E0B0E0E614F7040805190520F481E036
:1005200090E0A0E0B0E0BA01A901480F591F6A1F8E
:100530007B1FAA0CBB1CCC1CDD1C97FE08C081E0F5
:1005400090E0A0E0B0E0A82AB92ACA2ADB2A3196B6
:10055000E032F10549F0660C771C881C991C569412
:10056000479437942794C3CFFA85EA892B893C892D
:100570008B859C85280F391F2E5F3F4F17C0CA01FE
:1005800081709070892B61F016950795F794E79428
:1005900080E090E0A0E0B0E8E82AF92A0A2B1B2BC3
:1005A00076956795579547952F5F3F4F77FDE7CF36
:1005B0000CC0440F551F661F771F17FD4160EE0CDE
:1005C000FF1C001F111F21503040403090E05907A0
:1005D00090E0690790E4790760F32B8F3C8FDB0193
:1005E000CA018F779070A070B07080349105A1051A
:1005F000B10561F447FD0AC0E114F10401051105DC
:1006000029F0405C5F4F6F4F7F4F40781A8EFE1786
:1006100011F081E08A8F4D8F5E8F6F8F78A383E01A
:10062000898FCE0149960E94FD03A096E2E10C94C9
:10063000EC0CA8E1B0E0EFE1F3E00C94DC0C698392
:100640007A838B839C832D833E834F83588789E0F5
:10065000E82EF12CEC0EFD1ECE010196B7010E9492
:10066000D2048E010F5E1F4FCE010596B8010E9485
:10067000D2048985823040F08989823028F0C70110
:10068000B8010E944A0501C08FEF6896E6E00C941D
:10069000F80CA8E1B0E0EFE4F3E00C94DC0C698323
:1006A0007A838B839C832D833E834F83588789E095
:1006B000E82EF12CEC0EFD1ECE010196B7010E9432
:1006C000D2048E010F5E1F4FCE010596B8010E9425
:1006D000D2048985823040F08989823028F0C701B0
:1006E000B8010E944A0501C08FEF6896E6E00C94BD
:1006F000F80CA8E1B0E0EFE7F3E00C94DC0C6983C0
:100700007A838B839C832D833E834F83588789E034
:10071000E82EF12CEC0EFD1ECE010196B7010E94D1
:10072000D2048E010F5E1F4FCE010596B8010E94C4
:10073000D2048985823040F08989823028F0C7014F
:10074000B8010E944A0501C081E06896E6E00C9479
:10075000F80CACE0B0E0EFEAF3E00C94E00C698355
:100760007A838B839C83CE010196BE016B5F7F4FA2
:100770000E94D2048D81823061F1823050F1843048
:1007800021F48E81882351F12EC02F81388537FDC9
:1007900020C06E812F3131051CF06623F9F023C093
:1007A0008EE190E0821B930B29853A854B855C8511
:1007B00004C056954795379527958A95D2F76623B5
:1007C000B1F050954095309521953F4F4F4F5F4F79
:1007D0000EC020E030E040E050E009C02FEF3FEFD6
:1007E0004FEF5FE704C020E030E040E050E8B9019F
:1007F000CA012C96E2E00C94FC0CDF92EF92FF927F
:100800000F931F93FC01E480F58006811781D1804E
:100810008081823048F480E090E0A0E1B0E0E82AF6
:10082000F92A0A2B1B2BA5C0843009F49FC0823003
:1008300021F4EE24FF24870105C0E114F104010531
:10084000110519F4E0E0F0E096C0628173819FEF3A
:10085000623879070CF05BC022E83FEF261B370BAC
:100860002A3131052CF020E030E040E050E02AC091
:10087000B801A701022E04C0769567955795479554
:100880000A94D2F781E090E0A0E0B0E004C0880FC5
:10089000991FAA1FBB1F2A95D2F70197A109B10979
:1008A0008E219F21A023B1230097A105B10521F03E
:1008B00081E090E0A0E0B0E09A01AB01282B392B59
:1008C0004A2B5B2BDA01C9018F779070A070B07052
:1008D00080349105A105B10539F427FF09C0205CDA
:1008E0003F4F4F4F5F4F04C0215C3F4F4F4F5F4F13
:1008F000E0E0F0E02030A0E03A07A0E04A07A0E402
:100900005A0710F0E1E0F0E079018A0127C0603871
:10091000710564F5FB01E158FF4FD801C7018F77DE
:100920009070A070B07080349105A105B10539F4C4
:10093000E7FE0DC080E490E0A0E0B0E004C08FE3EB
:1009400090E0A0E0B0E0E80EF91E0A1F1B1F17FFA1
:1009500005C016950795F794E794319687E01695AC
:100960000795F794E7948A95D1F705C0EE24FF2404
:100970008701EFEFF0E06E2F679566276795902F60
:100980009F77D794DD24D7948E2F8695492F462BB9
:10099000582F5D29B701CA011F910F91FF90EF9069
:1009A000DF900895FC01DB01408151812281622F9B
:1009B0006F7770E0221F2227221F9381892F880FD3
:1009C000822B282F30E0991F9927991F11969C930D
:1009D000119721153105A9F54115510561057105DD
:1009E00011F482E037C082E89FEF13969C938E93B8
:1009F00012979A01AB0167E0220F331F441F551F66
:100A00006A95D1F783E08C930DC0220F331F441FEA
:100A1000551F12968D919C911397019713969C9355
:100A20008E931297203080E0380780E0480780E4FA
:100A3000580758F314962D933D934D935C93179755
:100A400008952F3F310579F4411551056105710570
:100A500019F484E08C93089564FF03C081E08C93C3
:100A600012C01C9210C02F57304013963C932E9307
:100A7000129783E08C9387E0440F551F661F771F02
:100A80008A95D1F7706414964D935D936D937C9322
:100A9000179708951F93DC01FB019C91923008F495
:100AA00047C08081823008F443C0943051F41196DD
:100AB0001C91843099F58181682F70E0611B710968
:100AC0003FC0843021F0923031F48230B9F181811D
:100AD000882389F12DC011961C9111978230F1F075
:100AE00081811817D9F412962D913C911397828128
:100AF00093818217930794F028173907BCF0149656
:100B00008D919D910D90BC91A02D248135814681C0
:100B10005781281739074A075B0718F4112341F05A
:100B20000AC082179307A407B50740F4112319F0F0
:100B300061E070E005C06FEF7FEF02C060E070E041
:100B4000CB011F910895DF93CF93CDB7DEB7E89720
:100B50000FB6F894DEBF0FBECDBF80E090E0A0E2FC
:100B6000B2E48DAB9EABAFABB8AF6DA97EA98FA938
:100B700098AD20E030E84BE355E40E941F02DC0111
:100B8000CB0189AB9AABABABBCAB69A97AA98BA9FA
:100B90009CA920E030E040E85FE30E9479038823CD
:100BA0002CF481E090E098AB8FA73FC069A97AA9A7
:100BB0008BA99CA920E03FEF4FE757E40E9419035F
:100BC00018164CF56DA97EA98FA998AD20E030E0EC
:100BD00040E251E40E941F02DC01CB01BC01CD01C7
:100BE0000E944900DC01CB0198AB8FA70FC08CE2BB
:100BF00091E09EA78DA78DA59EA50197F1F79EA7D1
:100C00008DA78FA598A9019798AB8FA78FA598A9B5
:100C1000009769F714C069A97AA98BA99CA90E94B9
:100C20004900DC01CB0198AB8FA78FA598A99CA7A1
:100C30008BA78BA59CA50197F1F79CA78BA78CE3AD
:100C40000E94870780E090E0A0E4B0E48FA398A71B
:100C5000A9A7BAA76FA178A589A59AA520E030E831
:100C60004BE355E40E941F02DC01CB018BA39CA344
:100C7000ADA3BEA36BA17CA18DA19EA120E030E01D
:100C800040E85FE30E94790388232CF481E090E040
:100C90009AA389A33FC06BA17CA18DA19EA120E056
:100CA0003FEF4FE757E40E94190318164CF56FA168
:100CB00078A589A59AA520E030E040E251E40E94A1
:100CC0001F02DC01CB01BC01CD010E944900DC0107
:100CD000CB019AA389A30FC08CE291E098A38F8FD8
:100CE0008F8D98A10197F1F798A38F8F89A19AA171
:100CF00001979AA389A389A19AA1009769F714C0C3
:100D00006BA17CA18DA19EA10E944900DC01CB01B9
:100D10009AA389A389A19AA19E8F8D8F8D8D9E8D77
:100D20000197F1F79E8F8D8F8CE00E94870780E0FE
:100D300090E0A0E4B0E4898F9A8FAB8FBC8F698D6F
:100D40007A8D8B8D9C8D20E030E84BE355E40E943A
:100D50001F02DC01CB018D8B9E8BAF8BB88F6D8911
:100D60007E898F89988D20E030E040E85FE30E9423
:100D7000790388232CF481E090E09C8B8B8B3FC01F
:100D80006D897E898F89988D20E03FEF4FE757E48A
:100D90000E94190318164CF5698D7A8D8B8D9C8DE8
:100DA00020E030E040E251E40E941F02DC01CB0170
:100DB000BC01CD010E944900DC01CB019C8B8B8BD7
:100DC0000FC08CE291E09A8B898B89899A8901976F
:100DD000F1F79A8B898B8B899C8901979C8B8B8BE4
:100DE0008B899C89009769F714C06D897E898F89EA
:100DF000988D0E944900DC01CB019C8B8B8B8B89E9
:100E00009C89988B8F878F8598890197F1F7988BAC
:100E10008F8781E00E94870780E090E0A0E4B0E443
:100E20008B879C87AD87BE876B857C858D859E85EE
:100E300020E030E84BE355E40E941F02DC01CB01C7
:100E40008F839887A987BA876F81788589859A85E6
:100E500020E030E040E85FE30E94790388232CF42F
:100E600081E090E09E838D833FC06F817885898586
:100E70009A8520E03FEF4FE757E40E9419031816C8
:100E80004CF56B857C858D859E8520E030E040E2C9
:100E900051E40E941F02DC01CB01BC01CD010E9484
:100EA0004900DC01CB019E838D830FC08CE291E071
:100EB0009C838B838B819C810197F1F79C838B832F
:100EC0008D819E8101979E838D838D819E81009768
:100ED00069F714C06F81788589859A850E944900D9
:100EE000DC01CB019E838D838D819E819A838983D2
:100EF00089819A810197F1F79A838983E8960FB6E1
:100F0000F894DEBF0FBECDBFCF91DF910895DF9380
:100F1000CF93CDB7DEB72F970FB6F894DEBF0FBED5
:100F2000CDBF8F87A8E3B0E0E8E3F0E080818E7F5B
:100F30008C93A8E3B0E0E8E3F0E080818D7F8C93B0
:100F4000A8E3B0E0E8E3F0E080818B7F8C93E2E3FC
:100F5000F0E08F858083A8E3B0E0E8E3F0E08081F3
:100F600081608C9380E090E0A0E0B0E48B879C8768
:100F7000AD87BE876B857C858D859E8520E030E8BA
:100F80004BE355E40E941F02DC01CB018F8398875D
:100F9000A987BA876F81788589859A8520E030E0B6
:100FA00040E85FE30E94790388232CF481E090E01D
:100FB0009E838D833FC06F81788589859A8520E0E7
:100FC0003FEF4FE757E40E94190318164CF56B8565
:100FD0007C858D859E8520E030E040E251E40E94D2
:100FE0001F02DC01CB01BC01CD010E944900DC01E4
:100FF000CB019E838D830FC08CE291E09C838B8319
:101000008B819C810197F1F79C838B838D819E81DD
:1010100001979E838D838D819E81009769F714C00F
:101020006F81788589859A850E944900DC01CB0112
:101030009E838D838D819E819A83898389819A8104
:101040000197F1F79A838983A8E3B0E0E8E3F0E041
:1010500080818E7F8C932F960FB6F894DEBF0FBEE3
:10106000CDBFCF91DF910895DF93CF93CDB7DEB79A
:101070002F970FB6F894DEBF0FBECDBF8F87A8E3C2
:10108000B0E0E8E3F0E080818E7F8C93A8E3B0E0ED
:10109000E8E3F0E080818D7F8C93A8E3B0E0E8E3A3
:1010A000F0E0808184608C93E2E3F0E08F858083C0
:1010B000A8E3B0E0E8E3F0E0808181608C9380E019
:1010C00090E0A0E0B0E48B879C87AD87BE876B85FE
:1010D0007C858D859E8520E030E84BE355E40E94B9
:1010E0001F02DC01CB018F839887A987BA876F81A4
:1010F000788589859A8520E030E040E85FE30E94AA
:10110000790388232CF481E090E09E838D833FC097
:101110006F81788589859A8520E03FEF4FE757E416
:101120000E94190318164CF56B857C858D859E856C
:1011300020E030E040E251E40E941F02DC01CB01DC
:10114000BC01CD010E944900DC01CB019E838D834F
:101150000FC08CE291E09C838B838B819C810197F3
:10116000F1F79C838B838D819E8101979E838D8374
:101170008D819E81009769F714C06F81788589857C
:101180009A850E944900DC01CB019E838D838D816D
:101190009E819A83898389819A810197F1F79A8345
:1011A0008983A8E3B0E0E8E3F0E080818E7F8C9350
:1011B0002F960FB6F894DEBF0FBECDBFCF91DF9153
:1011C0000895DF93CF93CDB7DEB761970FB6F8944C
:1011D000DEBF0FBECDBF998B888B1F8680C08F85E9
:1011E000282F30E088899989FC01E20FF31F808164
:1011F0000E9434088F858F5F8F8780E090E0A0E0A9
:10120000B0E48B879C87AD87BE876B857C858D8599
:101210009E8520E030E84BE355E40E941F02DC018C
:10122000CB018F839887A987BA876F817885898555
:101230009A8520E030E040E85FE30E94790388234C
:101240002CF481E090E09E838D833FC06F81788590
:1012500089859A8520E03FEF4FE757E40E94190304
:1012600018164CF56B857C858D859E8520E030E0D9
:1012700040E251E40E941F02DC01CB01BC01CD0120
:101280000E944900DC01CB019E838D830FC08CE25C
:1012900091E09C838B838B819C810197F1F79C83E8
:1012A0008B838D819E8101979E838D838D819E810D
:1012B000009769F714C06F81788589859A850E94A7
:1012C0004900DC01CB019E838D838D819E819A83B1
:1012D000898389819A810197F1F79A8389838F8520
:1012E000282F30E088899989FC01E20FF31F808163
:1012F000882309F074CF61960FB6F894DEBF0FBE55
:10130000CDBFCF91DF910895DF93CF93CDB7DEB7F7
:1013100064970FB6F894DEBF0FBECDBF8B8B6C8B7E
:1013200080E88F8780EC888B84E9898B84ED8A8BB9
:101330008C89882F90E09C0121503040CE010F967F
:10134000FC01E20FF31F90818B89890F81500E946D
:10135000870780E090E0A0E8BFE38B879C87AD879C
:10136000BE876B857C858D859E8520E030E84BE3CC
:1013700055E40E941F02DC01CB018F839887A98767
:10138000BA876F81788589859A8520E030E040E8CA
:101390005FE30E94790388232CF481E090E09E8330
:1013A0008D833FC06F81788589859A8520E03FEFE6
:1013B0004FE757E40E94190318164CF56B857C859E
:1013C0008D859E8520E030E040E251E40E941F02BE
:1013D000DC01CB01BC01CD010E944900DC01CB0145
:1013E0009E838D830FC08CE291E09C838B838B81E5
:1013F0009C810197F1F79C838B838D819E8101975E
:101400009E838D838D819E81009769F714C06F81C3
:10141000788589859A850E944900DC01CB019E83ED
:101420008D838D819E819A83898389819A81019799
:10143000F1F79A83898364960FB6F894DEBF0FBEE6
:10144000CDBFCF91DF910895DF93CF93CDB7DEB7B6
:101450002E970FB6F894DEBF0FBECDBF80E10E947D
:10146000870780E090E0A0E8BFE38B879C87AD878B
:10147000BE876B857C858D859E8520E030E84BE3BB
:1014800055E40E941F02DC01CB018F839887A98756
:10149000BA876F81788589859A8520E030E040E8B9
:1014A0005FE30E94790388232CF481E090E09E831F
:1014B0008D833FC06F81788589859A8520E03FEFD5
:1014C0004FE757E40E94190318164CF56B857C858D
:1014D0008D859E8520E030E040E251E40E941F02AD
:1014E000DC01CB01BC01CD010E944900DC01CB0134
:1014F0009E838D830FC08CE291E09C838B838B81D4
:101500009C810197F1F79C838B838D819E8101974C
:101510009E838D838D819E81009769F714C06F81B2
:10152000788589859A850E944900DC01CB019E83DC
:101530008D838D819E819A83898389819A81019788
:10154000F1F79A8389832E960FB6F894DEBF0FBE0B
:10155000CDBFCF91DF910895DF93CF93CDB7DEB7A5
:101560002E970FB6F894DEBF0FBECDBF84E10E9468
:10157000870780E090E0A0E8BFE38B879C87AD877A
:10158000BE876B857C858D859E8520E030E84BE3AA
:1015900055E40E941F02DC01CB018F839887A98745
:1015A000BA876F81788589859A8520E030E040E8A8
:1015B0005FE30E94790388232CF481E090E09E830E
:1015C0008D833FC06F81788589859A8520E03FEFC4
:1015D0004FE757E40E94190318164CF56B857C857C
:1015E0008D859E8520E030E040E251E40E941F029C
:1015F000DC01CB01BC01CD010E944900DC01CB0123
:101600009E838D830FC08CE291E09C838B838B81C2
:101610009C810197F1F79C838B838D819E8101973B
:101620009E838D838D819E81009769F714C06F81A1
:10163000788589859A850E944900DC01CB019E83CB
:101640008D838D819E819A83898389819A81019777
:10165000F1F79A8389832E960FB6F894DEBF0FBEFA
:10166000CDBFCF91DF910895DF93CF9300D000D00D
:10167000CDB7DEB789836A835C834B8389816A81B6
:101680000E9484098B819C810E94E1080F900F9039
:101690000F900F90CF91DF910895EF92FF920F93EB
:1016A0001F93DF93CF93CDB7DEB729970FB6F8948A
:1016B000DEBF0FBECDBF8B836C835E834D832F83D4
:1016C0000DB71EB78DB79EB77C018F81882F90E034
:1016D0002DB73EB7281B390B0FB6F8943EBF0FBE8F
:1016E0002DBF8DB79EB70196998788878885998584
:1016F000009699878887288539853A8329838D8143
:101700009E8129813A81B9014AE050E00E94070D8B
:1017100029813A818B816C81A9010E94340B80E67A
:1017200090E00E94E1080FB6F894FEBE0FBEEDBE39
:101730000FB6F8941EBF0FBE0DBF29960FB6F894D2
:10174000DEBF0FBECDBFCF91DF911F910F91FF90F4
:10175000EF900895DF93CF93CDB7DEB7E1E3F0E0EC
:101760008FEF8083E7E3F0E08FEF80830E94A30593
:1017700081E061E00E94840982E690E00E94E10835
:1017800081E062E00E94840987E690E00E94E1081F
:1017900089E061E00E9484098CE690E00E94E10803
:1017A00089E062E00E94840981E790E00E94E108FC
:1017B000A6E2B0E0E6E2F0E0808187608C93A7E2E9
:1017C000B0E0E7E2F0E08081806C8C93A6E2B0E0CC
:1017D000E6E2F0E0808188608C93A6E2B0E0E6E289
:1017E000F0E0808180688C937894A6E2B0E0E6E235
:1017F000F0E0808180648C93FFCF1F920F920FB630
:101800000F9211242F933F934F935F936F937F9386
:101810008F939F93AF93BF93EF93FF93DF93CF93F8
:1018200000D000D00F92CDB7DEB7E4E2F0E08081C7
:101830008B83E5E2F0E08081882F90E0382F22272B
:101840008B81882F90E0822B932B9A838983E7E208
:10185000F0E08081282F30E03D832C838C819D81B6
:10186000813C910589F12C813D81223C310534F484
:101870008C819D81803C910569F073C02C813D81F4
:10188000223C3105D9F18C819D81833C910509F47D
:101890004FC067C089819A8120E830E0B9014AE0F1
:1018A00050E00E94070D84E061E00E94840980E816
:1018B00090E00E94E10886E790E00E94E108E7E2FC
:1018C000F0E081EC80834DC089819A8120E830E08E
:1018D000B9014AE050E00E94070D84E062E00E94F6
:1018E000840980E890E00E94E10886E790E00E9489
:1018F000E108E7E2F0E082EC808333C089819A81DD
:1019000020E830E0B9014AE050E00E94070D8CE089
:1019100061E00E94840980E890E00E94E10886E787
:1019200090E00E94E108E7E2F0E083EC808319C0D8
:1019300089819A8120E830E0B9014AE050E00E94B4
:10194000070D8CE062E00E94840980E890E00E942C
:10195000E10886E790E00E94E108E7E2F0E080EC31
:101960008083A6E2B0E0E6E2F0E0808180648C93C0
:101970000F900F900F900F900F90CF91DF91FF91EC
:10198000EF91BF91AF919F918F917F916F915F91F7
:101990004F913F912F910F900FBE0F901F90189570
:1019A0002F923F924F925F926F927F928F929F926F
:1019B000AF92BF92CF92DF92EF92FF920F931F935D
:1019C000CF93DF93CDB7DEB7CA1BDB0B0FB6F8940E
:1019D000DEBF0FBECDBF09942A88398848885F844E
:1019E0006E847D848C849B84AA84B984C884DF80BF
:1019F000EE80FD800C811B81AA81B981CE0FD11DA3
:101A00000FB6F894DEBF0FBECDBFED010895FB0108
:101A10009F01E8944230C4F04532B4F44A3029F4CE
:101A200097FB1EF4909581959F4F642F77270E9416
:101A3000380D805D8A330CF0895D8193CB0100976E
:101A4000A1F716F45DE251931082C9010C94280DA0
:101A5000DC01FC01672F71917723E1F7329704C015
:101A60007C916D9370836291AE17BF07C8F30895A0
:101A7000AA1BBB1B51E107C0AA1FBB1FA617B707B4
:101A800010F0A61BB70B881F991F5A95A9F78095D0
:0C1A90009095BC01CD010895F894FFCFA3
:101A9C00200046313D200046323D200046333D209B
:101AAC000046343D20002000000000000000000033
:00000001FF
