:100000000C9446000C9465000C9465000C946500FB
:100010000C9465000C9465000C9465000C946500CC
:100020000C9465000C9465000C9465000C946500BC
:100030000C9465000C9465000C9465000C946500AC
:100040000C9465000C9465000C9465000C9465009C
:100050000C9465000C9465000C9465000C9465008C
:100060000C9465000C9465000C9465000C9465007C
:100070000C9465000C9465000C9465000C9465006C
:100080000C9465000C9465000C94650011241FBE4F
:10009000CFEFD0E1DEBFCDBF12E0A0E0B1E0E2E6FD
:1000A000F1E300E00BBF02C007900D92AA32B10746
:1000B000D9F712E0AAE2B2E001C01D92A633B1075F
:1000C000E1F70E9461160C94AF180C940000EF92B7
:1000D000FF920F931F937B018C0120E030E040E002
:1000E0005FE40E94130488238CF0C801B70120E06C
:1000F00030E040E05FE40E94DF010E9473049B0156
:10010000AC01205030404040504806C0C801B70103
:100110000E9473049B01AC01B901CA011F910F91A8
:10012000FF90EF900895A0E0B0E0E9E9F0E00C94D2
:100130003318DC012B01FA019C91923008F439C18B
:10014000EB018881823008F433C1943069F4843043
:1001500009F02FC111969C9111978981981709F484
:1001600028C1A2E2B1E025C1843009F421C1823066
:10017000A9F4923009F01DC19A01AD0188E0EA01AD
:100180000990AE01E90109929E018150C1F7E20197
:10019000898111969C918923818308C1923009F449
:1001A00007C112962D903C901397EB018A819B8199
:1001B0001496AD90BD90CD90DC901797EC80FD80AB
:1001C0000E811F819101281B390BB90137FF04C033
:1001D00066277727621B730B603271050CF061C0D4
:1001E000121613066CF537014801062E04C09694CA
:1001F0008794779467940A94D2F721E030E040E046
:1002000050E004C0220F331F441F551F6A95D2F7D8
:1002100021503040404050402E213F214023512367
:10022000211531054105510521F021E030E040E084
:1002300050E079018A01E628F728082919293CC0ED
:10024000232BD1F1260E371E35014601062E04C0A0
:1002500096948794779467940A94D2F721E030E0DB
:1002600040E050E004C0220F331F441F551F6A9521
:10027000D2F721503040404050402A213B214C21B0
:100280005D21211531054105510521F021E030E0C6
:1002900040E050E059016A01A628B728C828D928AB
:1002A0000BC0821593052CF01C01AA24BB24650108
:1002B00003C0EE24FF24870111969C91D201119670
:1002C0008C91981709F445C0992339F0A80197013A
:1002D0002A193B094C095D0906C0A60195012E1992
:1002E0003F09400B510B57FD08C011823382228217
:1002F00024833583468357831DC081E08183338205
:10030000228288279927DC01821B930BA40BB50B53
:1003100084839583A683B7830DC0220F331F441FA8
:10032000551F2483358346835783828193810197A8
:10033000938382832481358146815781DA01C90103
:100340000197A109B1098F5F9F4FAF4FBF4328F3BA
:100350000BC0918333822282EA0CFB1C0C1D1D1DF5
:10036000E482F5820683178383E0808324813581CC
:100370004681578157FF1AC0C901AA2797FDA0954A
:10038000BA2F81709070A070B070569547953795D0
:100390002795822B932BA42BB52B84839583A6833F
:1003A000B78382819381019693838283DF0101C0A9
:1003B000D201CD01CDB7DEB7E2E10C944F18A0E237
:1003C000B0E0E5EEF1E00C943F1869837A838B830B
:1003D0009C832D833E834F835887E9E0EE2EF12CDA
:1003E000EC0EFD1ECE010196B7010E9464068E013F
:1003F0000F5E1F4FCE010596B8010E9464068A89E0
:1004000091E089278A8BC701B801AE01475E5F4F33
:100410000E9493000E948F05A096E6E00C945B1862
:10042000A0E2B0E0E6E1F2E00C943F1869837A8341
:100430008B839C832D833E834F835887F9E0EF2E77
:10044000F12CEC0EFD1ECE010196B7010E94640650
:100450008E010F5E1F4FCE010596B8010E94640603
:10046000C701B801AE01475E5F4F0E9493000E9432
:100470008F05A096E6E00C945B18A0E2B0E0E3E400
:10048000F2E00C94331869837A838B839C832D83E9
:100490003E834F835887CE010196BE01675F7F4F31
:1004A0000E946406CE010596BE016F5E7F4F0E94DA
:1004B00064069985923088F089898230C8F094303A
:1004C00019F4823051F404C0843029F4923081F45C
:1004D00082E291E0C6C0923049F420E09A858A8990
:1004E000981321E02A87CE010996BBC0823049F4D7
:1004F00020E09A858A89981321E02A8BCE014196C3
:10050000B0C02D843E844F8458886D887E888F8843
:10051000988CEE24FF248701AA24BB24650140E0C7
:1005200050E060E070E0E0E0F0E0C10181709070C8
:10053000892BE9F0E60CF71C081D191D9A01AB0187
:100540002A0D3B1D4C1D5D1D80E090E0A0E0B0E059
:10055000E614F7040805190520F481E090E0A0E016
:10056000B0E0BA01A901480F591F6A1F7B1FAA0CEE
:10057000BB1CCC1CDD1C97FE08C081E090E0A0E015
:10058000B0E0A82AB92ACA2ADB2A3196E032F1055E
:1005900049F0660C771C881C991C56944794379434
:1005A0002794C3CFFA85EA892B893C898B859C8562
:1005B000280F391F2E5F3F4F17C0CA0181709070FE
:1005C000892B61F016950795F794E79480E090E009
:1005D000A0E0B0E8E82AF92A0A2B1B2B769567954C
:1005E000579547952F5F3F4F77FDE7CF0CC0440FDE
:1005F000551F661F771F17FD4160EE0CFF1C001F83
:10060000111F21503040403090E0590790E06907B9
:1006100090E4790760F32B8F3C8FDB01CA018F7761
:100620009070A070B07080349105A105B10561F49F
:1006300047FD0AC0E114F1040105110529F0405CF1
:100640005F4F6F4F7F4F40781A8EFE1711F081E099
:100650008A8F4D8F5E8F6F8F78A383E0898FCE0155
:1006600049960E948F05A096E2E10C944F18A8E1EC
:10067000B0E0EDE3F3E00C943B1869837A838B835D
:100680009C832D833E834F835887B9E0EB2EF12C5A
:10069000EC0EFD1ECE010196B7010E9464068E018C
:1006A0000F5E1F4FCE010596B8010E946406298592
:1006B000223008F47EC03989323010F4B8017CC091
:1006C0008A859A8989278A87243011F0223031F46B
:1006D000231709F06EC062E271E06EC0343039F465
:1006E0001D861E861F86188A1C861B8604C0323013
:1006F00021F484E08987B7015FC02B853C858B8915
:100700009C89281B390B3C872B87ED84FE840F8541
:100710001889AD88BE88CF88D88CEA14FB040C05F4
:100720001D0540F4EE0CFF1C001F111F215030402E
:100730003C872B8720E030E040E050E080E090E014
:10074000A0E0B0E460E070E0EA14FB040C051D05D5
:1007500040F0282B392B4A2B5B2BEA18FB080C099D
:100760001D09B695A79597958795EE0CFF1C001F60
:10077000111F6F5F7F4F6F31710531F7DA01C901CA
:100780008F779070A070B07080349105A105B1058D
:1007900061F427FD0AC0E114F1040105110529F0F7
:1007A000205C3F4F4F4F5F4F20782D873E874F870C
:1007B000588BBE01675F7F4FCB010E948F05689603
:1007C000EAE00C945718A8E1B0E0E9EEF3E00C94ED
:1007D0003F1869837A838B839C832D833E834F8369
:1007E000588789E0E82EF12CEC0EFD1ECE01019613
:1007F000B7010E9464068E010F5E1F4FCE01059661
:10080000B8010E9464068985823040F0898982306F
:1008100028F0C701B8010E94DC0601C08FEF68967E
:10082000E6E00C945B18A8E1B0E0E9E1F4E00C9498
:100830003F1869837A838B839C832D833E834F8308
:10084000588789E0E82EF12CEC0EFD1ECE010196B2
:10085000B7010E9464068E010F5E1F4FCE01059600
:10086000B8010E9464068985823040F0898982300F
:1008700028F0C701B8010E94DC0601C08FEF68961E
:10088000E6E00C945B18A8E1B0E0E9E4F4E00C9435
:100890003F1869837A838B839C832D833E834F83A8
:1008A000588789E0E82EF12CEC0EFD1ECE01019652
:1008B000B7010E9464068E010F5E1F4FCE010596A0
:1008C000B8010E9464068985823040F089898230AF
:1008D00028F0C701B8010E94DC0601C081E06896DB
:1008E000E6E00C945B18ACE0B0E0E9E7F4E00C94CF
:1008F000431869837A838B839C83CE010196BE0162
:100900006B5F7F4F0E9464068D81823061F182307F
:1009100050F1843021F48E81882351F12EC02F8133
:10092000388537FD20C06E812F3131051CF06623DC
:10093000F9F023C08EE190E0821B930B29853A8564
:100940004B855C8504C056954795379527958A95C4
:10095000D2F76623B1F050954095309521953F4FE1
:100960004F4F5F4F0EC020E030E040E050E009C044
:100970002FEF3FEF4FEF5FE704C020E030E040E0B3
:1009800050E8B901CA012C96E2E00C945F18A8E087
:10099000B0E0EDECF4E00C943B187B018C016115A8
:1009A00071058105910519F482E0898360C083E0B7
:1009B00089838EE1C82ED12CDC82CB82ED82FE822F
:1009C0000F831887C801B7010E944005FC013197C9
:1009D000F7FF3BC0222733272E1B3F0B570168012F
:1009E000022E04C0D694C794B794A7940A94D2F761
:1009F00040E050E060E070E081E090E0A0E0B0E036
:100A000004C0880F991FAA1FBB1F2A95D2F7019710
:100A1000A109B1098E219F21A023B1230097A1052F
:100A2000B10521F041E050E060E070E04A295B2927
:100A30006C297D294D835E836F8378878EE190E0FA
:100A40008E1B9F0B9C838B8312C0309781F00E2EE0
:100A500004C0EE0CFF1C001F111F0A94D2F7ED8298
:100A6000FE820F831887CE1ADF0ADC82CB821A82BD
:100A7000CE0101960E948F052896EAE00C94571843
:100A8000EF92FF920F931F937B018C0180E0E81699
:100A900080E0F80681E0080780E0180788F48FEF0F
:100AA000E816F1040105110531F028F088E090E026
:100AB000A0E0B0E017C080E090E0A0E0B0E012C09D
:100AC00080E0E81680E0F80680E0080781E018077B
:100AD00028F088E190E0A0E0B0E004C080E190E080
:100AE000A0E0B0E020E230E040E050E0281B390B0D
:100AF0004A0B5B0B04C016950795F794E7948A950B
:100B0000D2F7F701E65DFE4F8081281B31094109CC
:100B10005109C9011F910F91FF90EF900895DF9245
:100B2000EF92FF920F931F93FC01E480F580068102
:100B30001781D1808081823048F480E090E0A0E18C
:100B4000B0E0E82AF92A0A2B1B2BA5C0843009F44F
:100B50009FC0823021F4EE24FF24870105C0E114F8
:100B6000F1040105110519F4E0E0F0E096C062819E
:100B700073819FEF623879070CF05BC022E83FEF8A
:100B8000261B370B2A3131052CF020E030E040E005
:100B900050E02AC0B801A701022E04C076956795DF
:100BA000579547950A94D2F781E090E0A0E0B0E035
:100BB00004C0880F991FAA1FBB1F2A95D2F701975F
:100BC000A109B1098E219F21A023B1230097A1057E
:100BD000B10521F081E090E0A0E0B0E09A01AB0126
:100BE000282B392B4A2B5B2BDA01C9018F779070A8
:100BF000A070B07080349105A105B10539F427FFCC
:100C000009C0205C3F4F4F4F5F4F04C0215C3F4FF6
:100C10004F4F5F4FE0E0F0E02030A0E03A07A0E067
:100C20004A07A0E45A0710F0E1E0F0E079018A01F8
:100C300027C06038710564F5FB01E158FF4FD8010A
:100C4000C7018F779070A070B07080349105A105B6
:100C5000B10539F4E7FE0DC080E490E0A0E0B0E01B
:100C600004C08FE390E0A0E0B0E0E80EF91E0A1F98
:100C70001B1F17FF05C016950795F794E79431964B
:100C800087E016950795F794E7948A95D1F705C004
:100C9000EE24FF248701EFEFF0E06E2F67956627C3
:100CA0006795902F9F77D794DD24D7948E2F8695C4
:100CB000492F462B582F5D29B701CA011F910F916B
:100CC000FF90EF90DF900895FC01DB01408151819E
:100CD0002281622F6F7770E0221F2227221F9381CB
:100CE000892F880F822B282F30E0991F9927991F71
:100CF00011969C93119721153105A9F541155105C0
:100D00006105710511F482E037C082E89FEF139608
:100D10009C938E9312979A01AB0167E0220F331FC9
:100D2000441F551F6A95D1F783E08C930DC0220FA5
:100D3000331F441F551F12968D919C911397019755
:100D400013969C938E931297203080E0380780E0B2
:100D5000480780E4580758F314962D933D934D931C
:100D60005C93179708952F3F310579F4411551058C
:100D70006105710519F484E08C93089564FF03C044
:100D800081E08C9312C01C9210C02F5730401396F4
:100D90003C932E93129783E08C9387E0440F551F6A
:100DA000661F771F8A95D1F7706414964D935D93F3
:100DB0006D937C93179708951F93DC01FB019C9121
:100DC000923008F447C08081823008F443C09430E8
:100DD00051F411961C91843099F58181682F70E04F
:100DE000611B71093FC0843021F0923031F48230B0
:100DF000B9F18181882389F12DC011961C91119739
:100E00008230F1F081811817D9F412962D913C911E
:100E10001397828193818217930794F028173907DB
:100E2000BCF014968D919D910D90BC91A02D2481C4
:100E3000358146815781281739074A075B0718F41F
:100E4000112341F00AC082179307A407B50740F4A5
:100E5000112319F061E070E005C06FEF7FEF02C071
:100E600060E070E0CB011F910895DF93CF9300D035
:100E7000CDB7DEB789836A838A816DE249810E949A
:100E8000D0158A8161E34BE00E94D0158A816EE122
:100E90004FEF0E94D0158A816FE140E00E94D0158B
:100EA0008A8160E24FEF0E94D0150F900F90CF9192
:100EB000DF9108950F931F93DF93CF93CDB7DEB7E4
:100EC000CD55D0400FB6F894DEBF0FBECDBFFE01AA
:100ED000E55AFF4F8083FE01E45AFF4F7183608320
:100EE000FE01E55AFF4F808162E30E940916FE0170
:100EF000E75AFF4F882F90E091838083FE01EF5ADD
:100F0000FF4F80E090E0A0E8BFE380839183A2835D
:100F1000B3838E01035B1F4FFE01EF5AFF4F6081C9
:100F200071818281938120E030E04AE755E40E949C
:100F30003D02DC01CB01F80180839183A283B3835E
:100F4000FE01E35BFF4F608171818281938120E02C
:100F500030E040E85FE30E944304882344F4FE014C
:100F6000E55BFF4F81E090E09183808364C0FE01E8
:100F7000E35BFF4F608171818281938120E03FEFCD
:100F80004FE757E40E94E30318160CF043C0FE013C
:100F9000EF5AFF4F608171818281938120E030E0C0
:100FA00040E251E40E943D02DC01CB018E01055B71
:100FB0001F4FBC01CD010E946700DC01CB01F8018D
:100FC000918380831FC0FE01E75BFF4F80E991E0C2
:100FD00091838083FE01E75BFF4F808191810197C0
:100FE000F1F7FE01E75BFF4F91838083DE01A55B94
:100FF000BF4FFE01E55BFF4F808191810197119604
:101000009C938E93FE01E55BFF4F80819181009759
:10101000D1F627C08E01055B1F4FFE01E35BFF4F3A
:1010200060817181828193810E946700DC01CB0124
:10103000F80191838083DE01A95BBF4FFE01E55B70
:10104000FF4F808191818D939C93FE01E95BFF4F5F
:10105000808191810197F1F7FE01E95BFF4F918358
:101060008083FE01E55AFF4F808163E30E940916E9
:10107000882F90E0982F88279C01DE01A75ABF4F48
:10108000FE01E75AFF4F80819181822B932B8D9334
:101090009C93FE01ED5BFF4F80E090E0A0E8BFE392
:1010A00080839183A283B3838E01015C1F4FFE0175
:1010B000ED5BFF4F608171818281938120E030E0A0
:1010C0004AE755E40E943D02DC01CB01F801808330
:1010D0009183A283B383FE01FF9660817181828137
:1010E000938120E030E040E85FE30E9443048823DE
:1010F0002CF481E090E09EAF8DAF46C0FE01FF96DC
:10110000608171818281938120E03FEF4FE757E456
:101110000E94E303181664F5FE01ED5BFF4F60814A
:1011200071818281938120E030E040E251E40E94AD
:101130003D02DC01CB01BC01CD010E946700DC0156
:10114000CB019EAF8DAF0FC080E991E09CAF8BAF1C
:101150008BAD9CAD0197F1F79CAF8BAF8DAD9EAD84
:1011600001979EAF8DAF8DAD9EAD009769F716C00C
:10117000FE01FF9660817181828193810E946700E8
:10118000DC01CB019EAF8DAF8DAD9EAD9AAF89AF27
:1011900089AD9AAD0197F1F79AAF89AFFE01E55A93
:1011A000FF4F808164E30E940916FE01E95AFF4F58
:1011B000882F90E09183808380E090E0A0E8BFE3F7
:1011C0008DAB9EABAFABB8AF6DA97EA98FA998AD23
:1011D00020E030E04AE755E40E943D02DC01CB010B
:1011E00089AB9AABABABBCAB69A97AA98BA99CA91B
:1011F00020E030E040E85FE30E94430488232CF4C1
:1012000081E090E098AB8FA73FC069A97AA98BA92C
:101210009CA920E03FEF4FE757E40E94E303181634
:101220004CF56DA97EA98FA998AD20E030E040E291
:1012300051E40E943D02DC01CB01BC01CD010E94C2
:101240006700DC01CB0198AB8FA70FC080E991E06C
:101250009EA78DA78DA59EA50197F1F79EA78DA7A7
:101260008FA598A9019798AB8FA78FA598A90097EC
:1012700069F714C069A97AA98BA99CA90E94670083
:10128000DC01CB0198AB8FA78FA598A99CA78BA752
:101290008BA59CA50197F1F79CA78BA7FE01E55AAA
:1012A000FF4F808165E30E940916882F90E0982FF8
:1012B00088279C01DE01A95ABF4FFE01E95AFF4F62
:1012C00080819181822B932B8D939C9380E090E081
:1012D000A0E8BFE38FA398A7A9A7BAA76FA178A595
:1012E00089A59AA520E030E04AE755E40E943D0236
:1012F000DC01CB018BA39CA3ADA3BEA36BA17CA1FE
:101300008DA19EA120E030E040E85FE30E9443040D
:1013100088232CF481E090E09AA389A33FC06BA1BD
:101320007CA18DA19EA120E03FEF4FE757E40E94F2
:10133000E30318164CF56FA178A589A59AA520E0BE
:1013400030E040E251E40E943D02DC01CB01BC01EF
:10135000CD010E946700DC01CB019AA389A30FC0D5
:1013600080E991E098A38F8F8F8D98A10197F1F775
:1013700098A38F8F89A19AA101979AA389A389A184
:101380009AA1009769F714C06BA17CA18DA19EA1C1
:101390000E946700DC01CB019AA389A389A19AA1CD
:1013A0009E8F8D8F8D8D9E8D0197F1F79E8F8D8FE6
:1013B000FE01E55AFF4F808166E30E940916FE0197
:1013C000EB5AFF4F882F90E09183808380E090E07C
:1013D000A0E8BFE3898F9A8FAB8FBC8F698D7A8D20
:1013E0008B8D9C8D20E030E04AE755E40E943D0261
:1013F000DC01CB018D8B9E8BAF8BB88F6D897E8985
:101400008F89988D20E030E040E85FE30E9443043C
:1014100088232CF481E090E09C8B8B8B3FC06D89FE
:101420007E898F89988D20E03FEF4FE757E40E9437
:10143000E30318164CF5698D7A8D8B8D9C8D20E019
:1014400030E040E251E40E943D02DC01CB01BC01EE
:10145000CD010E946700DC01CB019C8B8B8B0FC000
:1014600080E991E09A8B898B89899A890197F1F7B4
:101470009A8B898B8B899C8901979C8B8B8B8B8911
:101480009C89009769F714C06D897E898F89988D32
:101490000E946700DC01CB019C8B8B8B8B899C8924
:1014A000988B8F878F8598890197F1F7988B8F8715
:1014B000FE01E55AFF4F808167E30E940916882FDD
:1014C00090E0982F88279C01DE01AB5ABF4FFE01A8
:1014D000EB5AFF4F80819181822B932B8D939C93AC
:1014E00080E090E0A0E8BFE38B879C87AD87BE8754
:1014F0006B857C858D859E8520E030E04AE755E44C
:101500000E943D02DC01CB018F839887A987BA87AF
:101510006F81788589859A8520E030E040E85FE337
:101520000E94430488232CF481E090E09E838D8305
:101530003FC06F81788589859A8520E03FEF4FE72E
:1015400057E40E94E30318164CF56B857C858D8566
:101550009E8520E030E040E251E40E943D02DC0143
:10156000CB01BC01CD010E946700DC01CB019E8351
:101570008D830FC080E991E09C838B838B819C815C
:101580000197F1F79C838B838D819E8101979E83C8
:101590008D838D819E81009769F714C06F81788556
:1015A00089859A850E946700DC01CB019E838D832B
:1015B0008D819E819A83898389819A810197F1F730
:1015C0009A838983FE01E75AFF4F80819181CC0184
:1015D000A0E0B0E0BC01CD010E94C704DC01CB015A
:1015E000FE01E45AFF4F0190F081E02D808391834A
:1015F000A283B383FE01E95AFF4F80819181CC0120
:10160000A0E0B0E0BC01CD010E94C704DC01CB0129
:10161000FE01E45AFF4F0190F081E02D8483958311
:10162000A683B783FE01EB5AFF4F80819181CC01E5
:10163000A0E0B0E0BC01CD010E94C704DC01CB01F9
:10164000FE01E45AFF4F0190F081E02D80879187E1
:10165000A287B387C35ADF4F0FB6F894DEBF0FBE21
:10166000CDBFCF91DF911F910F910895DF93CF935D
:10167000CDB7DEB7A4E3B0E0E4E3F0E08081806EB4
:101680008C93AAE3B0E0EAE3F0E08081806F8C9372
:1016900082E00E94570B88E20E94570B8CE00E9468
:1016A000570B81E00E94570BCF91DF9108950F9364
:1016B0001F93DF93CF93CDB7DEB7C356D0400FB69D
:1016C000F894DEBF0FBECDBFFE01ED59FF4F808302
:1016D000A5E3B0E0E5E3F0E080818F7D8C93A5E3A6
:1016E000B0E0E5E3F0E080818F7B8C93FE01E15A6E
:1016F000FF4F80E090E0A0E8BFE380839183A28366
:10170000B3838E01055A1F4FFE01E15AFF4F6081DE
:1017100071818281938120E030E04AE755E40E94A4
:101720003D02DC01CB01F80180839183A283B38366
:10173000FE01E55AFF4F608171818281938120E033
:1017400030E040E85FE30E944304882344F4FE0154
:10175000E75AFF4F81E090E09183808364C0FE01EF
:10176000E55AFF4F608171818281938120E03FEFD4
:101770004FE757E40E94E30318160CF043C0FE0144
:10178000E15AFF4F608171818281938120E030E0D6
:1017900040E251E40E943D02DC01CB018E01075A78
:1017A0001F4FBC01CD010E946700DC01CB01F80195
:1017B000918380831FC0FE01E95AFF4F80E991E0C9
:1017C00091838083FE01E95AFF4F808191810197C7
:1017D000F1F7FE01E95AFF4F91838083DE01A75A9A
:1017E000BF4FFE01E75AFF4F80819181019711960B
:1017F0009C938E93FE01E75AFF4F80819181009761
:10180000D1F627C08E01075A1F4FFE01E55AFF4F40
:1018100060817181828193810E946700DC01CB012C
:10182000F80191838083DE01AB5ABF4FFE01E75A76
:10183000FF4F808191818D939C93FE01EB5AFF4F66
:10184000808191810197F1F7FE01EB5AFF4F91835F
:101850008083A5E3B0E0E5E3F0E0808180688C93CD
:10186000FE01EF5AFF4F80E090E0A0E8BFE38083E5
:101870009183A283B3838E01035B1F4FFE01EF5A56
:10188000FF4F608171818281938120E030E04AE7DF
:1018900055E40E943D02DC01CB01F8018083918375
:1018A000A283B383FE01E35BFF4F6081718182817C
:1018B000938120E030E040E85FE30E944304882306
:1018C00044F4FE01E55BFF4F81E090E0918380836B
:1018D00064C0FE01E35BFF4F60817181828193816F
:1018E00020E03FEF4FE757E40E94E30318160CF0A7
:1018F00043C0FE01EF5AFF4F608171818281938165
:1019000020E030E040E251E40E943D02DC01CB01E6
:101910008E01055B1F4FBC01CD010E946700DC01F9
:10192000CB01F801918380831FC0FE01E75BFF4F6D
:1019300080E991E091838083FE01E75BFF4F808126
:1019400091810197F1F7FE01E75BFF4F918380835F
:10195000DE01A55BBF4FFE01E55BFF4F80819181FA
:10196000019711969C938E93FE01E55BFF4F80815A
:1019700091810097D1F627C08E01055B1F4FFE01B4
:10198000E35BFF4F60817181828193810E946700D8
:10199000DC01CB01F80191838083DE01A95BBF4F9D
:1019A000FE01E55BFF4F808191818D939C93FE0149
:1019B000E95BFF4F808191810197F1F7FE01E95BBF
:1019C000FF4F91838083ABE3B0E0EBE3F0E08081F5
:1019D0008F708C93ABE3B0E0EBE3F0E08081982F65
:1019E000FE01ED59FF4F8081807F892B8C93FE0192
:1019F000ED5BFF4F80E090E0A0E8BFE38083918340
:101A0000A283B3838E01015C1F4FFE01ED5BFF4F8C
:101A1000608171818281938120E030E04AE755E462
:101A20000E943D02DC01CB01F80180839183A283F7
:101A3000B383FE01FF96608171818281938120E0F2
:101A400030E040E85FE30E94430488232CF481E007
:101A500090E09EAF8DAF46C0FE01FF966081718120
:101A60008281938120E03FEF4FE757E40E94E30338
:101A7000181664F5FE01ED5BFF4F60817181828174
:101A8000938120E030E040E251E40E943D02DC011D
:101A9000CB01BC01CD010E946700DC01CB019EAFF0
:101AA0008DAF0FC080E991E09CAF8BAF8BAD9CAD4B
:101AB0000197F1F79CAF8BAF8DAD9EAD01979EAFB7
:101AC0008DAF8DAD9EAD009769F716C0FE01FF96F4
:101AD00060817181828193810E946700DC01CB016A
:101AE0009EAF8DAF8DAD9EAD9AAF89AF89AD9AADEA
:101AF0000197F1F79AAF89AFA5E3B0E0E5E3F0E035
:101B000080818F778C9380E090E0A0E8BFE38DAB7D
:101B10009EABAFABB8AF6DA97EA98FA998AD20E001
:101B200030E04AE755E40E943D02DC01CB0189AB7D
:101B30009AABABABBCAB69A97AA98BA99CA920E0F5
:101B400030E040E85FE30E94430488232CF481E006
:101B500090E098AB8FA73FC069A97AA98BA99CA9EF
:101B600020E03FEF4FE757E40E94E30318164CF5DF
:101B70006DA97EA98FA998AD20E030E040E251E444
:101B80000E943D02DC01CB01BC01CD010E94670037
:101B9000DC01CB0198AB8FA70FC080E991E09EA735
:101BA0008DA78DA59EA50197F1F79EA78DA78FA55F
:101BB00098A9019798AB8FA78FA598A9009769F767
:101BC00014C069A97AA98BA99CA90E946700DC01AD
:101BD000CB0198AB8FA78FA598A99CA78BA78BA5A6
:101BE0009CA50197F1F79CA78BA7A5E3B0E0E5E3DF
:101BF000F0E0808180688C9380E090E0A0E8BFE313
:101C00008FA398A7A9A7BAA76FA178A589A59AA518
:101C100020E030E04AE755E40E943D02DC01CB01C0
:101C20008BA39CA3ADA3BEA36BA17CA18DA19EA100
:101C300020E030E040E85FE30E94430488232CF476
:101C400081E090E09AA389A33FC06BA17CA18DA104
:101C50009EA120E03FEF4FE757E40E94E3031816F0
:101C60004CF56FA178A589A59AA520E030E040E267
:101C700051E40E943D02DC01CB01BC01CD010E9478
:101C80006700DC01CB019AA389A30FC080E991E032
:101C900098A38F8F8F8D98A10197F1F798A38F8FBD
:101CA00089A19AA101979AA389A389A19AA10097D2
:101CB00069F714C06BA17CA18DA19EA10E94670051
:101CC000DC01CB019AA389A389A19AA19E8F8D8F54
:101CD0008D8D9E8D0197F1F79E8F8D8FABE3B0E0D8
:101CE000EBE3F0E080818F708C93ABE3B0E0EBE34B
:101CF000F0E08081282FFE01ED59FF4F8081882F71
:101D000090E082959295907F9827807F9827822BEC
:101D10008C9380E090E0A0E8BFE3898F9A8FAB8F2F
:101D2000BC8F698D7A8D8B8D9C8D20E030E04AE7E9
:101D300055E40E943D02DC01CB018D8B9E8BAF8B65
:101D4000B88F6D897E898F89988D20E030E040E8DA
:101D50005FE30E94430488232CF481E090E09C8B95
:101D60008B8B3FC06D897E898F89988D20E03FEFF6
:101D70004FE757E40E94E30318164CF5698D7A8DFE
:101D80008B8D9C8D20E030E040E251E40E943D02CA
:101D9000DC01CB01BC01CD010E946700DC01CB015D
:101DA0009C8B8B8B0FC080E991E09A8B898B898902
:101DB0009A890197F1F79A8B898B8B899C89019776
:101DC0009C8B8B8B8B899C89009769F714C06D89DC
:101DD0007E898F89988D0E946700DC01CB019C8BE6
:101DE0008B8B8B899C89988B8F878F85988901979E
:101DF000F1F7988B8F87A5E3B0E0E5E3F0E0808111
:101E00008F778C9380E090E0A0E8BFE38B879C877E
:101E1000AD87BE876B857C858D859E8520E030E013
:101E20004AE755E40E943D02DC01CB018F8398878D
:101E3000A987BA876F81788589859A8520E030E007
:101E400040E85FE30E94430488232CF481E090E0A3
:101E50009E838D833FC06F81788589859A8520E038
:101E60003FEF4FE757E40E94E30318164CF56B85EC
:101E70007C858D859E8520E030E040E251E40E9423
:101E80003D02DC01CB01BC01CD010E946700DC01F9
:101E9000CB019E838D830FC080E991E09C838B836F
:101EA0008B819C810197F1F79C838B838D819E812F
:101EB00001979E838D838D819E81009769F714C061
:101EC0006F81788589859A850E946700DC01CB0146
:101ED0009E838D838D819E819A83898389819A8156
:101EE0000197F1F79A838983CD59DF4F0FB6F894A4
:101EF000DEBF0FBECDBFCF91DF911F910F9108952F
:101F00000F931F93DF93CF93CDB7DEB7C356D04067
:101F10000FB6F894DEBF0FBECDBFFE01ED59FF4FE7
:101F20008083A5E3B0E0E5E3F0E0808180628C93FC
:101F3000A5E3B0E0E5E3F0E080818F7B8C93FE01C8
:101F4000E15AFF4F80E090E0A0E8BFE380839183F7
:101F5000A283B3838E01055A1F4FFE01E15AFF4F42
:101F6000608171818281938120E030E04AE755E40D
:101F70000E943D02DC01CB01F80180839183A283A2
:101F8000B383FE01E55AFF4F6081718182819381A5
:101F900020E030E040E85FE30E944304882344F4FB
:101FA000FE01E75AFF4F81E090E09183808364C097
:101FB000FE01E55AFF4F608171818281938120E0AB
:101FC0003FEF4FE757E40E94E30318160CF043C0BD
:101FD000FE01E15AFF4F608171818281938120E08F
:101FE00030E040E251E40E943D02DC01CB018E0171
:101FF000075A1F4FBC01CD010E946700DC01CB01D5
:10200000F801918380831FC0FE01E95AFF4F80E9E8
:1020100091E091838083FE01E95AFF4F8081918195
:102020000197F1F7FE01E95AFF4F91838083DE01AA
:10203000A75ABF4FFE01E75AFF4F80819181019758
:1020400011969C938E93FE01E75AFF4F80819181F8
:102050000097D1F627C08E01075A1F4FFE01E55A9F
:10206000FF4F60817181828193810E946700DC0152
:10207000CB01F80191838083DE01AB5ABF4FFE0193
:10208000E75AFF4F808191818D939C93FE01EB5A1B
:10209000FF4F808191810197F1F7FE01EB5AFF4FCD
:1020A00091838083A5E3B0E0E5E3F0E08081806880
:1020B0008C93FE01EF5AFF4F80E090E0A0E8BFE371
:1020C00080839183A283B3838E01035B1F4FFE0144
:1020D000EF5AFF4F608171818281938120E030E06F
:1020E0004AE755E40E943D02DC01CB01F801808300
:1020F0009183A283B383FE01E35BFF4F6081718113
:102100008281938120E030E040E85FE30E94430455
:10211000882344F4FE01E55BFF4F81E090E091836A
:10212000808364C0FE01E35BFF4F60817181828127
:10213000938120E03FEF4FE757E40E94E303181636
:102140000CF043C0FE01EF5AFF4F60817181828124
:10215000938120E030E040E251E40E943D02DC0146
:10216000CB018E01055B1F4FBC01CD010E946700B2
:10217000DC01CB01F801918380831FC0FE01E75B86
:10218000FF4F80E991E091838083FE01E75BFF4F81
:10219000808191810197F1F7FE01E75BFF4F918309
:1021A0008083DE01A55BBF4FFE01E55BFF4F8081B1
:1021B0009181019711969C938E93FE01E55BFF4FF1
:1021C000808191810097D1F627C08E01055B1F4F5A
:1021D000FE01E35BFF4F60817181828193810E94E8
:1021E0006700DC01CB01F80191838083DE01A95BEC
:1021F000BF4FFE01E55BFF4F808191818D939C93E2
:10220000FE01E95BFF4F808191810197F1F7FE01AB
:10221000E95BFF4F91838083ABE3B0E0EBE3F0E059
:1022200080818F708C93ABE3B0E0EBE3F0E08081D2
:10223000982FFE01ED59FF4F8081807F892B8C9371
:10224000FE01ED5BFF4F80E090E0A0E8BFE38083FC
:102250009183A283B3838E01015C1F4FFE01ED5B6E
:10226000FF4F608171818281938120E030E04AE7F5
:1022700055E40E943D02DC01CB01F801808391838B
:10228000A283B383FE01FF96608171818281938175
:1022900020E030E040E85FE30E94430488232CF410
:1022A00081E090E09EAF8DAF46C0FE01FF96608159
:1022B00071818281938120E03FEF4FE757E40E94D4
:1022C000E303181664F5FE01ED5BFF4F6081718139
:1022D0008281938120E030E040E251E40E943D029F
:1022E000DC01CB01BC01CD010E946700DC01CB0108
:1022F0009EAF8DAF0FC080E991E09CAF8BAF8BADEF
:102300009CAD0197F1F79CAF8BAF8DAD9EAD019762
:102310009EAF8DAF8DAD9EAD009769F716C0FE01E3
:10232000FF9660817181828193810E946700DC0148
:10233000CB019EAF8DAF8DAD9EAD9AAF89AF89AD0C
:102340009AAD0197F1F79AAF89AFA5E3B0E0E5E365
:10235000F0E080818F778C9380E090E0A0E8BFE38D
:102360008DAB9EABAFABB8AF6DA97EA98FA998AD71
:1023700020E030E04AE755E40E943D02DC01CB0159
:1023800089AB9AABABABBCAB69A97AA98BA99CA969
:1023900020E030E040E85FE30E94430488232CF40F
:1023A00081E090E098AB8FA73FC069A97AA98BA97B
:1023B0009CA920E03FEF4FE757E40E94E303181683
:1023C0004CF56DA97EA98FA998AD20E030E040E2E0
:1023D00051E40E943D02DC01CB01BC01CD010E9411
:1023E0006700DC01CB0198AB8FA70FC080E991E0BB
:1023F0009EA78DA78DA59EA50197F1F79EA78DA7F6
:102400008FA598A9019798AB8FA78FA598A900973A
:1024100069F714C069A97AA98BA99CA90E946700D1
:10242000DC01CB0198AB8FA78FA598A99CA78BA7A0
:102430008BA59CA50197F1F79CA78BA7A5E3B0E01E
:10244000E5E3F0E0808180688C93ABE3B0E0EBE300
:10245000F0E080818F708C93ABE3B0E0EBE3F0E0D1
:102460008081282FFE01ED59FF4F8081882F90E059
:1024700082959295907F9827807F9827822B8C93C6
:1024800080E090E0A0E8BFE38FA398A7A9A7BAA730
:102490006FA178A589A59AA520E030E04AE755E428
:1024A0000E943D02DC01CB018BA39CA3ADA3BEA384
:1024B0006BA17CA18DA19EA120E030E040E85FE30C
:1024C0000E94430488232CF481E090E09AA389A31E
:1024D0003FC06BA17CA18DA19EA120E03FEF4FE703
:1024E00057E40E94E30318164CF56FA178A589A55F
:1024F0009AA520E030E040E251E40E943D02DC0178
:10250000CB01BC01CD010E946700DC01CB019AA385
:1025100089A30FC080E991E098A38F8F8F8D98A138
:102520000197F1F798A38F8F89A19AA101979AA398
:1025300089A389A19AA1009769F714C06BA17CA116
:102540008DA19EA10E946700DC01CB019AA389A303
:1025500089A19AA19E8F8D8F8D8D9E8D0197F1F708
:102560009E8F8D8F80E090E0A0E8BFE3898F9A8FE7
:10257000AB8FBC8F698D7A8D8B8D9C8D20E030E088
:102580004AE755E40E943D02DC01CB018D8B9E8B16
:10259000AF8BB88F6D897E898F89988D20E030E070
:1025A00040E85FE30E94430488232CF481E090E03C
:1025B0009C8B8B8B3FC06D897E898F89988D20E0A5
:1025C0003FEF4FE757E40E94E30318164CF5698D7F
:1025D0007A8D8B8D9C8D20E030E040E251E40E94AA
:1025E0003D02DC01CB01BC01CD010E946700DC0192
:1025F000CB019C8B8B8B0FC080E991E09A8B898BF0
:1026000089899A890197F1F79A8B898B8B899C89A3
:1026100001979C8B8B8B8B899C89009769F714C0E1
:102620006D897E898F89988D0E946700DC01CB01BE
:102630009C8B8B8B8B899C89988B8F878F859889B6
:102640000197F1F7988B8F87A5E3B0E0E5E3F0E021
:1026500080818F778C9380E090E0A0E8BFE38B8748
:102660009C87AD87BE876B857C858D859E8520E0A8
:1026700030E04AE755E40E943D02DC01CB018F8344
:102680009887A987BA876F81788589859A8520E0A0
:1026900030E040E85FE30E94430488232CF481E0AB
:1026A00090E09E838D833FC06F81788589859A8570
:1026B00020E03FEF4FE757E40E94E30318164CF584
:1026C0006B857C858D859E8520E030E040E251E47D
:1026D0000E943D02DC01CB01BC01CD010E946700DC
:1026E000DC01CB019E838D830FC080E991E09C8348
:1026F0008B838B819C810197F1F79C838B838D81E8
:102700009E8101979E838D838D819E81009769F7BD
:1027100014C06F81788589859A850E946700DC01E5
:10272000CB019E838D838D819E819A83898389814C
:102730009A810197F1F79A838983CD59DF4F0FB6BC
:10274000F894DEBF0FBECDBFCF91DF911F910F91E7
:102750000895DF93CF93CDB7DEB781E00E94570B8A
:10276000CF91DF910895DF93CF9300D0CDB7DEB73F
:102770009A8389830AC0E981FA8180810E94800F4F
:1027800089819A8101969A838983E981FA8180817E
:10279000882389F70F900F90CF91DF910895DF93F1
:1027A000CF9300D000D00F92CDB7DEB78A836B8372
:1027B00019828A81282F30E03D832C838C819D8172
:1027C00081309105C1F02C813D81223031052CF4FE
:1027D0008C819D81009761F019C02C813D81223050
:1027E000310569F08C819D818330910561F00EC0C7
:1027F0008B8189830BC08B818064898307C08B8127
:102800008061898303C08B81806589838981806829
:102810000E94570B0F900F900F900F900F90CF9139
:10282000DF910895DF93CF93CDB7DEB765970FB6ED
:10283000F894DEBF0FBECDBF6A8B7B8B8C8B9D8BDC
:102840008A899B899E012F5F3F4FB9014AE050E082
:102850000E946A18CE0101960E94B31365960FB6C6
:10286000F894DEBF0FBECDBFCF91DF9108950F93D7
:102870001F93DF93CF93CDB7DEB729970FB6F894A8
:10288000DEBF0FBECDBF89836A832B833C834D831C
:102890005E830F83E2E7F0E08F81880F8083898178
:1028A000282F30E0398728878885998581309105E0
:1028B00009F445C0E885F985E230F10534F428854E
:1028C00039852115310571F0E8C0888599858230F8
:1028D000910509F465C0E885F985E330F10509F44F
:1028E0009AC0DBC000E710E06B817C818D819E8106
:1028F0000E94C7049B01AC01CA01B9010E941002E9
:10290000DC01CB019C01AD0160E074E284E79BE453
:102910000E943703DC01CB01BC01CD0120E030E097
:1029200040E051E40E94DF01DC01CB01BC01CD019C
:102930000E946700DC01CB01F8018083AEC000E794
:1029400010E06B817C818D819E810E94C704DC0137
:10295000CB01BC01CD0120E030E040E051E40E9419
:102960003D02DC01CB019C01AD0160E074E284E733
:102970009BE40E943703DC01CB01BC01CD0120E0C8
:1029800030E040E050E40E94DF01DC01CB01BC01FB
:10299000CD010E946700DC01CB01F80180837DC07E
:1029A00000E710E08B819C81AD81BE81880F991F6B
:1029B000AA1FBB1F880F991FAA1FBB1F880F991F33
:1029C000AA1FBB1F880F991FAA1FBB1F880F991F23
:1029D000AA1FBB1FBC01CD010E94C7049B01AC0113
:1029E00060E074E284E79BE40E943703DC01CB01E2
:1029F000BC01CD0120E030E040E05FE30E94DF0158
:102A0000DC01CB01BC01CD010E946700DC01CB01E0
:102A1000F801808342C000E710E08B819C81AD818A
:102A2000BE81880F991FAA1FBB1F880F991FAA1F5D
:102A3000BB1F880F991FAA1FBB1F880F991FAA1FB2
:102A4000BB1F880F991FAA1FBB1F880F991FAA1FA2
:102A5000BB1F880F991FAA1FBB1FBC01CD010E947D
:102A6000C7049B01AC0160E074E284E79BE40E9430
:102A70003703DC01CB01BC01CD0120E030E040E0B8
:102A80005EE30E94DF01DC01CB01BC01CD010E94AD
:102A90006700DC01CB01F8018083A1E7B0E0E1E74A
:102AA000F0E08081982F89818370892B8C93A4E733
:102AB000B0E0E4E7F0E08081982F8A818170846043
:102AC000892B8C9329960FB6F894DEBF0FBECDBF2D
:102AD000CF91DF911F910F910895DF93CF93CDB7E1
:102AE000DEB7E4E7F0E084EA8083E4E7F0E08081A9
:102AF0008823DCF7CF91DF910895DF93CF93CDB793
:102B0000DEB7E4E7F0E084E98083CF91DF910895B8
:102B1000DF93CF930F92CDB7DEB78983E3E7F0E081
:102B200089818083E4E7F0E084E88083E4E7F0E0F3
:102B300080818823DCF70F90CF91DF910895DF9398
:102B4000CF93CDB7DEB7E4E7F0E084EC8083E4E731
:102B5000F0E080818823DCF7E3E7F0E08081CF912B
:102B6000DF910895DF93CF93CDB7DEB7E4E7F0E0D0
:102B700084E88083E4E7F0E080818823DCF7E3E702
:102B8000F0E08081CF91DF910895DF93CF93CDB7AF
:102B9000DEB7E1E7F0E08081887FCF91DF91089593
:102BA000DF93CF9300D00F92CDB7DEB789836A83CE
:102BB0004B830E946D150E94C515883019F00E9444
:102BC0007D1521C08981880F0E9488150E94C51536
:102BD000883119F00E947D1516C08A810E948815DF
:102BE0000E94C515883219F00E947D150CC08B819A
:102BF0000E9488150E94C515883219F00E947D1523
:102C000002C00E947D150F900F900F90CF91DF9121
:102C10000895DF93CF9300D000D0CDB7DEB78A837D
:102C20006B8319820E946D150E94C515883029F0AA
:102C30000E947D1581E08C833CC08A81880F0E94B0
:102C400088150E94C515883129F00E947D1582E003
:102C50008C832FC08B810E9488150E94C5158832F5
:102C600029F00E947D1583E08C8323C00E946D159E
:102C70000E94C515803129F00E947D1584E08C8367
:102C800018C08A81882F90E0880F991F81600E9468
:102C900088150E94C515803429F00E947D1585E0B5
:102CA0008C8307C00E94B21589830E947D1589819B
:102CB0008C838C810F900F900F900F90CF91DF91AC
:102CC00008950F93DF93CF93CDB7DEB7AA970FB6D2
:102CD000F894DEBF0FBECDBF0E94360B80E060E0EF
:102CE00020E83AE146E050E001E00E94371488E035
:102CF00063E50E94350780E091E00E94B31380E015
:102D000090E0AAE7B4E48FA398A7A9A7BAA76FA1F8
:102D100078A589A59AA520E030E04AE755E40E940D
:102D20003D02DC01CB018BA39CA3ADA3BEA36BA191
:102D30007CA18DA19EA120E030E040E85FE30E94ED
:102D4000430488232CF481E090E09AA389A33FC038
:102D50006BA17CA18DA19EA120E03FEF4FE757E43E
:102D60000E94E30318164CF56FA178A589A59AA5D2
:102D700020E030E040E251E40E943D02DC01CB0162
:102D8000BC01CD010E946700DC01CB019AA389A39D
:102D90000FC080E991E098A38F8F8F8D98A1019744
:102DA000F1F798A38F8F89A19AA101979AA389A37C
:102DB00089A19AA1009769F714C06BA17CA18DA18C
:102DC0009EA10E946700DC01CB019AA389A389A17F
:102DD0009AA19E8F8D8F8D8D9E8D0197F1F79E8F7D
:102DE0008D8F2AE232E083E5B9010E945A070E94E2
:102DF000A9138CE091E00E94B31380912A02909174
:102E00002B02A0912C02B0912D02BC01CD010E9499
:102E10006700DC01CB01CC01A0E0B0E0BC01CD013A
:102E20000E9412148FE091E00E94B31380912E0251
:102E300090912F02A0913002B0913102BC01CD01DE
:102E40000E946700DC01CB01CC01A0E0B0E0BC0136
:102E5000CD010E94121481E060E00E94CF1383E153
:102E600091E00E94B3138091320290913302A091BD
:102E70003402B0913502BC01CD010E946700DC0133
:102E8000CB01CC01A0E0B0E0BC01CD010E94121446
:102E900080E090E0AAEFB3E4898F9A8FAB8FBC8F6C
:102EA000698D7A8D8B8D9C8D20E030E04AE755E46A
:102EB0000E943D02DC01CB018D8B9E8BAF8BB88FC6
:102EC0006D897E898F89988D20E030E040E85FE34E
:102ED0000E94430488232CF481E090E09C8B8B8B30
:102EE0003FC06D897E898F89988D20E03FEF4FE745
:102EF00057E40E94E30318164CF5698D7A8D8B8D8B
:102F00009C8D20E030E040E251E40E943D02DC0173
:102F1000CB01BC01CD010E946700DC01CB019C8B81
:102F20008B8B0FC080E991E09A8B898B89899A8974
:102F30000197F1F79A8B898B8B899C8901979C8BE0
:102F40008B8B8B899C89009769F714C06D897E896A
:102F50008F89988D0E946700DC01CB019C8B8B8B45
:102F60008B899C89988B8F878F8598890197F1F73A
:102F7000988B8F870E94A91386E191E00E94B3137A
:102F800080E090E0AAEFB3E48B879C87AD87BE8793
:102F90006B857C858D859E8520E030E04AE755E491
:102FA0000E943D02DC01CB018F839887A987BA87F5
:102FB0006F81788589859A8520E030E040E85FE37D
:102FC0000E94430488232CF481E090E09E838D834B
:102FD0003FC06F81788589859A8520E03FEF4FE774
:102FE00057E40E94E30318164CF56B857C858D85AC
:102FF0009E8520E030E040E251E40E943D02DC0189
:10300000CB01BC01CD010E946700DC01CB019E8396
:103010008D830FC080E991E09C838B838B819C81A1
:103020000197F1F79C838B838D819E8101979E830D
:103030008D838D819E81009769F7D3CE6F817885CE
:1030400089859A850E946700DC01CB019E838D8370
:103050008D819E819A83898389819A810197F1F775
:103060009A838983BECE2F923F924F925F926F9246
:103070007F928F929F92AF92BF92CF92DF92EF9208
:10308000FF920F931F93CF93DF93CDB7DEB7CA1B89
:10309000DB0B0FB6F894DEBF0FBECDBF09942A88B4
:1030A000398848885F846E847D848C849B84AA845C
:1030B000B984C884DF80EE80FD800C811B81AA81E9
:1030C000B981CE0FD11D0FB6F894DEBF0FBECDBFB4
:1030D000ED010895FB019F01E8944230C4F04532B0
:1030E000B4F44A3029F497FB1EF4909581959F4FD4
:1030F000642F77270E949B18805D8A330CF0895DCE
:103100008193CB010097A1F716F45DE251931082F1
:10311000C9010C948B18DC01FC01672F7191772396
:10312000E1F7329704C07C916D9370836291AE1782
:10313000BF07C8F30895AA1BBB1B51E107C0AA1F14
:10314000BB1FA617B70710F0A61BB70B881F991F48
:103150005A95A9F780959095BC01CD010895F894F2
:02316000FFCF9F
:1031620054657374696E67204C434400583D0020D7
:10317200593D005A3D005570646174696E67202E96
:103182002E00000000000000000000010202030304
:1031920003030404040404040404050505050505E9
:1031A20005050505050505050505060606060606C7
:1031B20006060606060606060606060606060606AD
:1031C2000606060606060606060607070707070797
:1031D200070707070707070707070707070707077D
:1031E200070707070707070707070707070707076D
:1031F200070707070707070707070707070707075D
:103202000707070707070707070708080808080846
:10321200080808080808080808080808080808082C
:10322200080808080808080808080808080808081C
:10323200080808080808080808080808080808080C
:1032420008080808080808080808080808080808FC
:1032520008080808080808080808080808080808EC
:1032620008080808080808080808080808080808DC
:1032720008080808080808080808080808080808CC
:0A32820008080808080808080808F2
:00000001FF
