:100000000C9446000C9465000C9465000C946500FB
:100010000C9465000C9465000C9465000C946500CC
:100020000C9465000C9465000C9465000C946500BC
:100030000C9465000C9465000C9465000C946500AC
:100040000C9465000C9465000C9465000C9465009C
:100050000C9465000C9465000C9465000C9465008C
:100060000C9465000C9465000C9465000C9465007C
:100070000C9465000C9465000C9465000C9465006C
:100080000C9465000C9465000C94650011241FBE4F
:10009000CFEFD0E1DEBFCDBF13E0A0E0B1E0E2EFF3
:1000A000FEE300E00BBF02C007900D92A432B1073F
:1000B000D9F713E0A4E2B3E001C01D92A833B10761
:1000C000E1F70E94EB100C94771F0C940000EF9264
:1000D000FF920F931F937B018C0120E030E040E002
:1000E0005FE40E94130488238CF0C801B70120E06C
:1000F00030E040E05FE40E94DF010E9473049B0156
:10010000AC01205030404040504806C0C801B70103
:100110000E9473049B01AC01B901CA011F910F91A8
:10012000FF90EF900895A0E0B0E0E9E9F0E00C94D2
:10013000FB1EDC012B01FA019C91923008F439C1BD
:10014000EB018881823008F433C1943069F4843043
:1001500009F02FC111969C9111978981981709F484
:1001600028C1ADE4B1E025C1843009F421C1823059
:10017000A9F4923009F01DC19A01AD0188E0EA01AD
:100180000990AE01E90109929E018150C1F7E20197
:10019000898111969C918923818308C1923009F449
:1001A00007C112962D903C901397EB018A819B8199
:1001B0001496AD90BD90CD90DC901797EC80FD80AB
:1001C0000E811F819101281B390BB90137FF04C033
:1001D00066277727621B730B603271050CF061C0D4
:1001E000121613066CF537014801062E04C09694CA
:1001F0008794779467940A94D2F721E030E040E046
:1002000050E004C0220F331F441F551F6A95D2F7D8
:1002100021503040404050402E213F214023512367
:10022000211531054105510521F021E030E040E084
:1002300050E079018A01E628F728082919293CC0ED
:10024000232BD1F1260E371E35014601062E04C0A0
:1002500096948794779467940A94D2F721E030E0DB
:1002600040E050E004C0220F331F441F551F6A9521
:10027000D2F721503040404050402A213B214C21B0
:100280005D21211531054105510521F021E030E0C6
:1002900040E050E059016A01A628B728C828D928AB
:1002A0000BC0821593052CF01C01AA24BB24650108
:1002B00003C0EE24FF24870111969C91D201119670
:1002C0008C91981709F445C0992339F0A80197013A
:1002D0002A193B094C095D0906C0A60195012E1992
:1002E0003F09400B510B57FD08C011823382228217
:1002F00024833583468357831DC081E08183338205
:10030000228288279927DC01821B930BA40BB50B53
:1003100084839583A683B7830DC0220F331F441FA8
:10032000551F2483358346835783828193810197A8
:10033000938382832481358146815781DA01C90103
:100340000197A109B1098F5F9F4FAF4FBF4328F3BA
:100350000BC0918333822282EA0CFB1C0C1D1D1DF5
:10036000E482F5820683178383E0808324813581CC
:100370004681578157FF1AC0C901AA2797FDA0954A
:10038000BA2F81709070A070B070569547953795D0
:100390002795822B932BA42BB52B84839583A6833F
:1003A000B78382819381019693838283DF0101C0A9
:1003B000D201CD01CDB7DEB7E2E10C94171FA0E268
:1003C000B0E0E5EEF1E00C94071F69837A838B833C
:1003D0009C832D833E834F835887E9E0EE2EF12CDA
:1003E000EC0EFD1ECE010196B7010E9464068E013F
:1003F0000F5E1F4FCE010596B8010E9464068A89E0
:1004000091E089278A8BC701B801AE01475E5F4F33
:100410000E9493000E948F05A096E6E00C94231F93
:10042000A0E2B0E0E6E1F2E00C94071F69837A8372
:100430008B839C832D833E834F835887F9E0EF2E77
:10044000F12CEC0EFD1ECE010196B7010E94640650
:100450008E010F5E1F4FCE010596B8010E94640603
:10046000C701B801AE01475E5F4F0E9493000E9432
:100470008F05A096E6E00C94231FA0E2B0E0E3E431
:10048000F2E00C94FB1E69837A838B839C832D831B
:100490003E834F835887CE010196BE01675F7F4F31
:1004A0000E946406CE010596BE016F5E7F4F0E94DA
:1004B00064069985923088F089898230C8F094303A
:1004C00019F4823051F404C0843029F4923081F45C
:1004D0008DE491E0C6C0923049F420E09A858A8983
:1004E000981321E02A87CE010996BBC0823049F4D7
:1004F00020E09A858A89981321E02A8BCE014196C3
:10050000B0C02D843E844F8458886D887E888F8843
:10051000988CEE24FF248701AA24BB24650140E0C7
:1005200050E060E070E0E0E0F0E0C10181709070C8
:10053000892BE9F0E60CF71C081D191D9A01AB0187
:100540002A0D3B1D4C1D5D1D80E090E0A0E0B0E059
:10055000E614F7040805190520F481E090E0A0E016
:10056000B0E0BA01A901480F591F6A1F7B1FAA0CEE
:10057000BB1CCC1CDD1C97FE08C081E090E0A0E015
:10058000B0E0A82AB92ACA2ADB2A3196E032F1055E
:1005900049F0660C771C881C991C56944794379434
:1005A0002794C3CFFA85EA892B893C898B859C8562
:1005B000280F391F2E5F3F4F17C0CA0181709070FE
:1005C000892B61F016950795F794E79480E090E009
:1005D000A0E0B0E8E82AF92A0A2B1B2B769567954C
:1005E000579547952F5F3F4F77FDE7CF0CC0440FDE
:1005F000551F661F771F17FD4160EE0CFF1C001F83
:10060000111F21503040403090E0590790E06907B9
:1006100090E4790760F32B8F3C8FDB01CA018F7761
:100620009070A070B07080349105A105B10561F49F
:1006300047FD0AC0E114F1040105110529F0405CF1
:100640005F4F6F4F7F4F40781A8EFE1711F081E099
:100650008A8F4D8F5E8F6F8F78A383E0898FCE0155
:1006600049960E948F05A096E2E10C94171FA8E11D
:10067000B0E0EDE3F3E00C94031F69837A838B838E
:100680009C832D833E834F835887B9E0EB2EF12C5A
:10069000EC0EFD1ECE010196B7010E9464068E018C
:1006A0000F5E1F4FCE010596B8010E946406298592
:1006B000223008F47EC03989323010F4B8017CC091
:1006C0008A859A8989278A87243011F0223031F46B
:1006D000231709F06EC06DE471E06EC0343039F458
:1006E0001D861E861F86188A1C861B8604C0323013
:1006F00021F484E08987B7015FC02B853C858B8915
:100700009C89281B390B3C872B87ED84FE840F8541
:100710001889AD88BE88CF88D88CEA14FB040C05F4
:100720001D0540F4EE0CFF1C001F111F215030402E
:100730003C872B8720E030E040E050E080E090E014
:10074000A0E0B0E460E070E0EA14FB040C051D05D5
:1007500040F0282B392B4A2B5B2BEA18FB080C099D
:100760001D09B695A79597958795EE0CFF1C001F60
:10077000111F6F5F7F4F6F31710531F7DA01C901CA
:100780008F779070A070B07080349105A105B1058D
:1007900061F427FD0AC0E114F1040105110529F0F7
:1007A000205C3F4F4F4F5F4F20782D873E874F870C
:1007B000588BBE01675F7F4FCB010E948F05689603
:1007C000EAE00C941F1FA8E1B0E0E9EEF3E00C941E
:1007D000071F69837A838B839C832D833E834F839A
:1007E000588789E0E82EF12CEC0EFD1ECE01019613
:1007F000B7010E9464068E010F5E1F4FCE01059661
:10080000B8010E9464068985823040F0898982306F
:1008100028F0C701B8010E94DC0601C08FEF68967E
:10082000E6E00C94231FA8E1B0E0E9E1F4E00C94C9
:10083000071F69837A838B839C832D833E834F8339
:10084000588789E0E82EF12CEC0EFD1ECE010196B2
:10085000B7010E9464068E010F5E1F4FCE01059600
:10086000B8010E9464068985823040F0898982300F
:1008700028F0C701B8010E94DC0601C08FEF68961E
:10088000E6E00C94231FA8E1B0E0E9E4F4E00C9466
:10089000071F69837A838B839C832D833E834F83D9
:1008A000588789E0E82EF12CEC0EFD1ECE01019652
:1008B000B7010E9464068E010F5E1F4FCE010596A0
:1008C000B8010E9464068985823040F089898230AF
:1008D00028F0C701B8010E94DC0601C081E06896DB
:1008E000E6E00C94231FACE0B0E0E9E7F4E00C9400
:1008F0000B1F69837A838B839C83CE010196BE0193
:100900006B5F7F4F0E9464068D81823061F182307F
:1009100050F1843021F48E81882351F12EC02F8133
:10092000388537FD20C06E812F3131051CF06623DC
:10093000F9F023C08EE190E0821B930B29853A8564
:100940004B855C8504C056954795379527958A95C4
:10095000D2F76623B1F050954095309521953F4FE1
:100960004F4F5F4F0EC020E030E040E050E009C044
:100970002FEF3FEF4FEF5FE704C020E030E040E0B3
:1009800050E8B901CA012C96E2E00C94271FA8E0B8
:10099000B0E0EDECF4E00C94031F7B018C016115D9
:1009A00071058105910519F482E0898360C083E0B7
:1009B00089838EE1C82ED12CDC82CB82ED82FE822F
:1009C0000F831887C801B7010E944005FC013197C9
:1009D000F7FF3BC0222733272E1B3F0B570168012F
:1009E000022E04C0D694C794B794A7940A94D2F761
:1009F00040E050E060E070E081E090E0A0E0B0E036
:100A000004C0880F991FAA1FBB1F2A95D2F7019710
:100A1000A109B1098E219F21A023B1230097A1052F
:100A2000B10521F041E050E060E070E04A295B2927
:100A30006C297D294D835E836F8378878EE190E0FA
:100A40008E1B9F0B9C838B8312C0309781F00E2EE0
:100A500004C0EE0CFF1C001F111F0A94D2F7ED8298
:100A6000FE820F831887CE1ADF0ADC82CB821A82BD
:100A7000CE0101960E948F052896EAE00C941F1F74
:100A8000EF92FF920F931F937B018C0180E0E81699
:100A900080E0F80681E0080780E0180788F48FEF0F
:100AA000E816F1040105110531F028F088E090E026
:100AB000A0E0B0E017C080E090E0A0E0B0E012C09D
:100AC00080E0E81680E0F80680E0080781E018077B
:100AD00028F088E190E0A0E0B0E004C080E190E080
:100AE000A0E0B0E020E230E040E050E0281B390B0D
:100AF0004A0B5B0B04C016950795F794E7948A950B
:100B0000D2F7F701EB5AFE4F8081281B31094109CA
:100B10005109C9011F910F91FF90EF900895DF9245
:100B2000EF92FF920F931F93FC01E480F580068102
:100B30001781D1808081823048F480E090E0A0E18C
:100B4000B0E0E82AF92A0A2B1B2BA5C0843009F44F
:100B50009FC0823021F4EE24FF24870105C0E114F8
:100B6000F1040105110519F4E0E0F0E096C062819E
:100B700073819FEF623879070CF05BC022E83FEF8A
:100B8000261B370B2A3131052CF020E030E040E005
:100B900050E02AC0B801A701022E04C076956795DF
:100BA000579547950A94D2F781E090E0A0E0B0E035
:100BB00004C0880F991FAA1FBB1F2A95D2F701975F
:100BC000A109B1098E219F21A023B1230097A1057E
:100BD000B10521F081E090E0A0E0B0E09A01AB0126
:100BE000282B392B4A2B5B2BDA01C9018F779070A8
:100BF000A070B07080349105A105B10539F427FFCC
:100C000009C0205C3F4F4F4F5F4F04C0215C3F4FF6
:100C10004F4F5F4FE0E0F0E02030A0E03A07A0E067
:100C20004A07A0E45A0710F0E1E0F0E079018A01F8
:100C300027C06038710564F5FB01E158FF4FD8010A
:100C4000C7018F779070A070B07080349105A105B6
:100C5000B10539F4E7FE0DC080E490E0A0E0B0E01B
:100C600004C08FE390E0A0E0B0E0E80EF91E0A1F98
:100C70001B1F17FF05C016950795F794E79431964B
:100C800087E016950795F794E7948A95D1F705C004
:100C9000EE24FF248701EFEFF0E06E2F67956627C3
:100CA0006795902F9F77D794DD24D7948E2F8695C4
:100CB000492F462B582F5D29B701CA011F910F916B
:100CC000FF90EF90DF900895FC01DB01408151819E
:100CD0002281622F6F7770E0221F2227221F9381CB
:100CE000892F880F822B282F30E0991F9927991F71
:100CF00011969C93119721153105A9F541155105C0
:100D00006105710511F482E037C082E89FEF139608
:100D10009C938E9312979A01AB0167E0220F331FC9
:100D2000441F551F6A95D1F783E08C930DC0220FA5
:100D3000331F441F551F12968D919C911397019755
:100D400013969C938E931297203080E0380780E0B2
:100D5000480780E4580758F314962D933D934D931C
:100D60005C93179708952F3F310579F4411551058C
:100D70006105710519F484E08C93089564FF03C044
:100D800081E08C9312C01C9210C02F5730401396F4
:100D90003C932E93129783E08C9387E0440F551F6A
:100DA000661F771F8A95D1F7706414964D935D93F3
:100DB0006D937C93179708951F93DC01FB019C9121
:100DC000923008F447C08081823008F443C09430E8
:100DD00051F411961C91843099F58181682F70E04F
:100DE000611B71093FC0843021F0923031F48230B0
:100DF000B9F18181882389F12DC011961C91119739
:100E00008230F1F081811817D9F412962D913C911E
:100E10001397828193818217930794F028173907DB
:100E2000BCF014968D919D910D90BC91A02D2481C4
:100E3000358146815781281739074A075B0718F41F
:100E4000112341F00AC082179307A407B50740F4A5
:100E5000112319F061E070E005C06FEF7FEF02C071
:100E600060E070E0CB011F910895DF93CF93CDB781
:100E7000DEB7A6E2B0E0E6E2F0E0808187688C931E
:100E8000A7E2B0E0E7E2F0E0808180668C93CF914A
:100E9000DF910895DF93CF9300D00F92CDB7DEB7E7
:100EA0008B83A7E2B0E0E7E2F0E0808188778C9363
:100EB000A7E2B0E0E7E2F0E08081982F8B818770B5
:100EC000892B8C93A6E2B0E0E6E2F0E080818064BA
:100ED0008C93E6E2F0E08081882F90E0807490703F
:100EE0000097B9F7E5E2F0E08081882F90E09A83DF
:100EF0008983A6E2B0E0E6E2F0E0808180618C9335
:100F000089819A810F900F900F90CF91DF91089572
:100F1000DF93CF93CDB7DEB72F970FB6F894DEBF30
:100F20000FBECDBF1F861AC08F85882F90E0FC01B1
:100F3000E35AFD4F80810E94B01E8F85282F30E03C
:100F40008F85882F90E0FC01EB5AFD4F8081F901DD
:100F5000E35AFD4F80838F858F5F8F878F85883021
:100F600018F380E090E0A8ECB2E48B879C87AD8713
:100F7000BE876B857C858D859E8520E030E04AE7C5
:100F800055E40E943D02DC01CB018F839887A9873D
:100F9000BA876F81788589859A8520E030E040E8BE
:100FA0005FE30E94430488232CF481E090E09E8359
:100FB0008D833FC06F81788589859A8520E03FEFDA
:100FC0004FE757E40E94E30318164CF56B857C85C8
:100FD0008D859E8520E030E040E251E40E943D0294
:100FE000DC01CB01BC01CD010E946700DC01CB011B
:100FF0009E838D830FC080E991E09C838B838B81DE
:101000009C810197F1F79C838B838D819E81019751
:101010009E838D838D819E81009769F714C06F81B7
:10102000788589859A850E946700DC01CB019E83C3
:101030008D838D819E819A83898389819A8101978D
:10104000F1F79A8389832F960FB6F894DEBF0FBE0F
:10105000CDBFCF91DF910895DF93CF93CDB7DEB7AA
:101060008AE1809360020E948807CF91DF91089502
:10107000DF93CF9300D0CDB7DEB79A83898383E027
:101080008093600289819A818F3F910509F020F455
:101090008981809363020BC0898180936302898177
:1010A000882F90E0892F990F990B809362020E94FC
:1010B00088070F900F90CF91DF910895DF93CF9322
:1010C0000F92CDB7DEB7898389818F3110F08EE121
:1010D000898386E0809360028981809363020E9405
:1010E00088070F90CF91DF910895DF93CF930F92F0
:1010F000CDB7DEB7898388E08093600289818093D1
:1011000063020E9488070F90CF91DF910895DF93CB
:10111000CF93CDB7DEB78EE0809360020E94880740
:10112000CF91DF910895DF93CF93CDB7DEB786E1FE
:10113000809360020E948807CF91DF910895DF932A
:10114000CF93CDB7DEB78DE0809360020E94880711
:10115000CF91DF910895DF93CF93CDB7DEB78CE0C9
:10116000809360020E948807CF91DF910895DF93FA
:10117000CF9300D0CDB7DEB79A8389830E948708CA
:101180008EE10E945E0889819A810E9438080F9042
:101190000F90CF91DF9108950F931F93DF93CF931B
:1011A000CDB7DEB729970FB6F894DEBF0FBECDBF1F
:1011B00089836A832B833C834D835E830F83E2E7BD
:1011C000F0E08F81880F80838981282F30E0398774
:1011D0002887888599858130910509F445C0E8857F
:1011E000F985E230F10534F428853985211531057A
:1011F00071F0E8C0888599858230910509F465C051
:10120000E885F985E330F10509F49AC0DBC000E711
:1012100010E06B817C818D819E810E94C7049B01BF
:10122000AC01CA01B9010E941002DC01CB019C0192
:10123000AD0160E074E284E79BE40E943703DC01C7
:10124000CB01BC01CD0120E030E040E051E40E9440
:10125000DF01DC01CB01BC01CD010E946700DC0194
:10126000CB01F8018083AEC000E710E06B817C8188
:101270008D819E810E94C704DC01CB01BC01CD01A0
:1012800020E030E040E051E40E943D02DC01CB016F
:101290009C01AD0160E074E284E79BE40E943703A7
:1012A000DC01CB01BC01CD0120E030E040E050E4A6
:1012B0000E94DF01DC01CB01BC01CD010E9467006F
:1012C000DC01CB01F80180837DC000E710E08B8159
:1012D0009C81AD81BE81880F991FAA1FBB1F880FFB
:1012E000991FAA1FBB1F880F991FAA1FBB1F880F1A
:1012F000991FAA1FBB1F880F991FAA1FBB1FBC01E4
:10130000CD010E94C7049B01AC0160E074E284E758
:101310009BE40E943703DC01CB01BC01CD0120E03E
:1013200030E040E05FE30E94DF01DC01CB01BC0163
:10133000CD010E946700DC01CB01F801808342C02F
:1013400000E710E08B819C81AD81BE81880F991FE1
:10135000AA1FBB1F880F991FAA1FBB1F880F991FA9
:10136000AA1FBB1F880F991FAA1FBB1F880F991F99
:10137000AA1FBB1F880F991FAA1FBB1F880F991F89
:10138000AA1FBB1FBC01CD010E94C7049B01AC0179
:1013900060E074E284E79BE40E943703DC01CB0148
:1013A000BC01CD0120E030E040E05EE30E94DF01BF
:1013B000DC01CB01BC01CD010E946700DC01CB0147
:1013C000F8018083A1E7B0E0E1E7F0E08081982FA9
:1013D00089818370892B8C93A4E7B0E0E4E7F0E087
:1013E0008081982F8A8181708460892B8C932996C3
:1013F0000FB6F894DEBF0FBECDBFCF91DF911F9126
:101400000F910895DF93CF93CDB7DEB7E4E7F0E017
:1014100084EA8083E4E7F0E080818823DCF7CF91E1
:10142000DF910895DF93CF93CDB7DEB7E4E7F0E027
:1014300084E98083CF91DF910895DF93CF930F925A
:10144000CDB7DEB78983E3E7F0E089818083E4E705
:10145000F0E084E88083E4E7F0E080818823DCF733
:101460000F90CF91DF910895DF93CF93CDB7DEB783
:10147000E4E7F0E084EC8083E4E7F0E08081882317
:10148000DCF7E3E7F0E08081CF91DF910895DF930F
:10149000CF93CDB7DEB7E4E7F0E084E88083E4E7FC
:1014A000F0E080818823DCF7E3E7F0E08081CF91F2
:1014B000DF910895DF93CF93CDB7DEB7E1E7F0E09A
:1014C0008081887FCF91DF910895DF93CF9300D003
:1014D0000F92CDB7DEB789836A834B830E94020ADD
:1014E0008981880F0E941D0A8A810E941D0A8B81B2
:1014F0000E941D0A0E94120A0F900F900F90CF9128
:10150000DF910895DF93CF9300D000D0CDB7DEB741
:101510008A836B8319820E94020A0E945A0A8830C9
:1015200029F00E94120A81E08C833CC08A81880FD6
:101530000E941D0A0E945A0A883129F00E94120A4C
:1015400082E08C832FC08B810E941D0A0E945A0A60
:10155000883229F00E94120A83E08C8323C00E9403
:10156000020A0E945A0A803129F00E94120A84E07D
:101570008C8318C08A81882F90E0880F991F816022
:101580000E941D0A0E945A0A803429F00E94120A01
:1015900085E08C8307C00E94470A89830E94120A53
:1015A00089818C838C810F900F900F900F90CF9139
:1015B000DF910895DF93CF93CDB7DEB7E8970FB6ED
:1015C000F894DEBF0FBECDBF80E090E0A0E2B2E4B1
:1015D0008DAB9EABAFABB8AF6DA97EA98FA998AD0F
:1015E00020E030E04AE755E40E943D02DC01CB01F7
:1015F00089AB9AABABABBCAB69A97AA98BA99CA907
:1016000020E030E040E85FE30E94430488232CF4AC
:1016100081E090E098AB8FA73FC069A97AA98BA918
:101620009CA920E03FEF4FE757E40E94E303181620
:101630004CF56DA97EA98FA998AD20E030E040E27D
:1016400051E40E943D02DC01CB01BC01CD010E94AE
:101650006700DC01CB0198AB8FA70FC080E991E058
:101660009EA78DA78DA59EA50197F1F79EA78DA793
:101670008FA598A9019798AB8FA78FA598A90097D8
:1016800069F714C069A97AA98BA99CA90E9467006F
:10169000DC01CB0198AB8FA78FA598A99CA78BA73E
:1016A0008BA59CA50197F1F79CA78BA78CE30E94C3
:1016B000BE0C80E090E0A0E4B0E48FA398A7A9A7B7
:1016C000BAA76FA178A589A59AA520E030E04AE7DE
:1016D00055E40E943D02DC01CB018BA39CA3ADA38A
:1016E000BEA36BA17CA18DA19EA120E030E040E8CB
:1016F0005FE30E94430488232CF481E090E09AA3E6
:1017000089A33FC06BA17CA18DA19EA120E03FEFEA
:101710004FE757E40E94E30318164CF56FA178A534
:1017200089A59AA520E030E040E251E40E943D0204
:10173000DC01CB01BC01CD010E946700DC01CB01C3
:101740009AA389A30FC080E991E098A38F8F8F8D12
:1017500098A10197F1F798A38F8F89A19AA101977A
:101760009AA389A389A19AA1009769F714C06BA1D4
:101770007CA18DA19EA10E946700DC01CB019AA3F0
:1017800089A389A19AA19E8F8D8F8D8D9E8D0197A2
:10179000F1F79E8F8D8F8CE00E94BE0C80E090E070
:1017A000A0E4B0E4898F9A8FAB8FBC8F698D7A8D5E
:1017B0008B8D9C8D20E030E04AE755E40E943D028D
:1017C000DC01CB018D8B9E8BAF8BB88F6D897E89B1
:1017D0008F89988D20E030E040E85FE30E94430469
:1017E00088232CF481E090E09C8B8B8B3FC06D892B
:1017F0007E898F89988D20E03FEF4FE757E40E9464
:10180000E30318164CF5698D7A8D8B8D9C8D20E045
:1018100030E040E251E40E943D02DC01CB01BC011A
:10182000CD010E946700DC01CB019C8B8B8B0FC02C
:1018300080E991E09A8B898B89899A890197F1F7E0
:101840009A8B898B8B899C8901979C8B8B8B8B893D
:101850009C89009769F714C06D897E898F89988D5E
:101860000E946700DC01CB019C8B8B8B8B899C8950
:10187000988B8F878F8598890197F1F7988B8F8741
:1018800081E00E94BE0C80E090E0A0E4B0E48B8791
:101890009C87AD87BE876B857C858D859E8520E086
:1018A00030E04AE755E40E943D02DC01CB018F8322
:1018B0009887A987BA876F81788589859A8520E07E
:1018C00030E040E85FE30E94430488232CF481E089
:1018D00090E09E838D833FC06F81788589859A854E
:1018E00020E03FEF4FE757E40E94E30318164CF562
:1018F0006B857C858D859E8520E030E040E251E45B
:101900000E943D02DC01CB01BC01CD010E946700B9
:10191000DC01CB019E838D830FC080E991E09C8325
:101920008B838B819C810197F1F79C838B838D81C5
:101930009E8101979E838D838D819E81009769F79B
:1019400014C06F81788589859A850E946700DC01C3
:10195000CB019E838D838D819E819A83898389812A
:101960009A810197F1F79A838983E8960FB6F894E4
:10197000DEBF0FBECDBFCF91DF910895DF93CF9330
:10198000CDB7DEB72F970FB6F894DEBF0FBECDBF31
:101990008F87A5E3B0E0E5E3F0E080818F778C935B
:1019A000A5E3B0E0E5E3F0E080818F7B8C93A5E3D5
:1019B000B0E0E5E3F0E080818F7D8C93EBE3F0E035
:1019C0008F858083A5E3B0E0E5E3F0E08081806867
:1019D0008C9380E090E0A0E0B0E48B879C87AD879B
:1019E000BE876B857C858D859E8520E030E04AE74B
:1019F00055E40E943D02DC01CB018F839887A987C3
:101A0000BA876F81788589859A8520E030E040E843
:101A10005FE30E94430488232CF481E090E09E83DE
:101A20008D833FC06F81788589859A8520E03FEF5F
:101A30004FE757E40E94E30318164CF56B857C854D
:101A40008D859E8520E030E040E251E40E943D0219
:101A5000DC01CB01BC01CD010E946700DC01CB01A0
:101A60009E838D830FC080E991E09C838B838B8163
:101A70009C810197F1F79C838B838D819E810197D7
:101A80009E838D838D819E81009769F714C06F813D
:101A9000788589859A850E946700DC01CB019E8349
:101AA0008D838D819E819A83898389819A81019713
:101AB000F1F79A838983A5E3B0E0E5E3F0E0808164
:101AC0008F778C932F960FB6F894DEBF0FBECDBFE5
:101AD000CF91DF910895DF93CF93CDB7DEB781E04B
:101AE0000E94BE0CCF91DF910895DF93CF93CDB7C5
:101AF000DEB72F970FB6F894DEBF0FBECDBF8F872E
:101B0000A5E3B0E0E5E3F0E080818F778C93A5E377
:101B1000B0E0E5E3F0E080818F7B8C93A5E3B0E05B
:101B2000E5E3F0E0808180628C93EBE3F0E08F8569
:101B30008083A5E3B0E0E5E3F0E0808180688C93EA
:101B400080E090E0A0E0B0E48B879C87AD87BE8703
:101B50006B857C858D859E8520E030E04AE755E4E5
:101B60000E943D02DC01CB018F839887A987BA8749
:101B70006F81788589859A8520E030E040E85FE3D1
:101B80000E94430488232CF481E090E09E838D839F
:101B90003FC06F81788589859A8520E03FEF4FE7C8
:101BA00057E40E94E30318164CF56B857C858D8500
:101BB0009E8520E030E040E251E40E943D02DC01DD
:101BC000CB01BC01CD010E946700DC01CB019E83EB
:101BD0008D830FC080E991E09C838B838B819C81F6
:101BE0000197F1F79C838B838D819E8101979E8362
:101BF0008D838D819E81009769F714C06F817885F0
:101C000089859A850E946700DC01CB019E838D83C4
:101C10008D819E819A83898389819A810197F1F7C9
:101C20009A838983A5E3B0E0E5E3F0E080818F77D4
:101C30008C932F960FB6F894DEBF0FBECDBFCF9119
:101C4000DF910895DF93CF93CDB7DEB761970FB6DD
:101C5000F894DEBF0FBECDBF998B888B1F8680C0E6
:101C60008F85282F30E088899989FC01E20FF31FC6
:101C700080810E94750D8F858F5F8F8780E090E057
:101C8000A0E0B0E48B879C87AD87BE876B857C85A1
:101C90008D859E8520E030E04AE755E40E943D02B4
:101CA000DC01CB018F839887A987BA876F817885FC
:101CB00089859A8520E030E040E85FE30E94430494
:101CC00088232CF481E090E09E838D833FC06F8158
:101CD000788589859A8520E03FEF4FE757E40E9499
:101CE000E30318164CF56B857C858D859E8520E079
:101CF00030E040E251E40E943D02DC01CB01BC0136
:101D0000CD010E946700DC01CB019E838D830FC053
:101D100080E991E09C838B838B819C810197F1F713
:101D20009C838B838D819E8101979E838D838D8182
:101D30009E81009769F714C06F81788589859A859F
:101D40000E946700DC01CB019E838D838D819E8183
:101D50009A83898389819A810197F1F79A8389838C
:101D60008F85282F30E088899989FC01E20FF31FC5
:101D70008081882309F074CF61960FB6F894DEBF96
:101D80000FBECDBFCF91DF910895DF93CF93CDB735
:101D9000DEB764970FB6F894DEBF0FBECDBF8B8B56
:101DA0006C8B80E88F8780EC888B84E9898B84ED4D
:101DB0008A8B8C89882F90E09C0121503040CE0185
:101DC0000F96FC01E20FF31F90818B89890F8150E0
:101DD0000E94BE0C80E090E0A0E8BFE38B879C8768
:101DE000AD87BE876B857C858D859E8520E030E044
:101DF0004AE755E40E943D02DC01CB018F839887BE
:101E0000A987BA876F81788589859A8520E030E037
:101E100040E85FE30E94430488232CF481E090E0D3
:101E20009E838D833FC06F81788589859A8520E068
:101E30003FEF4FE757E40E94E30318164CF56B851C
:101E40007C858D859E8520E030E040E251E40E9453
:101E50003D02DC01CB01BC01CD010E946700DC0129
:101E6000CB019E838D830FC080E991E09C838B839F
:101E70008B819C810197F1F79C838B838D819E815F
:101E800001979E838D838D819E81009769F714C091
:101E90006F81788589859A850E946700DC01CB0176
:101EA0009E838D838D819E819A83898389819A8186
:101EB0000197F1F79A83898364960FB6F894DEBF91
:101EC0000FBECDBFCF91DF910895DF93CF93CDB7F4
:101ED000DEB72E970FB6F894DEBF0FBECDBF80E100
:101EE0000E94BE0C80E090E0A0E8BFE38B879C8757
:101EF000AD87BE876B857C858D859E8520E030E033
:101F00004AE755E40E943D02DC01CB018F839887AC
:101F1000A987BA876F81788589859A8520E030E026
:101F200040E85FE30E94430488232CF481E090E0C2
:101F30009E838D833FC06F81788589859A8520E057
:101F40003FEF4FE757E40E94E30318164CF56B850B
:101F50007C858D859E8520E030E040E251E40E9442
:101F60003D02DC01CB01BC01CD010E946700DC0118
:101F7000CB019E838D830FC080E991E09C838B838E
:101F80008B819C810197F1F79C838B838D819E814E
:101F900001979E838D838D819E81009769F714C080
:101FA0006F81788589859A850E946700DC01CB0165
:101FB0009E838D838D819E819A83898389819A8175
:101FC0000197F1F79A8389832E960FB6F894DEBFB6
:101FD0000FBECDBFCF91DF910895DF93CF93CDB7E3
:101FE000DEB72E970FB6F894DEBF0FBECDBF84E1EB
:101FF0000E94BE0C80E090E0A0E8BFE38B879C8746
:10200000AD87BE876B857C858D859E8520E030E021
:102010004AE755E40E943D02DC01CB018F8398879B
:10202000A987BA876F81788589859A8520E030E015
:1020300040E85FE30E94430488232CF481E090E0B1
:102040009E838D833FC06F81788589859A8520E046
:102050003FEF4FE757E40E94E30318164CF56B85FA
:102060007C858D859E8520E030E040E251E40E9431
:102070003D02DC01CB01BC01CD010E946700DC0107
:10208000CB019E838D830FC080E991E09C838B837D
:102090008B819C810197F1F79C838B838D819E813D
:1020A00001979E838D838D819E81009769F714C06F
:1020B0006F81788589859A850E946700DC01CB0154
:1020C0009E838D838D819E819A83898389819A8164
:1020D0000197F1F79A8389832E960FB6F894DEBFA5
:1020E0000FBECDBFCF91DF910895DF93CF9300D086
:1020F00000D0CDB7DEB789836A835C834B83898147
:102100006A810E94C50E8B819C810E94220E0F90D5
:102110000F900F900F90CF91DF910895EF92FF9263
:102120000F931F93DF93CF93CDB7DEB729970FB6E9
:10213000F894DEBF0FBECDBF8B836C835E834D836F
:102140002F830DB71EB78DB79EB77C018F81882F67
:1021500090E02DB73EB7281B390B0FB6F8943EBF61
:102160000FBE2DBF8DB79EB701969987888788854A
:102170009985009699878887288539853A832983A8
:102180008D819E8129813A81B9014AE050E00E9407
:10219000321F29813A818B816C81A9010E947510BF
:1021A00080E091E00E94220E0FB6F894FEBE0FBEB2
:1021B000EDBE0FB6F8941EBF0FBE0DBF29960FB629
:1021C000F894DEBF0FBECDBFCF91DF911F910F916D
:1021D000FF90EF9008950F931F93DF93CF93CDB7A8
:1021E000DEB7CE58D0400FB6F894DEBF0FBECDBFDD
:1021F000EAE3F0E08FEF8083A4E3B0E0E4E3F0E013
:102200008081806E8C930E94DA0A0E94851E80E095
:1022100060E020E83AE146E050E001E00E94CC08AE
:1022200088E063E50E9453180E942C0882E091E048
:102230000E94220EFE01E757FF4F80E090E0AAE7E0
:10224000B4E480839183A283B3838E010B571F4F25
:10225000FE01E757FF4F608171818281938120E009
:1022600030E04AE755E40E943D02DC01CB01F80171
:1022700080839183A283B383FE01EB57FF4F60817C
:1022800071818281938120E030E040E85FE30E9429
:102290004304882344F4FE01ED57FF4F81E090E0B2
:1022A0009183808364C0FE01EB57FF4F6081718191
:1022B0008281938120E03FEF4FE757E40E94E303E0
:1022C00018160CF043C0FE01E757FF4F6081718183
:1022D0008281938120E030E040E251E40E943D029F
:1022E000DC01CB018E010D571F4FBC01CD010E94B7
:1022F0006700DC01CB01F801918380831FC0FE01E0
:10230000EF57FF4F80E991E091838083FE01EF5703
:10231000FF4F808191810197F1F7FE01EF57FF4F49
:1023200091838083DE01AD57BF4FFE01ED57FF4F14
:1023300080819181019711969C938E93FE01ED57B8
:10234000FF4F808191810097D1F627C08E010D57F4
:102350001F4FFE01EB57FF4F608171818281938196
:102360000E946700DC01CB01F80191838083DE01CC
:10237000A158BF4FFE01ED57FF4F808191818D9392
:102380009C93FE01E158FF4F808191810197F1F705
:10239000FE01E158FF4F918380830E94350784E25C
:1023A00093E00E941D1824E233E083E5B9010E9406
:1023B000781884E293E025E632E0B9010E94541CCB
:1023C000882369F380913703282F30E0C357DF4F0C
:1023D00039832883CD58D040C357DF4F88819981F6
:1023E000CD58D0408530910509F479C3C357DF4FEC
:1023F000E881F981CD58D040E630F1059CF5C3570E
:10240000DF4F28813981CD58D0402230310509F481
:1024100017C1C357DF4F88819981CD58D040833091
:1024200091055CF4C357DF4FE881F981CD58D04066
:10243000E130F10509F43FC0B2CFC357DF4F288127
:102440003981CD58D0402330310509F4BEC1C3577E
:10245000DF4F88819981CD58D0408430910509F4AF
:1024600079C29DCFC357DF4FE881F981CD58D04065
:10247000E730F10509F455C4C357DF4F288139818E
:10248000CD58D040273031050CF4C7C3C357DF4FB8
:1024900088819981CD58D0408830910509F4C5C410
:1024A000C357DF4FE881F981CD58D040E930F105BD
:1024B00009F43FC574CF81E00E94BE0C2EE031E0EC
:1024C00081E061E0A9010E94751081E090E00E9426
:1024D000B708FE01E558FF4F80E090E0AAEFB4E4B2
:1024E00080839183A283B3838E0109581F4FFE011D
:1024F000E558FF4F608171818281938120E030E057
:102500004AE755E40E943D02DC01CB01F8018083DB
:102510009183A283B383FE01E958FF4F60817181EB
:102520008281938120E030E040E85FE30E94430431
:10253000882344F4FE01EB58FF4F81E090E0918343
:10254000808364C0FE01E958FF4F60817181828100
:10255000938120E03FEF4FE757E40E94E303181612
:102560000CF043C0FE01E558FF4F6081718182810C
:10257000938120E030E040E251E40E943D02DC0122
:10258000CB018E010B581F4FBC01CD010E9467008B
:10259000DC01CB01F801918380831FC0FE01ED585F
:1025A000FF4F80E991E091838083FE01ED58FF4F5A
:1025B000808191810197F1F7FE01ED58FF4F9183E2
:1025C0008083DE01AB58BF4FFE01EB58FF4F808187
:1025D0009181019711969C938E93FE01EB58FF4FCA
:1025E000808191810097D1F627C08E010B581F4F33
:1025F000FE01E958FF4F60817181828193810E94C1
:102600006700DC01CB01F80191838083DE01AF58C4
:10261000BF4FFE01EB58FF4F808191818D939C93BA
:10262000FE01EF58FF4F808191810197F1F7FE0184
:10263000EF58FF4F9183808381E00E94BE0CAFCEA4
:1026400081E00E94BE0C20E131E081E061E0A9015F
:102650000E94751082E090E00E94B708FE01E359E5
:10266000FF4F80E090E0AAEFB4E480839183A283DF
:10267000B3838E0107591F4FFE01E359FF4F60815D
:1026800071818281938120E030E04AE755E40E9425
:102690003D02DC01CB01F80180839183A283B383E7
:1026A000FE01E759FF4F608171818281938120E0B3
:1026B00030E040E85FE30E944304882344F4FE01D5
:1026C000E959FF4F81E090E09183808364C0FE016F
:1026D000E759FF4F608171818281938120E03FEF54
:1026E0004FE757E40E94E30318160CF043C0FE01C5
:1026F000E359FF4F608171818281938120E030E056
:1027000040E251E40E943D02DC01CB018E010959F7
:102710001F4FBC01CD010E946700DC01CB01F80115
:10272000918380831FC0FE01EB59FF4F80E991E048
:1027300091838083FE01EB59FF4F80819181019746
:10274000F1F7FE01EB59FF4F91838083DE01A95918
:10275000BF4FFE01E959FF4F80819181019711968A
:102760009C938E93FE01E959FF4F808191810097E0
:10277000D1F627C08E0109591F4FFE01E759FF4FBF
:1027800060817181828193810E946700DC01CB01AD
:10279000F80191838083DE01AD59BF4FFE01E959F5
:1027A000FF4F808191818D939C93FE01ED59FF4FE6
:1027B000808191810197F1F7FE01ED59FF4F9183DF
:1027C000808381E00E94BE0CEACD81E00E94BE0CB5
:1027D00022E131E081E061E0A9010E94751083E00F
:1027E00090E00E94B708FE01E15AFF4F80E090E0C0
:1027F000AAEFB4E480839183A283B3838E01055A48
:102800001F4FFE01E15AFF4F6081718182819381E8
:1028100020E030E04AE755E40E943D02DC01CB01B4
:10282000F80180839183A283B383FE01E55AFF4FB1
:10283000608171818281938120E030E040E85FE334
:102840000E944304882344F4FE01E75AFF4F81E0CD
:1028500090E09183808364C0FE01E55AFF4F608160
:1028600071818281938120E03FEF4FE757E40E941E
:10287000E30318160CF043C0FE01E15AFF4F6081DC
:1028800071818281938120E030E040E251E40E9436
:102890003D02DC01CB018E01075A1F4FBC01CD0167
:1028A0000E946700DC01CB01F801918380831FC087
:1028B000FE01E95AFF4F80E991E091838083FE0198
:1028C000E95AFF4F808191810197F1F7FE01E95AA2
:1028D000FF4F91838083DE01A75ABF4FFE01E75A65
:1028E000FF4F80819181019711969C938E93FE01F9
:1028F000E75AFF4F808191810097D1F627C08E0162
:10290000075A1F4FFE01E55AFF4F60817181828196
:1029100093810E946700DC01CB01F80191838083E1
:10292000DE01AB5ABF4FFE01E75AFF4F8081918114
:102930008D939C93FE01EB5AFF4F8081918101970B
:10294000F1F7FE01EB5AFF4F9183808381E00E94F3
:10295000BE0C25CD81E00E94BE0C24E131E081E077
:1029600061E0A9010E94751084E090E00E94B70820
:10297000FE01EF5AFF4F80E090E0AAEFB4E48083BD
:102980009183A283B3838E01035B1F4FFE01EF5A35
:10299000FF4F608171818281938120E030E04AE7BE
:1029A00055E40E943D02DC01CB01F8018083918354
:1029B000A283B383FE01E35BFF4F6081718182815B
:1029C000938120E030E040E85FE30E9443048823E5
:1029D00044F4FE01E55BFF4F81E090E0918380834A
:1029E00064C0FE01E35BFF4F60817181828193814E
:1029F00020E03FEF4FE757E40E94E30318160CF086
:102A000043C0FE01EF5AFF4F608171818281938143
:102A100020E030E040E251E40E943D02DC01CB01C5
:102A20008E01055B1F4FBC01CD010E946700DC01D8
:102A3000CB01F801918380831FC0FE01E75BFF4F4C
:102A400080E991E091838083FE01E75BFF4F808105
:102A500091810197F1F7FE01E75BFF4F918380833E
:102A6000DE01A55BBF4FFE01E55BFF4F80819181D9
:102A7000019711969C938E93FE01E55BFF4F808139
:102A800091810097D1F627C08E01055B1F4FFE0193
:102A9000E35BFF4F60817181828193810E946700B7
:102AA000DC01CB01F80191838083DE01A95BBF4F7C
:102AB000FE01E55BFF4F808191818D939C93FE0128
:102AC000E95BFF4F808191810197F1F7FE01E95B9E
:102AD000FF4F9183808381E00E94BE0C60CC81E037
:102AE0000E94BE0C26E131E083E061E0A9010E9472
:102AF000751025E231E085E062E0A9010E947510C1
:102B000085E090E00E94B708FE01ED5BFF4F80E09A
:102B100090E0AAEFB4E480839183A283B3838E0113
:102B2000015C1F4FFE01ED5BFF4F6081718182816F
:102B3000938120E030E04AE755E40E943D02DC0149
:102B4000CB01F80180839183A283B383FE01FF96BA
:102B5000608171818281938120E030E040E85FE311
:102B60000E94430488232CF481E090E09EAF8DAF57
:102B700046C0FE01FF96608171818281938120E0D1
:102B80003FEF4FE757E40E94E303181664F5FE0198
:102B9000ED5BFF4F608171818281938120E030E0A5
:102BA00040E251E40E943D02DC01CB01BC01CD01B9
:102BB0000E946700DC01CB019EAF8DAF0FC080E9A2
:102BC00091E09CAF8BAF8BAD9CAD0197F1F79CAFC3
:102BD0008BAF8DAD9EAD01979EAF8DAF8DAD9EAD90
:102BE000009769F716C0FE01FF96608171818281AE
:102BF00093810E946700DC01CB019EAF8DAF8DAD4C
:102C00009EAD9AAF89AF89AD9AAD0197F1F79AAFB2
:102C100089AF81E00E94BE0CC2CB81E00E94BE0C55
:102C200020E331E081E061E0A9010E94751086E0B7
:102C300090E00E94B70880E090E0AAEFB4E48DAB8A
:102C40009EABAFABB8AF6DA97EA98FA998AD20E0C0
:102C500030E04AE755E40E943D02DC01CB0189AB3C
:102C60009AABABABBCAB69A97AA98BA99CA920E0B4
:102C700030E040E85FE30E94430488232CF481E0C5
:102C800090E098AB8FA73FC069A97AA98BA99CA9AE
:102C900020E03FEF4FE757E40E94E30318164CF59E
:102CA0006DA97EA98FA998AD20E030E040E251E403
:102CB0000E943D02DC01CB01BC01CD010E946700F6
:102CC000DC01CB0198AB8FA70FC080E991E09EA7F4
:102CD0008DA78DA59EA50197F1F79EA78DA78FA51E
:102CE00098A9019798AB8FA78FA598A9009769F726
:102CF00014C069A97AA98BA99CA90E946700DC016C
:102D0000CB0198AB8FA78FA598A99CA78BA78BA564
:102D10009CA50197F1F79CA78BA781E00E94BE0CB0
:102D20003ECB81E00E94BE0C25E331E081E061E012
:102D3000A9010E94751087E090E00E94B70880E02A
:102D400090E0AAEFB4E48FA398A7A9A7BAA76FA1B0
:102D500078A589A59AA520E030E04AE755E40E94CD
:102D60003D02DC01CB018BA39CA3ADA3BEA36BA151
:102D70007CA18DA19EA120E030E040E85FE30E94AD
:102D8000430488232CF481E090E09AA389A33FC0F8
:102D90006BA17CA18DA19EA120E03FEF4FE757E4FE
:102DA0000E94E30318164CF56FA178A589A59AA592
:102DB00020E030E040E251E40E943D02DC01CB0122
:102DC000BC01CD010E946700DC01CB019AA389A35D
:102DD0000FC080E991E098A38F8F8F8D98A1019704
:102DE000F1F798A38F8F89A19AA101979AA389A33C
:102DF00089A19AA1009769F714C06BA17CA18DA14C
:102E00009EA10E946700DC01CB019AA389A389A13E
:102E10009AA19E8F8D8F8D8D9E8D0197F1F79E8F3C
:102E20008D8F81E00E94BE0CBACA81E00E94BE0C68
:102E30002EE331E081E061E0A9010E94751088E095
:102E400090E00E94B70880E090E0AAEFB4E4898F98
:102E50009A8FAB8FBC8F698D7A8D8B8D9C8D20E086
:102E600030E04AE755E40E943D02DC01CB018D8B46
:102E70009E8BAF8BB88F6D897E898F89988D20E06E
:102E800030E040E85FE30E94430488232CF481E0B3
:102E900090E09C8B8B8B3FC06D897E898F89988D4C
:102EA00020E03FEF4FE757E40E94E30318164CF58C
:102EB000698D7A8D8B8D9C8D20E030E040E251E46D
:102EC0000E943D02DC01CB01BC01CD010E946700E4
:102ED000DC01CB019C8B8B8B0FC080E991E09A8B3E
:102EE000898B89899A890197F1F79A8B898B8B89CC
:102EF0009C8901979C8B8B8B8B899C89009769F7A8
:102F000014C06D897E898F89988D0E946700DC01CD
:102F1000CB019C8B8B8B8B899C89988B8F878F8522
:102F200098890197F1F7988B8F8781E00E94BE0CFA
:102F300036CA81E00E94BE0C24E431E081E061E009
:102F4000A9010E94751089E090E00E94B70880E016
:102F500090E0AAEFB4E48B879C87AD87BE876B8532
:102F60007C858D859E8520E030E04AE755E40E940F
:102F70003D02DC01CB018F839887A987BA876F81D7
:102F8000788589859A8520E030E040E85FE30E94FB
:102F9000430488232CF481E090E09E838D833FC01E
:102FA0006F81788589859A8520E03FEF4FE757E468
:102FB0000E94E30318164CF56B857C858D859E85F4
:102FC00020E030E040E251E40E943D02DC01CB0110
:102FD000BC01CD010E946700DC01CB019E838D8383
:102FE0000FC080E991E09C838B838B819C8101974A
:102FF000F1F79C838B838D819E8101979E838D83C6
:103000008D819E81009769F714C06F8178858985CD
:103010009A850E946700DC01CB019E838D838D81A0
:103020009E819A83898389819A810197F1F79A8396
:10303000898381E00E94BE0CB2C9DF93CF9300D098
:10304000CDB7DEB79A83898380E00E944A07E98181
:10305000FA81808381E00E944A07E981FA818183B5
:1030600082E00E944A07E981FA81828383E00E941C
:103070004A07E981FA81838384E00E944A07E98153
:10308000FA81848385E00E944A07E981FA81858379
:1030900086E00E944A07E981FA8186830F900F90AB
:1030A000CF91DF910895DF93CF9300D0CDB7DEB7F6
:1030B00089836A838A816DE249810E94650A8A81D7
:1030C00061E34BE00E94650A8A816EE14FEF0E9446
:1030D000650A8A816FE140E00E94650A8A8160E2A8
:1030E0004FEF0E94650A0F900F90CF91DF910895E6
:1030F0000F931F93DF93CF93CDB7DEB7CD55D0405D
:103100000FB6F894DEBF0FBECDBFFE01E55AFF4FEC
:103110008083FE01E45AFF4F71836083FE01E55A0C
:10312000FF4F808162E30E94820AFE01E75AFF4F4F
:10313000882F90E091838083FE01EF5AFF4F80E05B
:1031400090E0A0E8BFE380839183A283B3838E01E4
:10315000035B1F4FFE01EF5AFF4F60817181828137
:10316000938120E030E04AE755E40E943D02DC0113
:10317000CB01F80180839183A283B383FE01E35BDB
:10318000FF4F608171818281938120E030E040E8CF
:103190005FE30E944304882344F4FE01E55BFF4F94
:1031A00081E090E09183808364C0FE01E35BFF4F88
:1031B000608171818281938120E03FEF4FE757E486
:1031C0000E94E30318160CF043C0FE01EF5AFF4FB4
:1031D000608171818281938120E030E040E251E49E
:1031E0000E943D02DC01CB018E01055B1F4FBC013B
:1031F000CD010E946700DC01CB01F801918380833F
:103200001FC0FE01E75BFF4F80E991E0918380835F
:10321000FE01E75BFF4F808191810197F1F7FE018D
:10322000E75BFF4F91838083DE01A55BBF4FFE010B
:10323000E55BFF4F80819181019711969C938E935E
:10324000FE01E55BFF4F808191810097D1F627C099
:103250008E01055B1F4FFE01E35BFF4F60817181B3
:10326000828193810E946700DC01CB01F801918388
:103270008083DE01A95BBF4FFE01E55BFF4F8081CC
:1032800091818D939C93FE01E95BFF4F8081918139
:103290000197F1F7FE01E95BFF4F91838083FE0107
:1032A000E55AFF4F808163E30E94820A882F90E0F5
:1032B000982F88279C01DE01A75ABF4FFE01E75ACD
:1032C000FF4F80819181822B932B8D939C93FE01E4
:1032D000ED5BFF4F80E090E0A0E8BFE38083918347
:1032E000A283B3838E01015C1F4FFE01ED5BFF4F94
:1032F000608171818281938120E030E04AE755E46A
:103300000E943D02DC01CB01F80180839183A283FE
:10331000B383FE01FF96608171818281938120E0F9
:1033200030E040E85FE30E94430488232CF481E00E
:1033300090E09EAF8DAF46C0FE01FF966081718127
:103340008281938120E03FEF4FE757E40E94E3033F
:10335000181664F5FE01ED5BFF4F6081718182817B
:10336000938120E030E040E251E40E943D02DC0124
:10337000CB01BC01CD010E946700DC01CB019EAFF7
:103380008DAF0FC080E991E09CAF8BAF8BAD9CAD52
:103390000197F1F79CAF8BAF8DAD9EAD01979EAFBE
:1033A0008DAF8DAD9EAD009769F716C0FE01FF96FB
:1033B00060817181828193810E946700DC01CB0171
:1033C0009EAF8DAF8DAD9EAD9AAF89AF89AD9AADF1
:1033D0000197F1F79AAF89AFFE01E55AFF4F80815F
:1033E00064E30E94820AFE01E95AFF4F882F90E0B1
:1033F0009183808380E090E0A0E8BFE38DAB9EAB3B
:10340000AFABB8AF6DA97EA98FA998AD20E030E031
:103410004AE755E40E943D02DC01CB0189AB9AAB3F
:10342000ABABBCAB69A97AA98BA99CA920E030E021
:1034300040E85FE30E94430488232CF481E090E09D
:1034400098AB8FA73FC069A97AA98BA99CA920E056
:103450003FEF4FE757E40E94E30318164CF56DA9C0
:103460007EA98FA998AD20E030E040E251E40E94AF
:103470003D02DC01CB01BC01CD010E946700DC01F3
:10348000CB0198AB8FA70FC080E991E09EA78DA7D5
:103490008DA59EA50197F1F79EA78DA78FA598A949
:1034A000019798AB8FA78FA598A9009769F714C0CB
:1034B00069A97AA98BA99CA90E946700DC01CB01AC
:1034C00098AB8FA78FA598A99CA78BA78BA59CA528
:1034D0000197F1F79CA78BA7FE01E55AFF4F80816A
:1034E00065E30E94820A882F90E0982F88279C012C
:1034F000DE01A95ABF4FFE01E95AFF4F8081918139
:10350000822B932B8D939C9380E090E0A0E8BFE307
:103510008FA398A7A9A7BAA76FA178A589A59AA5EF
:1035200020E030E04AE755E40E943D02DC01CB0197
:103530008BA39CA3ADA3BEA36BA17CA18DA19EA1D7
:1035400020E030E040E85FE30E94430488232CF44D
:1035500081E090E09AA389A33FC06BA17CA18DA1DB
:103560009EA120E03FEF4FE757E40E94E3031816C7
:103570004CF56FA178A589A59AA520E030E040E23E
:1035800051E40E943D02DC01CB01BC01CD010E944F
:103590006700DC01CB019AA389A30FC080E991E009
:1035A00098A38F8F8F8D98A10197F1F798A38F8F94
:1035B00089A19AA101979AA389A389A19AA10097A9
:1035C00069F714C06BA17CA18DA19EA10E94670028
:1035D000DC01CB019AA389A389A19AA19E8F8D8F2B
:1035E0008D8D9E8D0197F1F79E8F8D8FFE01E55A8F
:1035F000FF4F808166E30E94820AFE01EB5AFF4F73
:10360000882F90E09183808380E090E0A0E8BFE382
:10361000898F9A8FAB8FBC8F698D7A8D8B8D9C8DA6
:1036200020E030E04AE755E40E943D02DC01CB0196
:103630008D8B9E8BAF8BB88F6D897E898F89988D8E
:1036400020E030E040E85FE30E94430488232CF44C
:1036500081E090E09C8B8B8B3FC06D897E898F8948
:10366000988D20E03FEF4FE757E40E94E3031816E0
:103670004CF5698D7A8D8B8D9C8D20E030E040E299
:1036800051E40E943D02DC01CB01BC01CD010E944E
:103690006700DC01CB019C8B8B8B0FC080E991E034
:1036A0009A8B898B89899A890197F1F79A8B898BF3
:1036B0008B899C8901979C8B8B8B8B899C8900972C
:1036C00069F714C06D897E898F89988D0E94670083
:1036D000DC01CB019C8B8B8B8B899C89988B8F8792
:1036E0008F8598890197F1F7988B8F87FE01E55AAE
:1036F000FF4F808167E30E94820A882F90E0982F15
:1037000088279C01DE01AB5ABF4FFE01EB5AFF4FE9
:1037100080819181822B932B8D939C9380E090E00C
:10372000A0E8BFE38B879C87AD87BE876B857C85D0
:103730008D859E8520E030E04AE755E40E943D02F9
:10374000DC01CB018F839887A987BA876F81788541
:1037500089859A8520E030E040E85FE30E944304D9
:1037600088232CF481E090E09E838D833FC06F819D
:10377000788589859A8520E03FEF4FE757E40E94DE
:10378000E30318164CF56B857C858D859E8520E0BE
:1037900030E040E251E40E943D02DC01CB01BC017B
:1037A000CD010E946700DC01CB019E838D830FC099
:1037B00080E991E09C838B838B819C810197F1F759
:1037C0009C838B838D819E8101979E838D838D81C8
:1037D0009E81009769F714C06F81788589859A85E5
:1037E0000E946700DC01CB019E838D838D819E81C9
:1037F0009A83898389819A810197F1F79A838983D2
:10380000FE01E75AFF4F80819181CC01A0E0B0E03A
:10381000BC01CD010E94C704DC01CB01FE01E45ACA
:10382000FF4F0190F081E02D87839087A187B287B9
:10383000FE01E95AFF4F80819181CC01A0E0B0E008
:10384000BC01CD010E94C704DC01CB01FE01E45A9A
:10385000FF4F0190F081E02D83879487A587B6877D
:10386000FE01EB5AFF4F80819181CC01A0E0B0E0D6
:10387000BC01CD010E94C704DC01CB01FE01E45A6A
:10388000FF4F0190F081E02D8787908BA18BB28B49
:10389000C35ADF4F0FB6F894DEBF0FBECDBFCF9136
:1038A000DF911F910F910895EF92FF920F931F9355
:1038B000DF93CF93CDB7DEB727970FB6F894DEBF6F
:1038C0000FBECDBF9C838B837E836D8310923703A5
:1038D000198208C21A82FFC18A81282F30E08B81A9
:1038E0009C81FC01E20FF31F8081682F70E08981C9
:1038F000482F50E0CA01880F991F9C01220F331FE7
:10390000220F331F220F331F820F931F9C01240F9E
:10391000351F8D819E81280F391F8A81882F90E065
:10392000F901E80FF91F8081882F90E09B01281B87
:10393000390BC9013FEF843F93070CF4C9C18A8159
:10394000282F30E08B819C81FC01E20FF31F8081E6
:10395000682F70E08981482F50E0CA01880F991FB5
:103960009C01220F331F220F331F220F331F820FA0
:10397000931F9C01240F351F8D819E81280F391FB5
:103980008A81882F90E0F901E80FF91F8081882F44
:1039900090E09B01281B390BC9018D3091050CF07B
:1039A00097C18A81863009F093C18A81282F30E03F
:1039B0008B819C81FC01E20FF31F8081682F70E0F6
:1039C0008981482F50E0CA01880F991F9C01220F5E
:1039D000331F220F331F220F331F820F931F9C01AF
:1039E000240F351F8D819E81280F391F8A81882FD2
:1039F00090E0F901E80FF91F8081882F90E09B018A
:103A0000281B390BC9013FEF843F93070CF460C1B9
:103A10008A81282F30E08B819C81FC01E20FF31F0B
:103A20008081682F70E08981482F50E0CA01880F9B
:103A3000991F9C01220F331F220F331F220F331FA8
:103A4000820F931F9C01240F351F8D819E81280FAB
:103A5000391F8A81882F90E0F901E80FF91F8081D2
:103A6000882F90E09B01281B390BC9018D309105EF
:103A70000CF02EC1EB81FC81E780F084018512857A
:103A80008981482F50E0CA01880F991F9C01220F9D
:103A9000331F220F331F220F331F820F931F9C01EE
:103AA000240F351F8D819E81FC01E20FF31F2781BA
:103AB000308541855285C801B7010E94DF01DC01D4
:103AC000CB01BC01CD010E947304DC01CB013FEFAF
:103AD000883D93070CF4FCC0EB81FC81E780F08407
:103AE000018512858981482F50E0CA01880F991FEE
:103AF0009C01220F331F220F331F220F331F820F0F
:103B0000931F9C01240F351F8D819E81FC01E20FC4
:103B1000F31F2781308541855285C801B7010E9476
:103B2000DF01DC01CB01BC01CD010E947304DC018B
:103B3000CB01893291050CF0CBC0EB81FC81E38491
:103B4000F484058516858981482F50E0CA01880FC5
:103B5000991F9C01220F331F220F331F220F331F87
:103B6000820F931F9C01240F351F8D819E81FC01C4
:103B7000E20FF31F2385348545855685C801B701BB
:103B80000E94DF01DC01CB01BC01CD010E94730466
:103B9000DC01CB012FEF883D92070CF499C0EB813B
:103BA000FC81E384F484058516858981482F50E0E3
:103BB000CA01880F991F9C01220F331F220F331F48
:103BC000220F331F820F931F9C01240F351F8D81FD
:103BD0009E81FC01E20FF31F2385348545855685C0
:103BE000C801B7010E94DF01DC01CB01BC01CD019E
:103BF0000E947304DC01CB01893291050CF068C08E
:103C0000EB81FC81E784F088018912898981482F42
:103C100050E0CA01880F991F9C01220F331F220F09
:103C2000331F220F331F820F931F9C01240F351F58
:103C30008D819E81FC01E20FF31F27853089418928
:103C40005289C801B7010E94DF01DC01CB01BC0130
:103C5000CD010E947304DC01CB013FEF883D930747
:103C6000BCF1EB81FC81E784F088018912898981AC
:103C7000482F50E0CA01880F991F9C01220F331F63
:103C8000220F331F220F331F820F931F9C01240F1B
:103C9000351F8D819E81FC01E20FF31F278530893E
:103CA00041895289C801B7010E94DF01DC01CB01C3
:103CB000BC01CD010E947304DC01CB018932910566
:103CC0003CF489818F5F8093370381E08F830FC03D
:103CD0008A818F5F8A838A81873008F4FDCD89814C
:103CE0008F5F898389818A3008F4F4CD1F828F81A8
:103CF00027960FB6F894DEBF0FBECDBFCF91DF91F0
:103D00001F910F91FF90EF900895DF93CF9300D014
:103D1000CDB7DEB78FEC90E09A838983ABE2B0E059
:103D2000EBE2F0E0808182608C93AAE2B0E0EAE20C
:103D3000F0E0808188618C93E5E9F0E08EE080839B
:103D4000E9E2F0E089818083E0E9F0E089819A810D
:103D5000892F992780830F900F90CF91DF9108953D
:103D6000DF93CF930F92CDB7DEB78983EBE2F0E01C
:103D70008081882F90E0807290700097B9F3ECE218
:103D8000F0E0898180830F90CF91DF910895DF93D8
:103D9000CF9300D000D0CDB7DEB79B838A836C83EE
:103DA000198219820EC08981282F30E08A819B8177
:103DB000FC01E20FF31F80810E94B01E89818F5F9A
:103DC000898399818C81981770F30F900F900F90D1
:103DD0000F90CF91DF910895DF93CF93CDB7DEB7EA
:103DE000EBE2F0E080818823DCF7ECE2F0E0808118
:103DF000CF91DF9108952F923F924F925F926F92F1
:103E00007F928F929F92AF92BF92CF92DF92EF926A
:103E1000FF920F931F93CF93DF93CDB7DEB7CA1BEB
:103E2000DB0B0FB6F894DEBF0FBECDBF09942A8816
:103E3000398848885F846E847D848C849B84AA84BE
:103E4000B984C884DF80EE80FD800C811B81AA814B
:103E5000B981CE0FD11D0FB6F894DEBF0FBECDBF16
:103E6000ED010895FB019F01E8944230C4F0453212
:103E7000B4F44A3029F497FB1EF4909581959F4F36
:103E8000642F77270E94631F805D8A330CF0895D61
:103E90008193CB010097A1F716F45DE25193108254
:103EA000C9010C94531FDC01FC01672F719177232A
:103EB000E1F7329704C07C916D9370836291AE17E5
:103EC000BF07C8F30895AA1BBB1B51E107C0AA1F77
:103ED000BB1FA617B70710F0A61BB70B881F991FAB
:103EE0005A95A9F780959095BC01CD010895F89455
:023EF000FFCF02
:103EF200200054657374696E67204C43440043008C
:103F02004A0030003500476F6F6420616674657245
:103F12006E6F6F6E0070726F666573736F7273008F
:103F2200486F7065005468617420796F7500456E42
:103F32006A6F79004F75722073686F770000000016
:103F42000000000000000102020303030304040452
:103F52000404040404050505050505050505050514
:103F620005050505050606060606060606060606F4
:103F720006060606060606060606060606060606DF
:103F820006060606060707070707070707070707C4
:103F920007070707070707070707070707070707AF
:103FA200070707070707070707070707070707079F
:103FB200070707070707070707070707070707078F
:103FC2000707070707080808080808080808080874
:103FD200080808080808080808080808080808085F
:103FE200080808080808080808080808080808084F
:103FF200080808080808080808080808080808083F
:10400200080808080808080808080808080808082E
:10401200080808080808080808080808080808081E
:10402200080808080808080808080808080808080E
:1040320008080808080808080808080808080808FE
:1040420008080808087EFF0600000000EF7EFF0651
:1040520000000000EF7476737B739B730000C8C28C
:104062000000B24200004DC3755A54699B8A4F004A
:10407200005CC20000B2C2000052C3735E566258B6
:10408200995B0000A0C00000F841000068C38C8E5C
:10409200949B9AA2870000A0C00000B04100006774
:1040A200C3878F999C9A9E8200008EC200000FC324
:1040B200000031C3A2A0A4A99C8A9B0000ACC2004C
:1040C20000D04100005CC37692555D5B8393000093
:1040D20070C2000000C3000041C3938E868C94819D
:1040E2008D00001DC30000CAC2000021C374A05D80
:1040F200665A7A9A000077C3000080420000AEC27E
:1041020000000000000000000000000000000000AD
:0441120000000000A9
:00000001FF
