:100000000C942A000C9447000C9447000C94470071
:100010000C9447000C9447000C9447000C94470044
:100020000C9447000C9447000C9447000C94470034
:100030000C9447000C9447000C9447000C94470024
:100040000C9447000C9447000C9447000C94470014
:100050000C94470011241FBECFE5D8E0DEBFCDBF12
:1000600012E0A0E6B0E0ECEAF6E302C005900D92E3
:10007000A430B107D9F712E0A4E0B2E001C01D92AC
:10008000A232B107E1F70E9419110C94541B0C9491
:100090000000EF92FF920F931F937B018C0120E0F1
:1000A00030E040E05FE40E94F50388238CF0C80153
:1000B000B70120E030E040E05FE40E94C1010E940F
:1000C00085049B01AC01205030404040504806C0A0
:1000D000C801B7010E9485049B01AC01B901CA01A6
:1000E0001F910F91FF90EF900895A0E0B0E0EBE733
:1000F000F0E00C94D81ADC012B01FA019C919230AB
:1001000008F439C1EB018881823008F433C194309E
:1001100069F4843009F02FC111969C91119789815F
:10012000981709F428C1AAE6B0E025C1843009F483
:1001300021C18230A9F4923009F01DC19A01AD01AC
:1001400088E0EA010990AE01E90109929E0181501F
:10015000C1F7E201898111969C918923818308C1AD
:10016000923009F407C112962D903C901397EB0141
:100170008A819B811496AD90BD90CD90DC901797AD
:10018000EC80FD800E811F819101281B390BB90184
:1001900037FF04C066277727621B730B6032710537
:1001A0000CF061C0121613066CF537014801062EDB
:1001B00004C096948794779467940A94D2F721E0C8
:1001C00030E040E050E004C0220F331F441F551FB1
:1001D0006A95D2F721503040404050402E213F21B7
:1001E00040235123211531054105510521F021E01E
:1001F00030E040E050E079018A01E628F72808293C
:1002000019293CC0232BD1F1260E371E350146019A
:10021000062E04C096948794779467940A94D2F734
:1002200021E030E040E050E004C0220F331F441FC3
:10023000551F6A95D2F721503040404050402A2146
:100240003B214C215D21211531054105510521F04E
:1002500021E030E040E050E059016A01A628B728CB
:10026000C828D9280BC0821593052CF01C01AA249C
:10027000BB24650103C0EE24FF24870111969C91E5
:10028000D20111968C91981709F445C0992339F041
:10029000A80197012A193B094C095D0906C0A6016E
:1002A00095012E193F09400B510B57FD08C01182D3
:1002B0003382228224833583468357831DC081E0A5
:1002C00081833382228288279927DC01821B930B4A
:1002D000A40BB50B84839583A683B7830DC0220F2F
:1002E000331F441F551F24833583468357838281E0
:1002F000938101979383828324813581468157813D
:10030000DA01C9010197A109B1098F5F9F4FAF4F72
:10031000BF4328F30BC0918333822282EA0CFB1C7B
:100320000C1D1D1DE482F5820683178383E0808304
:10033000248135814681578157FF1AC0C901AA27F8
:1003400097FDA095BA2F81709070A070B0705695EF
:10035000479537952795822B932BA42BB52B848318
:100360009583A683B7838281938101969383828349
:10037000DF0101C0D201CD01CDB7DEB7E2E10C94BF
:10038000F41AA0E2B0E0E7ECF1E00C94E41A69831F
:100390007A838B839C832D833E834F835887E9E048
:1003A000EE2EF12CEC0EFD1ECE010196B7010E943F
:1003B00076068E010F5E1F4FCE010596B8010E9492
:1003C00076068A8991E089278A8BC701B801AE0138
:1003D000475E5F4F0E9475000E94A105A096E6E06F
:1003E0000C94001BA0E2B0E0E8EFF1E00C94E41AFA
:1003F00069837A838B839C832D833E834F835887C5
:10040000F9E0EF2EF12CEC0EFD1ECE010196B701A6
:100410000E9476068E010F5E1F4FCE010596B80131
:100420000E947606C701B801AE01475E5F4F0E9489
:1004300075000E94A105A096E6E00C94001BA0E2C6
:10044000B0E0E5E2F2E00C94D81A69837A838B83FA
:100450009C832D833E834F835887CE010196BE0136
:10046000675F7F4F0E947606CE010596BE016F5EE4
:100470007F4F0E9476069985923088F08989823074
:10048000C8F0943019F4823051F404C0843029F457
:10049000923081F48AE690E0C6C0923049F420E0C0
:1004A0009A858A89981321E02A87CE010996BBC0D4
:1004B000823049F420E09A858A89981321E02A8BBA
:1004C000CE014196B0C02D843E844F8458886D88FB
:1004D0007E888F88988CEE24FF248701AA24BB2471
:1004E000650140E050E060E070E0E0E0F0E0C10174
:1004F00081709070892BE9F0E60CF71C081D191D1E
:100500009A01AB012A0D3B1D4C1D5D1D80E090E062
:10051000A0E0B0E0E614F7040805190520F481E036
:1005200090E0A0E0B0E0BA01A901480F591F6A1F8E
:100530007B1FAA0CBB1CCC1CDD1C97FE08C081E0F5
:1005400090E0A0E0B0E0A82AB92ACA2ADB2A3196B6
:10055000E032F10549F0660C771C881C991C569412
:10056000479437942794C3CFFA85EA892B893C892D
:100570008B859C85280F391F2E5F3F4F17C0CA01FE
:1005800081709070892B61F016950795F794E79428
:1005900080E090E0A0E0B0E8E82AF92A0A2B1B2BC3
:1005A00076956795579547952F5F3F4F77FDE7CF36
:1005B0000CC0440F551F661F771F17FD4160EE0CDE
:1005C000FF1C001F111F21503040403090E05907A0
:1005D00090E0690790E4790760F32B8F3C8FDB0193
:1005E000CA018F779070A070B07080349105A1051A
:1005F000B10561F447FD0AC0E114F10401051105DC
:1006000029F0405C5F4F6F4F7F4F40781A8EFE1786
:1006100011F081E08A8F4D8F5E8F6F8F78A383E01A
:10062000898FCE0149960E94A105A096E2E10C9423
:10063000F41AA8E1B0E0EFE1F3E00C94E01A69836A
:100640007A838B839C832D833E834F835887B9E0C5
:10065000EB2EF12CEC0EFD1ECE010196B7010E948F
:1006600076068E010F5E1F4FCE010596B8010E94DF
:1006700076062985223008F47EC03989323010F49C
:10068000B8017CC08A859A8989278A87243011F02D
:10069000223031F4231709F06EC06AE670E06EC0B4
:1006A000343039F41D861E861F86188A1C861B86E8
:1006B00004C0323021F484E08987B7015FC02B8504
:1006C0003C858B899C89281B390B3C872B87ED84C3
:1006D000FE840F851889AD88BE88CF88D88CEA142F
:1006E000FB040C051D0540F4EE0CFF1C001F111F40
:1006F000215030403C872B8720E030E040E050E044
:1007000080E090E0A0E0B0E460E070E0EA14FB0478
:100710000C051D0540F0282B392B4A2B5B2BEA18C2
:10072000FB080C091D09B695A79597958795EE0CC2
:10073000FF1C001F111F6F5F7F4F6F31710531F775
:10074000DA01C9018F779070A070B0708034910584
:10075000A105B10561F427FD0AC0E114F10401050A
:10076000110529F0205C3F4F4F4F5F4F20782D87B8
:100770003E874F87588BBE01675F7F4FCB010E943A
:10078000A1056896EAE00C94FC1AA8E1B0E0EBEC55
:10079000F3E00C94E41A69837A838B839C832D8322
:1007A0003E834F83588789E0E82EF12CEC0EFD1E26
:1007B000CE010196B7010E9476068E010F5E1F4F93
:1007C000CE010596B8010E9476068985823040F0F8
:1007D0008989823028F0C701B8010E94EE0601C065
:1007E0008FEF6896E6E00C94001BA8E1B0E0EBEF19
:1007F000F3E00C94E41A69837A838B839C832D83C2
:100800003E834F83588789E0E82EF12CEC0EFD1EC5
:10081000CE010196B7010E9476068E010F5E1F4F32
:10082000CE010596B8010E9476068985823040F097
:100830008989823028F0C701B8010E94EE0601C004
:100840008FEF6896E6E00C94001BA8E1B0E0EBE2C5
:10085000F4E00C94E41A69837A838B839C832D8360
:100860003E834F83588789E0E82EF12CEC0EFD1E65
:10087000CE010196B7010E9476068E010F5E1F4FD2
:10088000CE010596B8010E9476068985823040F037
:100890008989823028F0C701B8010E94EE0601C0A4
:1008A00081E06896E6E00C94001BA8E1B0E0EBE57F
:1008B000F4E00C94E41A69837A838B839C832D8300
:1008C0003E834F83588789E0E82EF12CEC0EFD1E05
:1008D000CE010196B7010E9476068E010F5E1F4F72
:1008E000CE010596B8010E9476068985823040F0D7
:1008F0008989823028F0C701B8010E94EE0601C044
:1009000081E06896E6E00C94001BACE0B0E0EBE818
:10091000F4E00C94E81A69837A838B839C83CE017C
:100920000196BE016B5F7F4F0E9476068D818230FB
:1009300061F1823050F1843021F48E81882351F1AD
:100940002EC02F81388537FD20C06E812F313105B3
:100950001CF06623F9F023C08EE190E0821B930B1C
:1009600029853A854B855C8504C056954795379512
:1009700027958A95D2F76623B1F05095409530952A
:1009800021953F4F4F4F5F4F0EC020E030E040E0D9
:1009900050E009C02FEF3FEF4FEF5FE704C020E0CA
:1009A00030E040E050E8B901CA012C96E2E00C9436
:1009B000041BA8E0B0E0EFEDF4E00C94E01A7B013A
:1009C0008C01611571058105910519F482E0898317
:1009D00060C083E089838EE1C82ED12CDC82CB827B
:1009E000ED82FE820F831887C801B7010E9452056D
:1009F000FC013197F7FF3BC0222733272E1B3F0B0B
:100A000057016801022E04C0D694C794B794A794E6
:100A10000A94D2F740E050E060E070E081E090E0BE
:100A2000A0E0B0E004C0880F991FAA1FBB1F2A9541
:100A3000D2F70197A109B1098E219F21A023B123EB
:100A40000097A105B10521F041E050E060E070E0C1
:100A50004A295B296C297D294D835E836F837887C2
:100A60008EE190E08E1B9F0B9C838B8312C030978E
:100A700081F00E2E04C0EE0CFF1C001F111F0A9403
:100A8000D2F7ED82FE820F831887CE1ADF0ADC824E
:100A9000CB821A82CE0101960E94A1052896EAE037
:100AA0000C94FC1AEF92FF920F931F937B018C0121
:100AB00080E0E81680E0F80681E0080780E018078B
:100AC00088F48FEFE816F1040105110531F028F0E4
:100AD00088E090E0A0E0B0E017C080E090E0A0E007
:100AE000B0E012C080E0E81680E0F80680E0080779
:100AF00081E0180728F088E190E0A0E0B0E004C0B1
:100B000080E190E0A0E0B0E020E230E040E050E0A2
:100B1000281B390B4A0B5B0B04C016950795F794FD
:100B2000E7948A95D2F7F701EE58FF4F8081281B92
:100B3000310941095109C9011F910F91FF90EF90AF
:100B40000895DF92EF92FF920F931F93FC01E480D0
:100B5000F58006811781D1808081823048F480E061
:100B600090E0A0E1B0E0E82AF92A0A2B1B2BA5C0EF
:100B7000843009F49FC0823021F4EE24FF248701E1
:100B800005C0E114F1040105110519F4E0E0F0E0FD
:100B900096C0628173819FEF623879070CF05BC069
:100BA00022E83FEF261B370B2A3131052CF020E0DD
:100BB00030E040E050E02AC0B801A701022E04C096
:100BC00076956795579547950A94D2F781E090E01E
:100BD000A0E0B0E004C0880F991FAA1FBB1F2A9590
:100BE000D2F70197A109B1098E219F21A023B1233A
:100BF0000097A105B10521F081E090E0A0E0B0E010
:100C00009A01AB01282B392B4A2B5B2BDA01C90146
:100C10008F779070A070B07080349105A105B105F8
:100C200039F427FF09C0205C3F4F4F4F5F4F04C08E
:100C3000215C3F4F4F4F5F4FE0E0F0E02030A0E0FD
:100C40003A07A0E04A07A0E45A0710F0E1E0F0E01C
:100C500079018A0127C06038710564F5FB01E1580C
:100C6000FF4FD801C7018F779070A070B0708034AB
:100C70009105A105B10539F4E7FE0DC080E490E0CF
:100C8000A0E0B0E004C08FE390E0A0E0B0E0E80EA8
:100C9000F91E0A1F1B1F17FF05C016950795F7942D
:100CA000E794319687E016950795F794E7948A952F
:100CB000D1F705C0EE24FF248701EFEFF0E06E2F9F
:100CC000679566276795902F9F77D794DD24D794F3
:100CD0008E2F8695492F462B582F5D29B701CA01C3
:100CE0001F910F91FF90EF90DF900895FC01DB01C1
:100CF000408151812281622F6F7770E0221F22276D
:100D0000221F9381892F880F822B282F30E0991F73
:100D10009927991F11969C93119721153105A9F5D3
:100D2000411551056105710511F482E037C082E873
:100D30009FEF13969C938E9312979A01AB0167E0F5
:100D4000220F331F441F551F6A95D1F783E08C9300
:100D50000DC0220F331F441F551F12968D919C9179
:100D60001397019713969C938E931297203080E0EF
:100D7000380780E0480780E4580758F314962D930D
:100D80003D934D935C93179708952F3F310579F468
:100D9000411551056105710519F484E08C9308959E
:100DA00064FF03C081E08C9312C01C9210C02F57C7
:100DB000304013963C932E93129783E08C9387E0F8
:100DC000440F551F661F771F8A95D1F770641496DC
:100DD0004D935D936D937C93179708951F93DC015A
:100DE000FB019C91923008F447C08081823008F466
:100DF00043C0943051F411961C91843099F581814F
:100E0000682F70E0611B71093FC0843021F092307F
:100E100031F48230B9F18181882389F12DC0119696
:100E20001C9111978230F1F081811817D9F4129634
:100E30002D913C911397828193818217930794F0AF
:100E400028173907BCF014968D919D910D90BC9197
:100E5000A02D2481358146815781281739074A07FB
:100E60005B0718F4112341F00AC082179307A40707
:100E7000B50740F4112319F061E070E005C06FEF91
:100E80007FEF02C060E070E0CB011F910895DF9317
:100E9000CF93CDB7DEB7A6E2B0E0E6E2F0E0808126
:100EA00087688C93A7E2B0E0E7E2F0E0808180669B
:100EB0008C93CF91DF910895DF93CF9300D00F9261
:100EC000CDB7DEB78B83A7E2B0E0E7E2F0E0808148
:100ED00088778C93A7E2B0E0E7E2F0E08081982F7A
:100EE0008B818770892B8C93A6E2B0E0E6E2F0E07C
:100EF000808180648C93E6E2F0E08081882F90E02E
:100F0000807490700097B9F7E5E2F0E08081882F57
:100F100090E09A838983A6E2B0E0E6E2F0E0808187
:100F200080618C9389819A810F900F900F90CF915F
:100F3000DF910895DF93CF93CDB7DEB72F970FB62C
:100F4000F894DEBF0FBECDBF1F861AC08F85882FD5
:100F500090E0FC01E658FE4F80810E948D1A8F853B
:100F6000282F30E08F85882F90E0FC01EE58FE4F4F
:100F70008081F901E658FE4F80838F858F5F8F87D0
:100F80008F85883018F380E090E0A8ECB2E48B877E
:100F90009C87AD87BE876B857C858D859E8520E08F
:100FA00030E84BE355E40E941F02DC01CB018F8344
:100FB0009887A987BA876F81788589859A8520E087
:100FC00030E040E85FE30E94250488232CF481E0B0
:100FD00090E09E838D833FC06F81788589859A8557
:100FE00020E03FEF4FE757E40E94C50318164CF589
:100FF0006B857C858D859E8520E030E040E251E464
:101000000E941F02DC01CB01BC01CD010E944900FE
:10101000DC01CB019E838D830FC08CE291E09C8329
:101020008B838B819C810197F1F79C838B838D81CE
:101030009E8101979E838D838D819E81009769F7A4
:1010400014C06F81788589859A850E944900DC01EA
:10105000CB019E838D838D819E819A838983898133
:101060009A810197F1F79A8389832F960FB6F894A6
:10107000DEBF0FBECDBFCF91DF910895DF93CF9339
:10108000CDB7DEB78AE180937D010E949A07CF91A8
:10109000DF910895DF93CF9300D0CDB7DEB79A8369
:1010A000898383E080937D0189819A818F3F9105B7
:1010B00009F020F48981809380010BC0898180939D
:1010C00080018981882F90E0892F990F990B809357
:1010D0007F010E949A070F900F90CF91DF910895A2
:1010E000DF93CF930F92CDB7DEB7898389818F319C
:1010F00010F08EE1898386E080937D018981809361
:1011000080010E949A070F90CF91DF910895DF939D
:10111000CF930F92CDB7DEB7898388E080937D01AE
:101120008981809380010E949A070F90CF91DF916F
:101130000895DF93CF93CDB7DEB78EE080937D0126
:101140000E949A07CF91DF910895DF93CF93CDB797
:10115000DEB786E180937D010E949A07CF91DF91EF
:101160000895DF93CF93CDB7DEB78DE080937D01F7
:101170000E949A07CF91DF910895DF93CF93CDB767
:10118000DEB78CE080937D010E949A07CF91DF91BA
:101190000895DF93CF9300D0CDB7DEB79A838983CC
:1011A0000E9499088EE10E94700889819A810E94AC
:1011B0004A080F900F90CF91DF9108950F931F93DE
:1011C000DF93CF93CDB7DEB729970FB6F894DEBF84
:1011D0000FBECDBF89836A832B833C834D835E839F
:1011E0000F83E2E2F0E08F81880F80838981282FCE
:1011F00030E039872887888599858130910509F401
:1012000045C0E885F985E230F10534F42885398553
:101210002115310571F0E8C08885998582309105E6
:1012200009F465C0E885F985E330F10509F49AC051
:10123000DBC000E210E06B817C818D819E810E9489
:10124000D9049B01AC01CA01B9010E94F201DC0181
:10125000CB019C01AD0160E07BE187E39BE40E9450
:101260001903DC01CB01BC01CD0120E030E040E0FE
:1012700051E40E94C101DC01CB01BC01CD010E94FF
:101280004900DC01CB01F8018083AEC000E210E030
:101290006B817C818D819E810E94D904DC01CB0110
:1012A000BC01CD0120E030E040E051E40E941F028B
:1012B000DC01CB019C01AD0160E07BE187E39BE4B5
:1012C0000E941903DC01CB01BC01CD0120E030E01C
:1012D00040E050E40E94C101DC01CB01BC01CD0122
:1012E0000E944900DC01CB01F80180837DC000E24F
:1012F00010E08B819C81AD81BE81880F991FAA1F50
:10130000BB1F880F991FAA1FBB1F880F991FAA1FF9
:10131000BB1F880F991FAA1FBB1F880F991FAA1FE9
:10132000BB1FBC01CD010E94D9049B01AC0160E050
:101330007BE187E39BE40E941903DC01CB01BC0144
:10134000CD0120E030E040E05FE30E94C101DC011C
:10135000CB01BC01CD010E944900DC01CB01F801A9
:10136000808342C000E210E08B819C81AD81BE8110
:10137000880F991FAA1FBB1F880F991FAA1FBB1F89
:10138000880F991FAA1FBB1F880F991FAA1FBB1F79
:10139000880F991FAA1FBB1F880F991FAA1FBB1F69
:1013A000880F991FAA1FBB1FBC01CD010E94D90441
:1013B0009B01AC0160E07BE187E39BE40E941903A1
:1013C000DC01CB01BC01CD0120E030E040E05EE378
:1013D0000E94C101DC01CB01BC01CD010E9449008A
:1013E000DC01CB01F8018083A1E2B0E0E1E2F0E0B2
:1013F0008081982F89818370892B8C93A6E5B0E03A
:10140000E6E5F0E08081982F8A8181708460892BE5
:101410008C9329960FB6F894DEBF0FBECDBFCF9147
:10142000DF911F910F910895DF93CF93CDB7DEB772
:10143000E6E5F0E084EA8083E6E5F0E08081882359
:10144000DCF7CF91DF910895DF93CF93CDB7DEB76F
:10145000E6E5F0E084E98083CF91DF910895DF93A2
:10146000CF930F92CDB7DEB78983E3E2F0E08981B5
:101470008083E6E5F0E084E88083E6E5F0E08081C3
:101480008823DCF70F90CF91DF910895DF93CF93FE
:10149000CDB7DEB7E6E5F0E084EC8083E6E5F0E08A
:1014A00080818823DCF7E3E2F0E08081CF91DF9157
:1014B0000895DF93CF93CDB7DEB7E6E5F0E084E89B
:1014C0008083E6E5F0E080818823DCF7E3E2F0E06A
:1014D0008081CF91DF910895DF93CF93CDB7DEB7B1
:1014E000E1E2F0E08081887FCF91DF910895DF9382
:1014F000CF9300D00F92CDB7DEB789836A834B8339
:101500000E94140A0E946C0A883019F00E94240A72
:1015100021C08981880F0E942F0A0E946C0A88319D
:1015200019F00E94240A16C08A810E942F0A0E9484
:101530006C0A883219F00E94240A0CC08B810E9428
:101540002F0A0E946C0A883219F00E94240A02C0F5
:101550000E94240A0F900F900F90CF91DF91089571
:10156000DF93CF9300D000D0CDB7DEB78A836B83F3
:1015700019820E94140A0E946C0A883029F00E9485
:10158000240A81E08C833CC08A81880F0E942F0A44
:101590000E946C0A883129F00E94240A82E08C8320
:1015A0002FC08B810E942F0A0E946C0A883229F07A
:1015B0000E94240A83E08C8323C00E94140A0E94A4
:1015C0006C0A803129F00E94240A84E08C8318C0C0
:1015D0008A81882F90E0880F991F81600E942F0ACE
:1015E0000E946C0A803429F00E94240A85E08C83D2
:1015F00007C00E94590A89830E94240A89818C832A
:101600008C810F900F900F900F90CF91DF910895E4
:10161000DF93CF93CDB7DEB7E8970FB6F894DEBF70
:101620000FBECDBF80E090E0A0E2B2E48DAB9EABF8
:10163000AFABB8AF6DA97EA98FA998AD20E030E817
:101640004BE355E40E941F02DC01CB0189AB9AAB4E
:10165000ABABBCAB69A97AA98BA99CA920E030E00F
:1016600040E85FE30E94250488232CF481E090E0A9
:1016700098AB8FA73FC069A97AA98BA99CA920E044
:101680003FEF4FE757E40E94C50318164CF56DA9CC
:101690007EA98FA998AD20E030E040E251E40E949D
:1016A0001F02DC01CB01BC01CD010E944900DC011D
:1016B000CB0198AB8FA70FC08CE291E09EA78DA7BE
:1016C0008DA59EA50197F1F79EA78DA78FA598A937
:1016D000019798AB8FA78FA598A9009769F714C0B9
:1016E00069A97AA98BA99CA90E944900DC01CB01B8
:1016F00098AB8FA78FA598A99CA78BA78BA59CA516
:101700000197F1F79CA78BA78CE30E94EC0C80E07B
:1017100090E0A0E4B0E48FA398A7A9A7BAA76FA10F
:1017200078A589A59AA520E030E84BE355E40E940E
:101730001F02DC01CB018BA39CA3ADA3BEA36BA1B5
:101740007CA18DA19EA120E030E040E85FE30E94F3
:10175000250488232CF481E090E09AA389A33FC05C
:101760006BA17CA18DA19EA120E03FEF4FE757E444
:101770000E94C50318164CF56FA178A589A59AA5F6
:1017800020E030E040E251E40E941F02DC01CB0186
:10179000BC01CD010E944900DC01CB019AA389A3C1
:1017A0000FC08CE291E098A38F8F8F8D98A1019745
:1017B000F1F798A38F8F89A19AA101979AA389A382
:1017C00089A19AA1009769F714C06BA17CA18DA192
:1017D0009EA10E944900DC01CB019AA389A389A1A3
:1017E0009AA19E8F8D8F8D8D9E8D0197F1F79E8F83
:1017F0008D8F8CE00E94EC0C80E090E0A0E4B0E4DF
:10180000898F9A8FAB8FBC8F698D7A8D8B8D9C8DD4
:1018100020E030E84BE355E40E941F02DC01CB01DD
:101820008D8B9E8BAF8BB88F6D897E898F89988DBC
:1018300020E030E040E85FE30E94250488232CF498
:1018400081E090E09C8B8B8B3FC06D897E898F8976
:10185000988D20E03FEF4FE757E40E94C50318162C
:101860004CF5698D7A8D8B8D9C8D20E030E040E2C7
:1018700051E40E941F02DC01CB01BC01CD010E949A
:101880004900DC01CB019C8B8B8B0FC08CE291E07B
:101890009A8B898B89899A890197F1F79A8B898B21
:1018A0008B899C8901979C8B8B8B8B899C8900975A
:1018B00069F714C06D897E898F89988D0E944900CF
:1018C000DC01CB019C8B8B8B8B899C89988B8F87C0
:1018D0008F8598890197F1F7988B8F8781E00E9417
:1018E000EC0C80E090E0A0E4B0E48B879C87AD87AF
:1018F000BE876B857C858D859E8520E030E84BE337
:1019000055E40E941F02DC01CB018F839887A987D1
:10191000BA876F81788589859A8520E030E040E834
:101920005FE30E94250488232CF481E090E09E83ED
:101930008D833FC06F81788589859A8520E03FEF50
:101940004FE757E40E94C50318164CF56B857C855C
:101950008D859E8520E030E040E251E40E941F0228
:10196000DC01CB01BC01CD010E944900DC01CB01AF
:101970009E838D830FC08CE291E09C838B838B814F
:101980009C810197F1F79C838B838D819E810197C8
:101990009E838D838D819E81009769F714C06F812E
:1019A000788589859A850E944900DC01CB019E8358
:1019B0008D838D819E819A83898389819A81019704
:1019C000F1F79A838983E8960FB6F894DEBF0FBECD
:1019D000CDBFCF91DF910895DF93CF93CDB7DEB721
:1019E0002F970FB6F894DEBF0FBECDBF8F87A8E349
:1019F000B0E0E8E3F0E080818E7F8C93A8E3B0E074
:101A0000E8E3F0E080818D7F8C93A8E3B0E0E8E329
:101A1000F0E080818B7F8C93E2E3F0E08F85808320
:101A2000A8E3B0E0E8E3F0E0808181608C9380E09F
:101A300090E0A0E0B0E48B879C87AD87BE876B8584
:101A40007C858D859E8520E030E84BE355E40E943F
:101A50001F02DC01CB018F839887A987BA876F812A
:101A6000788589859A8520E030E040E85FE30E9430
:101A7000250488232CF481E090E09E838D833FC071
:101A80006F81788589859A8520E03FEF4FE757E49D
:101A90000E94C50318164CF56B857C858D859E8547
:101AA00020E030E040E251E40E941F02DC01CB0163
:101AB000BC01CD010E944900DC01CB019E838D83D6
:101AC0000FC08CE291E09C838B838B819C8101977A
:101AD000F1F79C838B838D819E8101979E838D83FB
:101AE0008D819E81009769F714C06F817885898503
:101AF0009A850E944900DC01CB019E838D838D81F4
:101B00009E819A83898389819A810197F1F79A83CB
:101B10008983A8E3B0E0E8E3F0E080818E7F8C93D6
:101B20002F960FB6F894DEBF0FBECDBFCF91DF91D9
:101B30000895DF93CF93CDB7DEB781E00E94EC0C20
:101B4000CF91DF910895DF93CF93CDB7DEB72F9775
:101B50000FB6F894DEBF0FBECDBF8F87A8E3B0E00D
:101B6000E8E3F0E080818E7F8C93A8E3B0E0E8E3C7
:101B7000F0E080818D7F8C93A8E3B0E0E8E3F0E0B3
:101B8000808184608C93E2E3F0E08F858083A8E31A
:101B9000B0E0E8E3F0E0808181608C9380E090E049
:101BA000A0E0B0E48B879C87AD87BE876B857C8582
:101BB0008D859E8520E030E84BE355E40E941F02AE
:101BC000DC01CB018F839887A987BA876F817885DD
:101BD00089859A8520E030E040E85FE30E94250493
:101BE00088232CF481E090E09E838D833FC06F8139
:101BF000788589859A8520E03FEF4FE757E40E947A
:101C0000C50318164CF56B857C858D859E8520E077
:101C100030E040E251E40E941F02DC01CB01BC0134
:101C2000CD010E944900DC01CB019E838D830FC052
:101C30008CE291E09C838B838B819C810197F1F7EF
:101C40009C838B838D819E8101979E838D838D8163
:101C50009E81009769F714C06F81788589859A8580
:101C60000E944900DC01CB019E838D838D819E8182
:101C70009A83898389819A810197F1F79A8389836D
:101C8000A8E3B0E0E8E3F0E080818E7F8C932F96AC
:101C90000FB6F894DEBF0FBECDBFCF91DF91089590
:101CA000DF93CF93CDB7DEB761970FB6F894DEBF61
:101CB0000FBECDBF998B888B1F8680C08F85282F44
:101CC00030E088899989FC01E20FF31F80810E942E
:101CD000A30D8F858F5F8F8780E090E0A0E0B0E458
:101CE0008B879C87AD87BE876B857C858D859E8520
:101CF00020E030E84BE355E40E941F02DC01CB01F9
:101D00008F839887A987BA876F81788589859A8517
:101D100020E030E040E85FE30E94250488232CF4B3
:101D200081E090E09E838D833FC06F8178858985B7
:101D30009A8520E03FEF4FE757E40E94C50318164D
:101D40004CF56B857C858D859E8520E030E040E2FA
:101D500051E40E941F02DC01CB01BC01CD010E94B5
:101D60004900DC01CB019E838D830FC08CE291E0A2
:101D70009C838B838B819C810197F1F79C838B8360
:101D80008D819E8101979E838D838D819E81009799
:101D900069F714C06F81788589859A850E9449000A
:101DA000DC01CB019E838D838D819E819A83898303
:101DB00089819A810197F1F79A8389838F85282FEA
:101DC00030E088899989FC01E20FF31F8081882324
:101DD00009F074CF61960FB6F894DEBF0FBECDBF89
:101DE000CF91DF910895DF93CF93CDB7DEB764979E
:101DF0000FB6F894DEBF0FBECDBF8B8B6C8B80E827
:101E00008F8780EC888B84E9898B84ED8A8B8C8921
:101E1000882F90E09C0121503040CE010F96FC01AC
:101E2000E20FF31F90818B89890F81500E94EC0C87
:101E300080E090E0A0E8BFE38B879C87AD87BE87FA
:101E40006B857C858D859E8520E030E84BE355E4ED
:101E50000E941F02DC01CB018F839887A987BA8774
:101E60006F81788589859A8520E030E040E85FE3DE
:101E70000E94250488232CF481E090E09E838D83CA
:101E80003FC06F81788589859A8520E03FEF4FE7D5
:101E900057E40E94C50318164CF56B857C858D852B
:101EA0009E8520E030E040E251E40E941F02DC0108
:101EB000CB01BC01CD010E944900DC01CB019E8316
:101EC0008D830FC08CE291E09C838B838B819C81FE
:101ED0000197F1F79C838B838D819E8101979E836F
:101EE0008D838D819E81009769F714C06F817885FD
:101EF00089859A850E944900DC01CB019E838D83F0
:101F00008D819E819A83898389819A810197F1F7D6
:101F10009A83898364960FB6F894DEBF0FBECDBF57
:101F2000CF91DF910895DF93CF93CDB7DEB72E9792
:101F30000FB6F894DEBF0FBECDBF80E10E94EC0C5F
:101F400080E090E0A0E8BFE38B879C87AD87BE87E9
:101F50006B857C858D859E8520E030E84BE355E4DC
:101F60000E941F02DC01CB018F839887A987BA8763
:101F70006F81788589859A8520E030E040E85FE3CD
:101F80000E94250488232CF481E090E09E838D83B9
:101F90003FC06F81788589859A8520E03FEF4FE7C4
:101FA00057E40E94C50318164CF56B857C858D851A
:101FB0009E8520E030E040E251E40E941F02DC01F7
:101FC000CB01BC01CD010E944900DC01CB019E8305
:101FD0008D830FC08CE291E09C838B838B819C81ED
:101FE0000197F1F79C838B838D819E8101979E835E
:101FF0008D838D819E81009769F714C06F817885EC
:1020000089859A850E944900DC01CB019E838D83DE
:102010008D819E819A83898389819A810197F1F7C5
:102020009A8389832E960FB6F894DEBF0FBECDBF7C
:10203000CF91DF910895DF93CF93CDB7DEB72E9781
:102040000FB6F894DEBF0FBECDBF84E10E94EC0C4A
:1020500080E090E0A0E8BFE38B879C87AD87BE87D8
:102060006B857C858D859E8520E030E84BE355E4CB
:102070000E941F02DC01CB018F839887A987BA8752
:102080006F81788589859A8520E030E040E85FE3BC
:102090000E94250488232CF481E090E09E838D83A8
:1020A0003FC06F81788589859A8520E03FEF4FE7B3
:1020B00057E40E94C50318164CF56B857C858D8509
:1020C0009E8520E030E040E251E40E941F02DC01E6
:1020D000CB01BC01CD010E944900DC01CB019E83F4
:1020E0008D830FC08CE291E09C838B838B819C81DC
:1020F0000197F1F79C838B838D819E8101979E834D
:102100008D838D819E81009769F714C06F817885DA
:1021100089859A850E944900DC01CB019E838D83CD
:102120008D819E819A83898389819A810197F1F7B4
:102130009A8389832E960FB6F894DEBF0FBECDBF6B
:10214000CF91DF910895DF93CF9300D000D0CDB72A
:10215000DEB789836A835C834B8389816A810E94AD
:10216000F30E8B819C810E94500E0F900F900F9068
:102170000F90CF91DF910895EF92FF920F931F93ED
:10218000DF93CF93CDB7DEB729970FB6F894DEBFB4
:102190000FBECDBF8B836C835E834D832F830DB7C2
:1021A0001EB78DB79EB77C018F81882F90E02DB729
:1021B0003EB7281B390B0FB6F8943EBF0FBE2DBF9C
:1021C0008DB79EB7019699878887888599850096EF
:1021D00099878887288539853A8329838D819E81CF
:1021E00029813A81B9014AE050E00E940F1B298100
:1021F0003A818B816C81A9010E94A31080E690E056
:102200000E94500E0FB6F894FEBE0FBEEDBE0FB684
:10221000F8941EBF0FBE0DBF29960FB6F894DEBF0F
:102220000FBECDBFCF91DF911F910F91FF90EF9027
:1022300008950F931F93DF93CF93CDB7DEB7C854A4
:10224000D0400FB6F894DEBF0FBECDBFE4E3F0E0A0
:102250008FEF8083E1E3F0E08FEF8083E7E3F0E04E
:102260008FEF80830E94080B81E00E94EC0C82E6D5
:1022700090E00E94500E82E40E94A30DFE01ED5BEF
:10228000FF4F80E090E0AAEFB3E480839183A283C4
:10229000B3838E01015C1F4FFE01ED5BFF4F608138
:1022A00071818281938120E030E84BE355E40E9404
:1022B0001F02DC01CB01F80180839183A283B383E9
:1022C000FE01FF96608171818281938120E030E080
:1022D00040E85FE30E94250488232CF481E090E02D
:1022E0009EAF8DAF46C0FE01FF96608171818281F5
:1022F000938120E03FEF4FE757E40E94C503181693
:1023000064F5FE01ED5BFF4F6081718182819381F5
:1023100020E030E040E251E40E941F02DC01CB01EA
:10232000BC01CD010E944900DC01CB019EAF8DAF05
:102330000FC08CE291E09CAF8BAF8BAD9CAD019751
:10234000F1F79CAF8BAF8DAD9EAD01979EAF8DAF7A
:102350008DAD9EAD009769F716C0FE01FF966081B6
:102360007181828193810E944900DC01CB019EAF83
:102370008DAF8DAD9EAD9AAF89AF89AD9AAD019706
:10238000F1F79AAF89AF80E060E020E83AE146E0FB
:1023900050E001E00E94DE0888E063E50E945E16DE
:1023A0000E943E080E94470784E092E00E94851444
:1023B00026E132E083E5B9010E94831684E092E0D1
:1023C0002CE831E0B9010E944215882309F437C294
:1023D00080910902282F30E029963FAF2EAF299730
:1023E00029968EAD9FAD29978230910509F4A1C041
:1023F0002996EEADFFAD2997E330F10544F4299617
:102400002EAD3FAD29972130310591F0CDCF2996E2
:102410008EAD9FAD29978330910509F40CC12996A3
:10242000EEADFFAD2997E430F10509F486C1BCCFCC
:10243000E5E3F0E081E0808381E00E94EC0C81E440
:102440000E94A30D81E090E00E94C90880E090E026
:10245000AAE7B4E48DAB9EABAFABB8AF6DA97EA9D4
:102460008FA998AD20E030E84BE355E40E941F02AD
:10247000DC01CB0189AB9AABABABBCAB69A97AA948
:102480008BA99CA920E030E040E85FE30E9425048E
:1024900088232CF481E090E098AB8FA73FC069A916
:1024A0007AA98BA99CA920E03FEF4FE757E40E944F
:1024B000C50318164CF56DA97EA98FA998AD20E02B
:1024C00030E040E251E40E941F02DC01CB01BC017C
:1024D000CD010E944900DC01CB0198AB8FA70FC052
:1024E0008CE291E09EA78DA78DA59EA50197F1F79F
:1024F0009EA78DA78FA598A9019798AB8FA78FA5A9
:1025000098A9009769F750CF69A97AA98BA99CA9C6
:102510000E944900DC01CB0198AB8FA78FA598A939
:102520009CA78BA78BA59CA50197F1F79CA78BA7D0
:102530003BCFE5E3F0E082E0808381E00E94EC0C99
:1025400084E690E00E94500E82E090E00E94C9086C
:1025500080E090E0AAEFB3E48FA398A7A9A7BAA759
:102560006FA178A589A59AA520E030E84BE355E452
:102570000E941F02DC01CB018BA39CA3ADA3BEA3D1
:102580006BA17CA18DA19EA120E030E040E85FE33B
:102590000E94250488232CF481E090E09AA389A36B
:1025A0003FC06BA17CA18DA19EA120E03FEF4FE732
:1025B00057E40E94C50318164CF56FA178A589A5AC
:1025C0009AA520E030E040E251E40E941F02DC01C5
:1025D000CB01BC01CD010E944900DC01CB019AA3D3
:1025E00089A30FC08CE291E098A38F8F8F8D98A163
:1025F0000197F1F798A38F8F89A19AA101979AA3C8
:1026000089A389A19AA1009769F7CECE6BA17CA17D
:102610008DA19EA10E944900DC01CB019AA389A350
:1026200089A19AA19E8F8D8F8D8D9E8D0197F1F737
:102630009E8F8D8FB9CEE5E3F0E084E0808381E06A
:102640000E94EC0C86E690E00E94500E83E090E041
:102650000E94C90880E090E0AAEFB3E4898F9A8FC6
:10266000AB8FBC8F698D7A8D8B8D9C8D20E030E88F
:102670004BE355E40E941F02DC01CB018D8B9E8B46
:10268000AF8BB88F6D897E898F89988D20E030E07F
:1026900040E85FE30E94250488232CF481E090E069
:1026A0009C8B8B8B3FC06D897E898F89988D20E0B4
:1026B0003FEF4FE757E40E94C50318164CF5698DAC
:1026C0007A8D8B8D9C8D20E030E040E251E40E94B9
:1026D0001F02DC01CB01BC01CD010E944900DC01DD
:1026E000CB019C8B8B8B0FC08CE291E09A8B898BFA
:1026F00089899A890197F1F79A8B898B8B899C89B3
:1027000001979C8B8B8B8B899C89009769F74CCEAA
:102710006D897E898F89988D0E944900DC01CB01EB
:102720009C8B8B8B8B899C89988B8F878F859889C5
:102730000197F1F7988B8F8737CEE5E3F0E088E0DB
:10274000808381E00E94EC0C88E690E00E94500EAD
:1027500084E090E00E94C90880E090E0AAEFB3E432
:102760008B879C87AD87BE876B857C858D859E8595
:1027700020E030E84BE355E40E941F02DC01CB016E
:102780008F839887A987BA876F81788589859A858D
:1027900020E030E040E85FE30E94250488232CF429
:1027A00081E090E09E838D833FC06F81788589852D
:1027B0009A8520E03FEF4FE757E40E94C5031816C3
:1027C0004CF56B857C858D859E8520E030E040E270
:1027D00051E40E941F02DC01CB01BC01CD010E942B
:1027E0004900DC01CB019E838D830FC08CE291E018
:1027F0009C838B838B819C810197F1F79C838B83D6
:102800008D819E8101979E838D838D819E8100970E
:1028100069F7CACD6F81788589859A850E944900BC
:10282000DC01CB019E838D838D819E819A83898378
:1028300089819A810197F1F79A838983B5CDE5E380
:10284000F0E01082B1CDDF93CF9300D00F92CDB7DF
:10285000DEB789837B836A838A819B818239910574
:1028600040F08981882F90E0FC01EB5FFD4F1082E2
:1028700046C08A819B818239910570F48A819B814F
:102880008437910548F08981882F90E0FC01EB5F47
:10289000FD4F81E0808333C08A819B81843791051D
:1028A00070F48A819B818536910548F08981882F53
:1028B00090E0FC01EB5FFD4F82E0808320C08A81C5
:1028C0009B818536910570F48A819B818B359105BA
:1028D00048F08981882F90E0FC01EB5FFD4F83E099
:1028E00080830DC08A819B818A35910540F489815E
:1028F000882F90E0FC01EB5FFD4F84E080830F9018
:102900000F900F90CF91DF910895DF93CF9300D078
:10291000CDB7DEB79A83898380E00E945C078093FD
:10292000050280910502282F30E080E0B9010E9465
:10293000231480910502E981FA81808381E00E945D
:102940005C078093060280910602282F30E081E028
:10295000B9010E94231480910602E981FA818183E2
:1029600082E00E945C078093070280910702282F73
:1029700030E082E0B9010E94231480910702E981CE
:10298000FA81828383E00E945C0780930802809131
:102990000802282F30E083E0B9010E9423148091BF
:1029A0000802E981FA8183830F900F90CF91DF9124
:1029B0000895DF93CF93CDB7DEB727970FB6F8947E
:1029C000DEBF0FBECDBF9C838B837E836D83109251
:1029D0000902198248C01A823FC08A81282F30E03C
:1029E0008B819C81FC01E20FF31F40818981282F9C
:1029F00030E08D819E81280F391F8A81882F90E0D9
:102A0000F901E80FF91F8081481751F58A81882361
:102A100001F58A81282F30E08B819C81FC01E20F37
:102A2000F31F40818981282F30E08D819E81280FFE
:102A3000391F8A81882F90E0F901E80FF91F808102
:102A4000481739F489818F5F8093090281E08F8371
:102A50000FC08A818F5F8A838A81882309F4BDCF62
:102A600089818F5F898389818A3008F4B4CF1F827E
:102A70008F8127960FB6F894DEBF0FBECDBFCF91E2
:102A8000DF910895EF92FF920F931F93DF93CF93FF
:102A900000D000D00F92CDB7DEB79A8389837C83B4
:102AA0006B8310920902E981FA81E080F180028152
:102AB000138180910902882F90E09C01220F331F1F
:102AC0008B819C81FC01E20FF31F0190F081E02DCE
:102AD0002081318142815381C801B7010E94C10127
:102AE000DC01CB01BC01CD0120E03EEC4FE757E417
:102AF0000E94F50388230CF4D3C0E981FA81E080B9
:102B0000F1800281138180910902882F90E09C015D
:102B1000220F331F8B819C81FC01E20FF31F019078
:102B2000F081E02D2081318142815381C801B701BC
:102B30000E94C101DC01CB01BC01CD0120E030E0ED
:102B400048E452E40E94550418160CF4A9C0E98127
:102B5000FA81E480F5800681178180910902882F2F
:102B600090E09C01220F331F8B819C81FC01E20FBE
:102B7000F31F0190F081E02D24813581468157813A
:102B8000C801B7010E94C101DC01CB01BC01CD012C
:102B900020E03EEC4FE757E40E94F50388230CF455
:102BA0007FC0E981FA81E480F580068117818091F8
:102BB0000902882F90E09C01220F331F8B819C819A
:102BC000FC01E20FF31F0190F081E02D248135819B
:102BD00046815781C801B7010E94C101DC01CB01C8
:102BE000BC01CD0120E030E048E452E40E945504ED
:102BF00018160CF455C0E981FA81E084F18402854D
:102C0000138580910902882F90E09C01220F331FC9
:102C10008B819C81FC01E20FF31F0190F081E02D7C
:102C20002085318542855385C801B7010E94C101C5
:102C3000DC01CB01BC01CD0120E03EEC4FE757E4C5
:102C40000E94F503882364F1E981FA81E084F1842C
:102C50000285138580910902882F90E09C01220F44
:102C6000331F8B819C81FC01E20FF31F0190F081E7
:102C7000E02D2085318542855385C801B7010E942A
:102C8000C101DC01CB01BC01CD0120E030E048E412
:102C900052E40E94550418161CF081E08D8301C097
:102CA0001D828D810F900F900F900F900F90CF91FC
:102CB000DF911F910F91FF90EF900895DF93CF93D5
:102CC00000D0CDB7DEB789836A838A816DE24981FE
:102CD0000E94770A8A8161E34BE00E94770A8A8129
:102CE0006EE14FEF0E94770A8A816FE140E00E9417
:102CF000770A8A8160E24FEF0E94770A0F900F9067
:102D0000CF91DF9108950F931F93DF93CF93CDB7AA
:102D1000DEB7CD55D0400FB6F894DEBF0FBECDBFA5
:102D2000FE01E55AFF4F8083FE01E45AFF4F718395
:102D30006083FE01E55AFF4F808162E30E94B00A82
:102D4000FE01E75AFF4F882F90E091838083FE01B8
:102D5000EF5AFF4F80E090E0A0E8BFE380839183CB
:102D6000A283B3838E01035B1F4FFE01EF5AFF4F17
:102D7000608171818281938120E030E84BE355E4EA
:102D80000E941F02DC01CB01F80180839183A283A2
:102D9000B383FE01E35BFF4F608171818281938188
:102DA00020E030E040E85FE30E942504882344F4FB
:102DB000FE01E55BFF4F81E090E09183808364C07A
:102DC000FE01E35BFF4F608171818281938120E08E
:102DD0003FEF4FE757E40E94C50318160CF043C0BD
:102DE000FE01EF5AFF4F608171818281938120E063
:102DF00030E040E251E40E941F02DC01CB018E0171
:102E0000055B1F4FBC01CD010E944900DC01CB01D5
:102E1000F801918380831FC0FE01E75BFF4F8CE2C6
:102E200091E091838083FE01E75BFF4F8081918178
:102E30000197F1F7FE01E75BFF4F91838083DE018D
:102E4000A55BBF4FFE01E55BFF4F8081918101973C
:102E500011969C938E93FE01E55BFF4F80819181DB
:102E60000097D1F627C08E01055B1F4FFE01E35B83
:102E7000FF4F60817181828193810E944900DC0152
:102E8000CB01F80191838083DE01A95BBF4FFE0176
:102E9000E55BFF4F808191818D939C93FE01E95BFF
:102EA000FF4F808191810197F1F7FE01E95BFF4FB0
:102EB00091838083FE01E55AFF4F808163E30E9486
:102EC000B00A882F90E0982F88279C01DE01A75A2E
:102ED000BF4FFE01E75AFF4F80819181822B932BD8
:102EE0008D939C93FE01ED5BFF4F80E090E0A0E8A6
:102EF000BFE380839183A283B3838E01015C1F4F64
:102F0000FE01ED5BFF4F608171818281938120E042
:102F100030E84BE355E40E941F02DC01CB01F801CD
:102F200080839183A283B383FE01FF9660817181C8
:102F30008281938120E030E040E85FE30E94250435
:102F400088232CF481E090E09EAF8DAF46C0FE0157
:102F5000FF96608171818281938120E03FEF4FE78E
:102F600057E40E94C503181664F5FE01ED5BFF4FA0
:102F7000608171818281938120E030E040E251E400
:102F80000E941F02DC01CB01BC01CD010E9449005F
:102F9000DC01CB019EAF8DAF0FC08CE291E09CAF06
:102FA0008BAF8BAD9CAD0197F1F79CAF8BAF8DAD27
:102FB0009EAD01979EAF8DAF8DAD9EAD009769F729
:102FC00016C0FE01FF9660817181828193810E940B
:102FD0004900DC01CB019EAF8DAF8DAD9EAD9AAFA8
:102FE00089AF89AD9AAD0197F1F79AAF89AFFE012C
:102FF000E55AFF4F808164E30E94B00AFE01E95A5E
:10300000FF4F882F90E09183808380E090E0A0E8DC
:10301000BFE38DAB9EABAFABB8AF6DA97EA98FA957
:1030200098AD20E030E84BE355E40E941F02DC013C
:10303000CB0189AB9AABABABBCAB69A97AA98BA925
:103040009CA920E030E040E85FE30E94250488234B
:103050002CF481E090E098AB8FA73FC069A97AA9D2
:103060008BA99CA920E03FEF4FE757E40E94C503DE
:1030700018164CF56DA97EA98FA998AD20E030E017
:1030800040E251E40E941F02DC01CB01BC01CD01F2
:103090000E944900DC01CB0198AB8FA70FC08CE2E6
:1030A00091E09EA78DA78DA59EA50197F1F79EA7FC
:1030B0008DA78FA598A9019798AB8FA78FA598A9E1
:1030C000009769F714C069A97AA98BA99CA90E94E5
:1030D0004900DC01CB0198AB8FA78FA598A99CA7CD
:1030E0008BA78BA59CA50197F1F79CA78BA7FE0149
:1030F000E55AFF4F808165E30E94B00A882F90E077
:10310000982F88279C01DE01A95ABF4FFE01E95A7A
:10311000FF4F80819181822B932B8D939C9380E034
:1031200090E0A0E8BFE38FA398A7A9A7BAA76FA1D3
:1031300078A589A59AA520E030E84BE355E40E94E4
:103140001F02DC01CB018BA39CA3ADA3BEA36BA18B
:103150007CA18DA19EA120E030E040E85FE30E94C9
:10316000250488232CF481E090E09AA389A33FC032
:103170006BA17CA18DA19EA120E03FEF4FE757E41A
:103180000E94C50318164CF56FA178A589A59AA5CC
:1031900020E030E040E251E40E941F02DC01CB015C
:1031A000BC01CD010E944900DC01CB019AA389A397
:1031B0000FC08CE291E098A38F8F8F8D98A101971B
:1031C000F1F798A38F8F89A19AA101979AA389A358
:1031D00089A19AA1009769F714C06BA17CA18DA168
:1031E0009EA10E944900DC01CB019AA389A389A179
:1031F0009AA19E8F8D8F8D8D9E8D0197F1F79E8F59
:103200008D8FFE01E55AFF4F808166E30E94B00A70
:10321000FE01EB5AFF4F882F90E09183808380E07E
:1032200090E0A0E8BFE3898F9A8FAB8FBC8F698D48
:103230007A8D8B8D9C8D20E030E84BE355E40E9425
:103240001F02DC01CB018D8B9E8BAF8BB88F6D89FC
:103250007E898F89988D20E030E040E85FE30E940E
:10326000250488232CF481E090E09C8B8B8B3FC05D
:103270006D897E898F89988D20E03FEF4FE757E475
:103280000E94C50318164CF5698D7A8D8B8D9C8D27
:1032900020E030E040E251E40E941F02DC01CB015B
:1032A000BC01CD010E944900DC01CB019C8B8B8BC2
:1032B0000FC08CE291E09A8B898B89899A8901975A
:1032C000F1F79A8B898B8B899C8901979C8B8B8BCF
:1032D0008B899C89009769F714C06D897E898F89D5
:1032E000988D0E944900DC01CB019C8B8B8B8B89D4
:1032F0009C89988B8F878F8598890197F1F7988B98
:103300008F87FE01E55AFF4F808167E30E94B00A74
:10331000882F90E0982F88279C01DE01AB5ABF4F81
:10332000FE01EB5AFF4F80819181822B932B8D936D
:103330009C9380E090E0A0E8BFE38B879C87AD87FB
:10334000BE876B857C858D859E8520E030E84BE3CC
:1033500055E40E941F02DC01CB018F839887A98767
:10336000BA876F81788589859A8520E030E040E8CA
:103370005FE30E94250488232CF481E090E09E8383
:103380008D833FC06F81788589859A8520E03FEFE6
:103390004FE757E40E94C50318164CF56B857C85F2
:1033A0008D859E8520E030E040E251E40E941F02BE
:1033B000DC01CB01BC01CD010E944900DC01CB0145
:1033C0009E838D830FC08CE291E09C838B838B81E5
:1033D0009C810197F1F79C838B838D819E8101975E
:1033E0009E838D838D819E81009769F714C06F81C4
:1033F000788589859A850E944900DC01CB019E83EE
:103400008D838D819E819A83898389819A81019799
:10341000F1F79A838983FE01E75AFF4F80819181FA
:10342000CC01A0E0B0E0BC01CD010E94D904DC01D8
:10343000CB01FE01E45AFF4F0190F081E02D808323
:103440009183A283B383FE01E95AFF4F808191816A
:10345000CC01A0E0B0E0BC01CD010E94D904DC01A8
:10346000CB01FE01E45AFF4F0190F081E02D8483EF
:103470009583A683B783FE01EB5AFF4F808191812C
:10348000CC01A0E0B0E0BC01CD010E94D904DC0178
:10349000CB01FE01E45AFF4F0190F081E02D8087BF
:1034A0009187A287B387C35ADF4F0FB6F894DEBF68
:1034B0000FBECDBFCF91DF911F910F910895DF9384
:1034C000CF9300D0CDB7DEB78BE990E09A838983A4
:1034D000ABE2B0E0EBE2F0E0808182608C93AAE2A4
:1034E000B0E0EAE2F0E0808188618C93A0E4B0E093
:1034F000E0E4F0E0808186688C93E9E2F0E0898185
:103500008083E0E4F0E089819A81892F9927808384
:103510000F900F90CF91DF910895DF93CF930F928B
:10352000CDB7DEB78983EBE2F0E08081882F90E0B1
:10353000807290700097B9F3ECE2F0E089818083AB
:103540000F90CF91DF910895DF93CF9300D000D0FB
:10355000CDB7DEB79B838A836C83198219820EC034
:103560008981282F30E08A819B81FC01E20FF31FC3
:1035700080810E948D1A89818F5F898399818C81D6
:10358000981770F30F900F900F900F90CF91DF91DD
:103590000895DF93CF93CDB7DEB7EBE2F0E0808103
:1035A0008823DCF7ECE2F0E08081CF91DF91089591
:1035B0002F923F924F925F926F927F928F929F9243
:1035C000AF92BF92CF92DF92EF92FF920F931F9331
:1035D000CF93DF93CDB7DEB7CA1BDB0B0FB6F894E2
:1035E000DEBF0FBECDBF09942A88398848885F8422
:1035F0006E847D848C849B84AA84B984C884DF8093
:10360000EE80FD800C811B81AA81B981CE0FD11D76
:103610000FB6F894DEBF0FBECDBFED010895FB01DC
:103620009F01E8944230C4F04532B4F44A3029F4A2
:1036300097FB1EF4909581959F4F642F77270E94EA
:10364000401B805D8A330CF0895D8193CB0100972C
:10365000A1F716F45DE251931082C9010C94301B5E
:10366000DC01FC01672F71917723E1F7329704C0E9
:103670007C916D9370836291AE17BF07C8F3089574
:10368000AA1BBB1B51E107C0AA1FBB1FA617B70788
:1036900010F0A61BB70B881F991F5A95A9F78095A4
:0C36A0009095BC01CD010895F894FFCF77
:1036AC0020004100420043004400000000000000E4
:1036BC0000000001020203030303040404040404D5
:1036CC0004040505050505050505050505050505A0
:1036DC000505060606060606060606060606060680
:1036EC00060606060606060606060606060606066E
:1036FC000606070707070707070707070707070750
:10370C00070707070707070707070707070707073D
:10371C00070707070707070707070707070707072D
:10372C00070707070707070707070707070707071D
:10373C0007070808080808080808080808080808FF
:10374C0008080808080808080808080808080808ED
:10375C0008080808080808080808080808080808DD
:10376C0008080808080808080808080808080808CD
:10377C0008080808080808080808080808080808BD
:10378C0008080808080808080808080808080808AD
:10379C00080808080808080808080808080808089D
:1037AC00080808080808080808080808080808088D
:1037BC0008087EFF0600000000EF7EFF06000000F8
:1037CC0000EF010000000000000000000000774343
:1037DC0000000C42000077430000774300000C42CD
:1037EC00000077430000774300000C420000774351
:1037FC000000774300000C420000774300000000FB
:10380C0000000000000000000000000000000000AC
:10381C00000000000000000000000000000000009C
:10382C00000000000000000000000000000000008C
:10383C00000000000000000000000000000000007C
:04384C000000000078
:00000001FF
